{
  "_format": "hh-sol-artifact-1",
  "contractName": "Nft",
  "sourceName": "contracts/Nft.sol",
  "abi": [
    {
      "inputs": [
        {
          "internalType": "address",
          "name": "defaultAdmin",
          "type": "address"
        }
      ],
      "stateMutability": "nonpayable",
      "type": "constructor"
    },
    {
      "inputs": [],
      "name": "AccessControlBadConfirmation",
      "type": "error"
    },
    {
      "inputs": [
        {
          "internalType": "address",
          "name": "account",
          "type": "address"
        },
        {
          "internalType": "bytes32",
          "name": "neededRole",
          "type": "bytes32"
        }
      ],
      "name": "AccessControlUnauthorizedAccount",
      "type": "error"
    },
    {
      "inputs": [
        {
          "internalType": "address",
          "name": "sender",
          "type": "address"
        },
        {
          "internalType": "uint256",
          "name": "tokenId",
          "type": "uint256"
        },
        {
          "internalType": "address",
          "name": "owner",
          "type": "address"
        }
      ],
      "name": "ERC721IncorrectOwner",
      "type": "error"
    },
    {
      "inputs": [
        {
          "internalType": "address",
          "name": "operator",
          "type": "address"
        },
        {
          "internalType": "uint256",
          "name": "tokenId",
          "type": "uint256"
        }
      ],
      "name": "ERC721InsufficientApproval",
      "type": "error"
    },
    {
      "inputs": [
        {
          "internalType": "address",
          "name": "approver",
          "type": "address"
        }
      ],
      "name": "ERC721InvalidApprover",
      "type": "error"
    },
    {
      "inputs": [
        {
          "internalType": "address",
          "name": "operator",
          "type": "address"
        }
      ],
      "name": "ERC721InvalidOperator",
      "type": "error"
    },
    {
      "inputs": [
        {
          "internalType": "address",
          "name": "owner",
          "type": "address"
        }
      ],
      "name": "ERC721InvalidOwner",
      "type": "error"
    },
    {
      "inputs": [
        {
          "internalType": "address",
          "name": "receiver",
          "type": "address"
        }
      ],
      "name": "ERC721InvalidReceiver",
      "type": "error"
    },
    {
      "inputs": [
        {
          "internalType": "address",
          "name": "sender",
          "type": "address"
        }
      ],
      "name": "ERC721InvalidSender",
      "type": "error"
    },
    {
      "inputs": [
        {
          "internalType": "uint256",
          "name": "tokenId",
          "type": "uint256"
        }
      ],
      "name": "ERC721NonexistentToken",
      "type": "error"
    },
    {
      "anonymous": false,
      "inputs": [
        {
          "indexed": true,
          "internalType": "address",
          "name": "owner",
          "type": "address"
        },
        {
          "indexed": true,
          "internalType": "address",
          "name": "approved",
          "type": "address"
        },
        {
          "indexed": true,
          "internalType": "uint256",
          "name": "tokenId",
          "type": "uint256"
        }
      ],
      "name": "Approval",
      "type": "event"
    },
    {
      "anonymous": false,
      "inputs": [
        {
          "indexed": true,
          "internalType": "address",
          "name": "owner",
          "type": "address"
        },
        {
          "indexed": true,
          "internalType": "address",
          "name": "operator",
          "type": "address"
        },
        {
          "indexed": false,
          "internalType": "bool",
          "name": "approved",
          "type": "bool"
        }
      ],
      "name": "ApprovalForAll",
      "type": "event"
    },
    {
      "anonymous": false,
      "inputs": [
        {
          "indexed": false,
          "internalType": "uint256",
          "name": "_fromTokenId",
          "type": "uint256"
        },
        {
          "indexed": false,
          "internalType": "uint256",
          "name": "_toTokenId",
          "type": "uint256"
        }
      ],
      "name": "BatchMetadataUpdate",
      "type": "event"
    },
    {
      "anonymous": false,
      "inputs": [
        {
          "indexed": false,
          "internalType": "uint256",
          "name": "_tokenId",
          "type": "uint256"
        }
      ],
      "name": "MetadataUpdate",
      "type": "event"
    },
    {
      "anonymous": false,
      "inputs": [
        {
          "indexed": true,
          "internalType": "bytes32",
          "name": "role",
          "type": "bytes32"
        },
        {
          "indexed": true,
          "internalType": "bytes32",
          "name": "previousAdminRole",
          "type": "bytes32"
        },
        {
          "indexed": true,
          "internalType": "bytes32",
          "name": "newAdminRole",
          "type": "bytes32"
        }
      ],
      "name": "RoleAdminChanged",
      "type": "event"
    },
    {
      "anonymous": false,
      "inputs": [
        {
          "indexed": true,
          "internalType": "bytes32",
          "name": "role",
          "type": "bytes32"
        },
        {
          "indexed": true,
          "internalType": "address",
          "name": "account",
          "type": "address"
        },
        {
          "indexed": true,
          "internalType": "address",
          "name": "sender",
          "type": "address"
        }
      ],
      "name": "RoleGranted",
      "type": "event"
    },
    {
      "anonymous": false,
      "inputs": [
        {
          "indexed": true,
          "internalType": "bytes32",
          "name": "role",
          "type": "bytes32"
        },
        {
          "indexed": true,
          "internalType": "address",
          "name": "account",
          "type": "address"
        },
        {
          "indexed": true,
          "internalType": "address",
          "name": "sender",
          "type": "address"
        }
      ],
      "name": "RoleRevoked",
      "type": "event"
    },
    {
      "anonymous": false,
      "inputs": [
        {
          "indexed": true,
          "internalType": "address",
          "name": "from",
          "type": "address"
        },
        {
          "indexed": true,
          "internalType": "address",
          "name": "to",
          "type": "address"
        },
        {
          "indexed": true,
          "internalType": "uint256",
          "name": "tokenId",
          "type": "uint256"
        }
      ],
      "name": "Transfer",
      "type": "event"
    },
    {
      "anonymous": false,
      "inputs": [
        {
          "indexed": false,
          "internalType": "address",
          "name": "_addre",
          "type": "address"
        }
      ],
      "name": "addshouquan",
      "type": "event"
    },
    {
      "inputs": [],
      "name": "DEFAULT_ADMIN_ROLE",
      "outputs": [
        {
          "internalType": "bytes32",
          "name": "",
          "type": "bytes32"
        }
      ],
      "stateMutability": "view",
      "type": "function"
    },
    {
      "inputs": [],
      "name": "MINTER_ROLE",
      "outputs": [
        {
          "internalType": "bytes32",
          "name": "",
          "type": "bytes32"
        }
      ],
      "stateMutability": "view",
      "type": "function"
    },
    {
      "inputs": [
        {
          "internalType": "address",
          "name": "to",
          "type": "address"
        },
        {
          "internalType": "uint256",
          "name": "tokenId",
          "type": "uint256"
        }
      ],
      "name": "approve",
      "outputs": [],
      "stateMutability": "nonpayable",
      "type": "function"
    },
    {
      "inputs": [
        {
          "internalType": "address",
          "name": "owner",
          "type": "address"
        }
      ],
      "name": "balanceOf",
      "outputs": [
        {
          "internalType": "uint256",
          "name": "",
          "type": "uint256"
        }
      ],
      "stateMutability": "view",
      "type": "function"
    },
    {
      "inputs": [
        {
          "internalType": "uint256",
          "name": "tokenId",
          "type": "uint256"
        }
      ],
      "name": "getApproved",
      "outputs": [
        {
          "internalType": "address",
          "name": "",
          "type": "address"
        }
      ],
      "stateMutability": "view",
      "type": "function"
    },
    {
      "inputs": [
        {
          "internalType": "bytes32",
          "name": "role",
          "type": "bytes32"
        }
      ],
      "name": "getRoleAdmin",
      "outputs": [
        {
          "internalType": "bytes32",
          "name": "",
          "type": "bytes32"
        }
      ],
      "stateMutability": "view",
      "type": "function"
    },
    {
      "inputs": [
        {
          "internalType": "bytes32",
          "name": "role",
          "type": "bytes32"
        },
        {
          "internalType": "address",
          "name": "account",
          "type": "address"
        }
      ],
      "name": "grantRole",
      "outputs": [],
      "stateMutability": "nonpayable",
      "type": "function"
    },
    {
      "inputs": [
        {
          "internalType": "bytes32",
          "name": "role",
          "type": "bytes32"
        },
        {
          "internalType": "address",
          "name": "account",
          "type": "address"
        }
      ],
      "name": "hasRole",
      "outputs": [
        {
          "internalType": "bool",
          "name": "",
          "type": "bool"
        }
      ],
      "stateMutability": "view",
      "type": "function"
    },
    {
      "inputs": [
        {
          "internalType": "address",
          "name": "owner",
          "type": "address"
        },
        {
          "internalType": "address",
          "name": "operator",
          "type": "address"
        }
      ],
      "name": "isApprovedForAll",
      "outputs": [
        {
          "internalType": "bool",
          "name": "",
          "type": "bool"
        }
      ],
      "stateMutability": "view",
      "type": "function"
    },
    {
      "inputs": [],
      "name": "name",
      "outputs": [
        {
          "internalType": "string",
          "name": "",
          "type": "string"
        }
      ],
      "stateMutability": "view",
      "type": "function"
    },
    {
      "inputs": [
        {
          "internalType": "uint256",
          "name": "tokenId",
          "type": "uint256"
        }
      ],
      "name": "ownerOf",
      "outputs": [
        {
          "internalType": "address",
          "name": "",
          "type": "address"
        }
      ],
      "stateMutability": "view",
      "type": "function"
    },
    {
      "inputs": [
        {
          "internalType": "bytes32",
          "name": "role",
          "type": "bytes32"
        },
        {
          "internalType": "address",
          "name": "callerConfirmation",
          "type": "address"
        }
      ],
      "name": "renounceRole",
      "outputs": [],
      "stateMutability": "nonpayable",
      "type": "function"
    },
    {
      "inputs": [
        {
          "internalType": "bytes32",
          "name": "role",
          "type": "bytes32"
        },
        {
          "internalType": "address",
          "name": "account",
          "type": "address"
        }
      ],
      "name": "revokeRole",
      "outputs": [],
      "stateMutability": "nonpayable",
      "type": "function"
    },
    {
      "inputs": [
        {
          "internalType": "address",
          "name": "to",
          "type": "address"
        },
        {
          "internalType": "string",
          "name": "uri",
          "type": "string"
        }
      ],
      "name": "safeMint",
      "outputs": [
        {
          "internalType": "uint256",
          "name": "",
          "type": "uint256"
        }
      ],
      "stateMutability": "nonpayable",
      "type": "function"
    },
    {
      "inputs": [
        {
          "internalType": "address",
          "name": "from",
          "type": "address"
        },
        {
          "internalType": "address",
          "name": "to",
          "type": "address"
        },
        {
          "internalType": "uint256",
          "name": "tokenId",
          "type": "uint256"
        }
      ],
      "name": "safeTransferFrom",
      "outputs": [],
      "stateMutability": "nonpayable",
      "type": "function"
    },
    {
      "inputs": [
        {
          "internalType": "address",
          "name": "from",
          "type": "address"
        },
        {
          "internalType": "address",
          "name": "to",
          "type": "address"
        },
        {
          "internalType": "uint256",
          "name": "tokenId",
          "type": "uint256"
        },
        {
          "internalType": "bytes",
          "name": "data",
          "type": "bytes"
        }
      ],
      "name": "safeTransferFrom",
      "outputs": [],
      "stateMutability": "nonpayable",
      "type": "function"
    },
    {
      "inputs": [
        {
          "internalType": "address",
          "name": "operator",
          "type": "address"
        },
        {
          "internalType": "bool",
          "name": "approved",
          "type": "bool"
        }
      ],
      "name": "setApprovalForAll",
      "outputs": [],
      "stateMutability": "nonpayable",
      "type": "function"
    },
    {
      "inputs": [
        {
          "internalType": "address",
          "name": "_addre",
          "type": "address"
        }
      ],
      "name": "shouquan",
      "outputs": [],
      "stateMutability": "nonpayable",
      "type": "function"
    },
    {
      "inputs": [
        {
          "internalType": "bytes4",
          "name": "interfaceId",
          "type": "bytes4"
        }
      ],
      "name": "supportsInterface",
      "outputs": [
        {
          "internalType": "bool",
          "name": "",
          "type": "bool"
        }
      ],
      "stateMutability": "view",
      "type": "function"
    },
    {
      "inputs": [],
      "name": "symbol",
      "outputs": [
        {
          "internalType": "string",
          "name": "",
          "type": "string"
        }
      ],
      "stateMutability": "view",
      "type": "function"
    },
    {
      "inputs": [
        {
          "internalType": "uint256",
          "name": "tokenId",
          "type": "uint256"
        }
      ],
      "name": "tokenURI",
      "outputs": [
        {
          "internalType": "string",
          "name": "",
          "type": "string"
        }
      ],
      "stateMutability": "view",
      "type": "function"
    },
    {
      "inputs": [
        {
          "internalType": "address",
          "name": "from",
          "type": "address"
        },
        {
          "internalType": "address",
          "name": "to",
          "type": "address"
        },
        {
          "internalType": "uint256",
          "name": "tokenId",
          "type": "uint256"
        }
      ],
      "name": "transferFrom",
      "outputs": [],
      "stateMutability": "nonpayable",
      "type": "function"
    }
  ],
  "bytecode": "0x60806040523480156200001157600080fd5b5060405162003186380380620031868339818101604052810190620000379190620002c7565b6040518060400160405280600381526020017f4e667400000000000000000000000000000000000000000000000000000000008152506040518060400160405280600381526020017f4d544b00000000000000000000000000000000000000000000000000000000008152508160009081620000b4919062000573565b508060019081620000c6919062000573565b505050620000de6000801b82620000e660201b60201c565b50506200065a565b6000620000fa8383620001ea60201b60201c565b620001df5760016007600085815260200190815260200160002060000160008473ffffffffffffffffffffffffffffffffffffffff1673ffffffffffffffffffffffffffffffffffffffff16815260200190815260200160002060006101000a81548160ff0219169083151502179055506200017b6200025560201b60201c565b73ffffffffffffffffffffffffffffffffffffffff168273ffffffffffffffffffffffffffffffffffffffff16847f2f8788117e7eff1d82e926ec794901d17c78024a50270940304540a733656f0d60405160405180910390a460019050620001e4565b600090505b92915050565b60006007600084815260200190815260200160002060000160008373ffffffffffffffffffffffffffffffffffffffff1673ffffffffffffffffffffffffffffffffffffffff16815260200190815260200160002060009054906101000a900460ff16905092915050565b600033905090565b600080fd5b600073ffffffffffffffffffffffffffffffffffffffff82169050919050565b60006200028f8262000262565b9050919050565b620002a18162000282565b8114620002ad57600080fd5b50565b600081519050620002c18162000296565b92915050565b600060208284031215620002e057620002df6200025d565b5b6000620002f084828501620002b0565b91505092915050565b600081519050919050565b7f4e487b7100000000000000000000000000000000000000000000000000000000600052604160045260246000fd5b7f4e487b7100000000000000000000000000000000000000000000000000000000600052602260045260246000fd5b600060028204905060018216806200037b57607f821691505b60208210810362000391576200039062000333565b5b50919050565b60008190508160005260206000209050919050565b60006020601f8301049050919050565b600082821b905092915050565b600060088302620003fb7fffffffffffffffffffffffffffffffffffffffffffffffffffffffffffffffff82620003bc565b620004078683620003bc565b95508019841693508086168417925050509392505050565b6000819050919050565b6000819050919050565b6000620004546200044e62000448846200041f565b62000429565b6200041f565b9050919050565b6000819050919050565b620004708362000433565b620004886200047f826200045b565b848454620003c9565b825550505050565b600090565b6200049f62000490565b620004ac81848462000465565b505050565b5b81811015620004d457620004c860008262000495565b600181019050620004b2565b5050565b601f8211156200052357620004ed8162000397565b620004f884620003ac565b8101602085101562000508578190505b620005206200051785620003ac565b830182620004b1565b50505b505050565b600082821c905092915050565b6000620005486000198460080262000528565b1980831691505092915050565b600062000563838362000535565b9150826002028217905092915050565b6200057e82620002f9565b67ffffffffffffffff8111156200059a576200059962000304565b5b620005a6825462000362565b620005b3828285620004d8565b600060209050601f831160018114620005eb5760008415620005d6578287015190505b620005e2858262000555565b86555062000652565b601f198416620005fb8662000397565b60005b828110156200062557848901518255600182019150602085019450602081019050620005fe565b8683101562000645578489015162000641601f89168262000535565b8355505b6001600288020188555050505b505050505050565b612b1c806200066a6000396000f3fe608060405234801561001057600080fd5b50600436106101425760003560e01c80638acae28e116100b8578063b88d4fde1161007c578063b88d4fde14610385578063c87b56dd146103a1578063d204c45e146103d1578063d539139314610401578063d547741f1461041f578063e985e9c51461043b57610142565b80638acae28e146102e157806391d14854146102fd57806395d89b411461032d578063a217fddf1461034b578063a22cb4651461036957610142565b8063248a9ca31161010a578063248a9ca3146101fd5780632f2ff15d1461022d57806336568abe1461024957806342842e0e146102655780636352211e1461028157806370a08231146102b157610142565b806301ffc9a71461014757806306fdde0314610177578063081812fc14610195578063095ea7b3146101c557806323b872dd146101e1575b600080fd5b610161600480360381019061015c9190611e7e565b61046b565b60405161016e9190611ec6565b60405180910390f35b61017f61047d565b60405161018c9190611f71565b60405180910390f35b6101af60048036038101906101aa9190611fc9565b61050f565b6040516101bc9190612037565b60405180910390f35b6101df60048036038101906101da919061207e565b61052b565b005b6101fb60048036038101906101f691906120be565b610541565b005b61021760048036038101906102129190612147565b610643565b6040516102249190612183565b60405180910390f35b6102476004803603810190610242919061219e565b610663565b005b610263600480360381019061025e919061219e565b610685565b005b61027f600480360381019061027a91906120be565b610700565b005b61029b60048036038101906102969190611fc9565b610720565b6040516102a89190612037565b60405180910390f35b6102cb60048036038101906102c691906121de565b610732565b6040516102d8919061221a565b60405180910390f35b6102fb60048036038101906102f691906121de565b6107ec565b005b6103176004803603810190610312919061219e565b610851565b6040516103249190611ec6565b60405180910390f35b6103356108bc565b6040516103429190611f71565b60405180910390f35b61035361094e565b6040516103609190612183565b60405180910390f35b610383600480360381019061037e9190612261565b610955565b005b61039f600480360381019061039a91906123d6565b61096b565b005b6103bb60048036038101906103b69190611fc9565b610990565b6040516103c89190611f71565b60405180910390f35b6103eb60048036038101906103e691906124fa565b6109a2565b6040516103f8919061221a565b60405180910390f35b6104096109dc565b6040516104169190612183565b60405180910390f35b6104396004803603810190610434919061219e565b610a00565b005b61045560048036038101906104509190612556565b610a22565b6040516104629190611ec6565b60405180910390f35b600061047682610ab6565b9050919050565b60606000805461048c906125c5565b80601f01602080910402602001604051908101604052809291908181526020018280546104b8906125c5565b80156105055780601f106104da57610100808354040283529160200191610505565b820191906000526020600020905b8154815290600101906020018083116104e857829003601f168201915b5050505050905090565b600061051a82610b30565b5061052482610bb8565b9050919050565b61053d8282610538610bf5565b610bfd565b5050565b600073ffffffffffffffffffffffffffffffffffffffff168273ffffffffffffffffffffffffffffffffffffffff16036105b35760006040517f64a0ae920000000000000000000000000000000000000000000000000000000081526004016105aa9190612037565b60405180910390fd5b60006105c783836105c2610bf5565b610c0f565b90508373ffffffffffffffffffffffffffffffffffffffff168173ffffffffffffffffffffffffffffffffffffffff161461063d578382826040517f64283d7b000000000000000000000000000000000000000000000000000000008152600401610634939291906125f6565b60405180910390fd5b50505050565b600060076000838152602001908152602001600020600101549050919050565b61066c82610643565b61067581610e29565b61067f8383610e3d565b50505050565b61068d610bf5565b73ffffffffffffffffffffffffffffffffffffffff168173ffffffffffffffffffffffffffffffffffffffff16146106f1576040517f6697b23200000000000000000000000000000000000000000000000000000000815260040160405180910390fd5b6106fb8282610f2f565b505050565b61071b8383836040518060200160405280600081525061096b565b505050565b600061072b82610b30565b9050919050565b60008073ffffffffffffffffffffffffffffffffffffffff168273ffffffffffffffffffffffffffffffffffffffff16036107a55760006040517f89c62b6400000000000000000000000000000000000000000000000000000000815260040161079c9190612037565b60405180910390fd5b600360008373ffffffffffffffffffffffffffffffffffffffff1673ffffffffffffffffffffffffffffffffffffffff168152602001908152602001600020549050919050565b6108167f9f2df0fed2c77648de5860a4cc508cd0818c85b8b8a1ab4ceeef8d981c8956a682610e3d565b507f7b6e2832ffad42bf0ed531dd4a04015937839619ab3028912c0a76cf1fece12d816040516108469190612037565b60405180910390a150565b60006007600084815260200190815260200160002060000160008373ffffffffffffffffffffffffffffffffffffffff1673ffffffffffffffffffffffffffffffffffffffff16815260200190815260200160002060009054906101000a900460ff16905092915050565b6060600180546108cb906125c5565b80601f01602080910402602001604051908101604052809291908181526020018280546108f7906125c5565b80156109445780601f1061091957610100808354040283529160200191610944565b820191906000526020600020905b81548152906001019060200180831161092757829003601f168201915b5050505050905090565b6000801b81565b610967610960610bf5565b8383611022565b5050565b610976848484610541565b61098a610981610bf5565b85858585611191565b50505050565b606061099b82611342565b9050919050565b600080600860008154809291906109b89061265c565b9190505590506109c88482611455565b6109d28184611473565b8091505092915050565b7f9f2df0fed2c77648de5860a4cc508cd0818c85b8b8a1ab4ceeef8d981c8956a681565b610a0982610643565b610a1281610e29565b610a1c8383610f2f565b50505050565b6000600560008473ffffffffffffffffffffffffffffffffffffffff1673ffffffffffffffffffffffffffffffffffffffff16815260200190815260200160002060008373ffffffffffffffffffffffffffffffffffffffff1673ffffffffffffffffffffffffffffffffffffffff16815260200190815260200160002060009054906101000a900460ff16905092915050565b60007f7965db0b000000000000000000000000000000000000000000000000000000007bffffffffffffffffffffffffffffffffffffffffffffffffffffffff1916827bffffffffffffffffffffffffffffffffffffffffffffffffffffffff19161480610b295750610b28826114cf565b5b9050919050565b600080610b3c83611530565b9050600073ffffffffffffffffffffffffffffffffffffffff168173ffffffffffffffffffffffffffffffffffffffff1603610baf57826040517f7e273289000000000000000000000000000000000000000000000000000000008152600401610ba6919061221a565b60405180910390fd5b80915050919050565b60006004600083815260200190815260200160002060009054906101000a900473ffffffffffffffffffffffffffffffffffffffff169050919050565b600033905090565b610c0a838383600161156d565b505050565b600080610c1b84611530565b9050600073ffffffffffffffffffffffffffffffffffffffff168373ffffffffffffffffffffffffffffffffffffffff1614610c5d57610c5c818486611732565b5b600073ffffffffffffffffffffffffffffffffffffffff168173ffffffffffffffffffffffffffffffffffffffff1614610cee57610c9f60008560008061156d565b6001600360008373ffffffffffffffffffffffffffffffffffffffff1673ffffffffffffffffffffffffffffffffffffffff168152602001908152602001600020600082825403925050819055505b600073ffffffffffffffffffffffffffffffffffffffff168573ffffffffffffffffffffffffffffffffffffffff1614610d71576001600360008773ffffffffffffffffffffffffffffffffffffffff1673ffffffffffffffffffffffffffffffffffffffff168152602001908152602001600020600082825401925050819055505b846002600086815260200190815260200160002060006101000a81548173ffffffffffffffffffffffffffffffffffffffff021916908373ffffffffffffffffffffffffffffffffffffffff160217905550838573ffffffffffffffffffffffffffffffffffffffff168273ffffffffffffffffffffffffffffffffffffffff167fddf252ad1be2c89b69c2b068fc378daa952ba7f163c4a11628f55a4df523b3ef60405160405180910390a4809150509392505050565b610e3a81610e35610bf5565b6117f6565b50565b6000610e498383610851565b610f245760016007600085815260200190815260200160002060000160008473ffffffffffffffffffffffffffffffffffffffff1673ffffffffffffffffffffffffffffffffffffffff16815260200190815260200160002060006101000a81548160ff021916908315150217905550610ec1610bf5565b73ffffffffffffffffffffffffffffffffffffffff168273ffffffffffffffffffffffffffffffffffffffff16847f2f8788117e7eff1d82e926ec794901d17c78024a50270940304540a733656f0d60405160405180910390a460019050610f29565b600090505b92915050565b6000610f3b8383610851565b156110175760006007600085815260200190815260200160002060000160008473ffffffffffffffffffffffffffffffffffffffff1673ffffffffffffffffffffffffffffffffffffffff16815260200190815260200160002060006101000a81548160ff021916908315150217905550610fb4610bf5565b73ffffffffffffffffffffffffffffffffffffffff168273ffffffffffffffffffffffffffffffffffffffff16847ff6391f5c32d9c69d2a47ea670b442974b53935d1edc7fd64eb21e047a839171b60405160405180910390a46001905061101c565b600090505b92915050565b600073ffffffffffffffffffffffffffffffffffffffff168273ffffffffffffffffffffffffffffffffffffffff160361109357816040517f5b08ba1800000000000000000000000000000000000000000000000000000000815260040161108a9190612037565b60405180910390fd5b80600560008573ffffffffffffffffffffffffffffffffffffffff1673ffffffffffffffffffffffffffffffffffffffff16815260200190815260200160002060008473ffffffffffffffffffffffffffffffffffffffff1673ffffffffffffffffffffffffffffffffffffffff16815260200190815260200160002060006101000a81548160ff0219169083151502179055508173ffffffffffffffffffffffffffffffffffffffff168373ffffffffffffffffffffffffffffffffffffffff167f17307eab39ab6107e8899845ad3d59bd9653f200f220920489ca2b5937696c31836040516111849190611ec6565b60405180910390a3505050565b60008373ffffffffffffffffffffffffffffffffffffffff163b111561133b578273ffffffffffffffffffffffffffffffffffffffff1663150b7a02868685856040518563ffffffff1660e01b81526004016111f094939291906126f9565b6020604051808303816000875af192505050801561122c57506040513d601f19601f82011682018060405250810190611229919061275a565b60015b6112b0573d806000811461125c576040519150601f19603f3d011682016040523d82523d6000602084013e611261565b606091505b5060008151036112a857836040517f64a0ae9200000000000000000000000000000000000000000000000000000000815260040161129f9190612037565b60405180910390fd5b805160208201fd5b63150b7a0260e01b7bffffffffffffffffffffffffffffffffffffffffffffffffffffffff1916817bffffffffffffffffffffffffffffffffffffffffffffffffffffffff19161461133957836040517f64a0ae920000000000000000000000000000000000000000000000000000000081526004016113309190612037565b60405180910390fd5b505b5050505050565b606061134d82610b30565b50600060066000848152602001908152602001600020805461136e906125c5565b80601f016020809104026020016040519081016040528092919081815260200182805461139a906125c5565b80156113e75780601f106113bc576101008083540402835291602001916113e7565b820191906000526020600020905b8154815290600101906020018083116113ca57829003601f168201915b5050505050905060006113f8611847565b9050600081510361140d578192505050611450565b60008251111561144257808260405160200161142a9291906127c3565b60405160208183030381529060405292505050611450565b61144b8461185e565b925050505b919050565b61146f8282604051806020016040528060008152506118c7565b5050565b806006600084815260200190815260200160002090816114939190612993565b507ff8e1a15aba9398e019f0b49df1a4fde98ee17ae345cb5f6b5e2c27f5033e8ce7826040516114c3919061221a565b60405180910390a15050565b6000634906490660e01b7bffffffffffffffffffffffffffffffffffffffffffffffffffffffff1916827bffffffffffffffffffffffffffffffffffffffffffffffffffffffff191614806115295750611528826118eb565b5b9050919050565b60006002600083815260200190815260200160002060009054906101000a900473ffffffffffffffffffffffffffffffffffffffff169050919050565b80806115a65750600073ffffffffffffffffffffffffffffffffffffffff168273ffffffffffffffffffffffffffffffffffffffff1614155b156116da5760006115b684610b30565b9050600073ffffffffffffffffffffffffffffffffffffffff168373ffffffffffffffffffffffffffffffffffffffff161415801561162157508273ffffffffffffffffffffffffffffffffffffffff168173ffffffffffffffffffffffffffffffffffffffff1614155b801561163457506116328184610a22565b155b1561167657826040517fa9fbf51f00000000000000000000000000000000000000000000000000000000815260040161166d9190612037565b60405180910390fd5b81156116d857838573ffffffffffffffffffffffffffffffffffffffff168273ffffffffffffffffffffffffffffffffffffffff167f8c5be1e5ebec7d5bd14f71427d1e84f3dd0314c0f7b2291e5b200ac8c7c3b92560405160405180910390a45b505b836004600085815260200190815260200160002060006101000a81548173ffffffffffffffffffffffffffffffffffffffff021916908373ffffffffffffffffffffffffffffffffffffffff16021790555050505050565b61173d8383836119cd565b6117f157600073ffffffffffffffffffffffffffffffffffffffff168373ffffffffffffffffffffffffffffffffffffffff16036117b257806040517f7e2732890000000000000000000000000000000000000000000000000000000081526004016117a9919061221a565b60405180910390fd5b81816040517f177e802f0000000000000000000000000000000000000000000000000000000081526004016117e8929190612a65565b60405180910390fd5b505050565b6118008282610851565b6118435780826040517fe2517d3f00000000000000000000000000000000000000000000000000000000815260040161183a929190612a8e565b60405180910390fd5b5050565b606060405180602001604052806000815250905090565b606061186982610b30565b506000611874611847565b9050600081511161189457604051806020016040528060008152506118bf565b8061189e84611a8e565b6040516020016118af9291906127c3565b6040516020818303038152906040525b915050919050565b6118d18383611b5c565b6118e66118dc610bf5565b6000858585611191565b505050565b60007f80ac58cd000000000000000000000000000000000000000000000000000000007bffffffffffffffffffffffffffffffffffffffffffffffffffffffff1916827bffffffffffffffffffffffffffffffffffffffffffffffffffffffff191614806119b657507f5b5e139f000000000000000000000000000000000000000000000000000000007bffffffffffffffffffffffffffffffffffffffffffffffffffffffff1916827bffffffffffffffffffffffffffffffffffffffffffffffffffffffff1916145b806119c657506119c582611c55565b5b9050919050565b60008073ffffffffffffffffffffffffffffffffffffffff168373ffffffffffffffffffffffffffffffffffffffff1614158015611a8557508273ffffffffffffffffffffffffffffffffffffffff168473ffffffffffffffffffffffffffffffffffffffff161480611a465750611a458484610a22565b5b80611a8457508273ffffffffffffffffffffffffffffffffffffffff16611a6c83610bb8565b73ffffffffffffffffffffffffffffffffffffffff16145b5b90509392505050565b606060006001611a9d84611cbf565b01905060008167ffffffffffffffff811115611abc57611abb6122ab565b5b6040519080825280601f01601f191660200182016040528015611aee5781602001600182028036833780820191505090505b509050600082602083010190505b600115611b51578080600190039150507f3031323334353637383961626364656600000000000000000000000000000000600a86061a8153600a8581611b4557611b44612ab7565b5b04945060008503611afc575b819350505050919050565b600073ffffffffffffffffffffffffffffffffffffffff168273ffffffffffffffffffffffffffffffffffffffff1603611bce5760006040517f64a0ae92000000000000000000000000000000000000000000000000000000008152600401611bc59190612037565b60405180910390fd5b6000611bdc83836000610c0f565b9050600073ffffffffffffffffffffffffffffffffffffffff168173ffffffffffffffffffffffffffffffffffffffff1614611c505760006040517f73c6ac6e000000000000000000000000000000000000000000000000000000008152600401611c479190612037565b60405180910390fd5b505050565b60007f01ffc9a7000000000000000000000000000000000000000000000000000000007bffffffffffffffffffffffffffffffffffffffffffffffffffffffff1916827bffffffffffffffffffffffffffffffffffffffffffffffffffffffff1916149050919050565b600080600090507a184f03e93ff9f4daa797ed6e38ed64bf6a1f0100000000000000008310611d1d577a184f03e93ff9f4daa797ed6e38ed64bf6a1f0100000000000000008381611d1357611d12612ab7565b5b0492506040810190505b6d04ee2d6d415b85acef81000000008310611d5a576d04ee2d6d415b85acef81000000008381611d5057611d4f612ab7565b5b0492506020810190505b662386f26fc100008310611d8957662386f26fc100008381611d7f57611d7e612ab7565b5b0492506010810190505b6305f5e1008310611db2576305f5e1008381611da857611da7612ab7565b5b0492506008810190505b6127108310611dd7576127108381611dcd57611dcc612ab7565b5b0492506004810190505b60648310611dfa5760648381611df057611def612ab7565b5b0492506002810190505b600a8310611e09576001810190505b80915050919050565b6000604051905090565b600080fd5b600080fd5b60007fffffffff0000000000000000000000000000000000000000000000000000000082169050919050565b611e5b81611e26565b8114611e6657600080fd5b50565b600081359050611e7881611e52565b92915050565b600060208284031215611e9457611e93611e1c565b5b6000611ea284828501611e69565b91505092915050565b60008115159050919050565b611ec081611eab565b82525050565b6000602082019050611edb6000830184611eb7565b92915050565b600081519050919050565b600082825260208201905092915050565b60005b83811015611f1b578082015181840152602081019050611f00565b60008484015250505050565b6000601f19601f8301169050919050565b6000611f4382611ee1565b611f4d8185611eec565b9350611f5d818560208601611efd565b611f6681611f27565b840191505092915050565b60006020820190508181036000830152611f8b8184611f38565b905092915050565b6000819050919050565b611fa681611f93565b8114611fb157600080fd5b50565b600081359050611fc381611f9d565b92915050565b600060208284031215611fdf57611fde611e1c565b5b6000611fed84828501611fb4565b91505092915050565b600073ffffffffffffffffffffffffffffffffffffffff82169050919050565b600061202182611ff6565b9050919050565b61203181612016565b82525050565b600060208201905061204c6000830184612028565b92915050565b61205b81612016565b811461206657600080fd5b50565b60008135905061207881612052565b92915050565b6000806040838503121561209557612094611e1c565b5b60006120a385828601612069565b92505060206120b485828601611fb4565b9150509250929050565b6000806000606084860312156120d7576120d6611e1c565b5b60006120e586828701612069565b93505060206120f686828701612069565b925050604061210786828701611fb4565b9150509250925092565b6000819050919050565b61212481612111565b811461212f57600080fd5b50565b6000813590506121418161211b565b92915050565b60006020828403121561215d5761215c611e1c565b5b600061216b84828501612132565b91505092915050565b61217d81612111565b82525050565b60006020820190506121986000830184612174565b92915050565b600080604083850312156121b5576121b4611e1c565b5b60006121c385828601612132565b92505060206121d485828601612069565b9150509250929050565b6000602082840312156121f4576121f3611e1c565b5b600061220284828501612069565b91505092915050565b61221481611f93565b82525050565b600060208201905061222f600083018461220b565b92915050565b61223e81611eab565b811461224957600080fd5b50565b60008135905061225b81612235565b92915050565b6000806040838503121561227857612277611e1c565b5b600061228685828601612069565b92505060206122978582860161224c565b9150509250929050565b600080fd5b600080fd5b7f4e487b7100000000000000000000000000000000000000000000000000000000600052604160045260246000fd5b6122e382611f27565b810181811067ffffffffffffffff82111715612302576123016122ab565b5b80604052505050565b6000612315611e12565b905061232182826122da565b919050565b600067ffffffffffffffff821115612341576123406122ab565b5b61234a82611f27565b9050602081019050919050565b82818337600083830152505050565b600061237961237484612326565b61230b565b905082815260208101848484011115612395576123946122a6565b5b6123a0848285612357565b509392505050565b600082601f8301126123bd576123bc6122a1565b5b81356123cd848260208601612366565b91505092915050565b600080600080608085870312156123f0576123ef611e1c565b5b60006123fe87828801612069565b945050602061240f87828801612069565b935050604061242087828801611fb4565b925050606085013567ffffffffffffffff81111561244157612440611e21565b5b61244d878288016123a8565b91505092959194509250565b600067ffffffffffffffff821115612474576124736122ab565b5b61247d82611f27565b9050602081019050919050565b600061249d61249884612459565b61230b565b9050828152602081018484840111156124b9576124b86122a6565b5b6124c4848285612357565b509392505050565b600082601f8301126124e1576124e06122a1565b5b81356124f184826020860161248a565b91505092915050565b6000806040838503121561251157612510611e1c565b5b600061251f85828601612069565b925050602083013567ffffffffffffffff8111156125405761253f611e21565b5b61254c858286016124cc565b9150509250929050565b6000806040838503121561256d5761256c611e1c565b5b600061257b85828601612069565b925050602061258c85828601612069565b9150509250929050565b7f4e487b7100000000000000000000000000000000000000000000000000000000600052602260045260246000fd5b600060028204905060018216806125dd57607f821691505b6020821081036125f0576125ef612596565b5b50919050565b600060608201905061260b6000830186612028565b612618602083018561220b565b6126256040830184612028565b949350505050565b7f4e487b7100000000000000000000000000000000000000000000000000000000600052601160045260246000fd5b600061266782611f93565b91507fffffffffffffffffffffffffffffffffffffffffffffffffffffffffffffffff82036126995761269861262d565b5b600182019050919050565b600081519050919050565b600082825260208201905092915050565b60006126cb826126a4565b6126d581856126af565b93506126e5818560208601611efd565b6126ee81611f27565b840191505092915050565b600060808201905061270e6000830187612028565b61271b6020830186612028565b612728604083018561220b565b818103606083015261273a81846126c0565b905095945050505050565b60008151905061275481611e52565b92915050565b6000602082840312156127705761276f611e1c565b5b600061277e84828501612745565b91505092915050565b600081905092915050565b600061279d82611ee1565b6127a78185612787565b93506127b7818560208601611efd565b80840191505092915050565b60006127cf8285612792565b91506127db8284612792565b91508190509392505050565b60008190508160005260206000209050919050565b60006020601f8301049050919050565b600082821b905092915050565b6000600883026128497fffffffffffffffffffffffffffffffffffffffffffffffffffffffffffffffff8261280c565b612853868361280c565b95508019841693508086168417925050509392505050565b6000819050919050565b600061289061288b61288684611f93565b61286b565b611f93565b9050919050565b6000819050919050565b6128aa83612875565b6128be6128b682612897565b848454612819565b825550505050565b600090565b6128d36128c6565b6128de8184846128a1565b505050565b5b81811015612902576128f76000826128cb565b6001810190506128e4565b5050565b601f82111561294757612918816127e7565b612921846127fc565b81016020851015612930578190505b61294461293c856127fc565b8301826128e3565b50505b505050565b600082821c905092915050565b600061296a6000198460080261294c565b1980831691505092915050565b60006129838383612959565b9150826002028217905092915050565b61299c82611ee1565b67ffffffffffffffff8111156129b5576129b46122ab565b5b6129bf82546125c5565b6129ca828285612906565b600060209050601f8311600181146129fd57600084156129eb578287015190505b6129f58582612977565b865550612a5d565b601f198416612a0b866127e7565b60005b82811015612a3357848901518255600182019150602085019450602081019050612a0e565b86831015612a505784890151612a4c601f891682612959565b8355505b6001600288020188555050505b505050505050565b6000604082019050612a7a6000830185612028565b612a87602083018461220b565b9392505050565b6000604082019050612aa36000830185612028565b612ab06020830184612174565b9392505050565b7f4e487b7100000000000000000000000000000000000000000000000000000000600052601260045260246000fdfea264697066735822122028bd6bb6aec4152ecc9718f62632f778c088690c9e4699e30d2ae95fc93c7df564736f6c63430008140033",
  "linkReferences": {},
  "deployedLinkReferences": {}
}