{
  "_format": "hh-sol-artifact-1",
  "contractName": "Tiezi",
  "sourceName": "contracts/Tiezi.sol",
  "abi": [
    {
      "inputs": [],
      "stateMutability": "nonpayable",
      "type": "constructor"
    },
    {
      "anonymous": false,
      "inputs": [
        {
          "indexed": false,
          "internalType": "uint256",
          "name": "id",
          "type": "uint256"
        },
        {
          "indexed": false,
          "internalType": "uint256",
          "name": "money",
          "type": "uint256"
        },
        {
          "indexed": false,
          "internalType": "address",
          "name": "to",
          "type": "address"
        }
      ],
      "name": "dashanglog",
      "type": "event"
    },
    {
      "inputs": [
        {
          "internalType": "uint256",
          "name": "_id",
          "type": "uint256"
        },
        {
          "internalType": "uint256",
          "name": "amount",
          "type": "uint256"
        }
      ],
      "name": "dashang",
      "outputs": [],
      "stateMutability": "payable",
      "type": "function"
    },
    {
      "inputs": [
        {
          "internalType": "uint256",
          "name": "_id",
          "type": "uint256"
        }
      ],
      "name": "dianzan",
      "outputs": [],
      "stateMutability": "nonpayable",
      "type": "function"
    },
    {
      "inputs": [
        {
          "internalType": "string",
          "name": "_date",
          "type": "string"
        }
      ],
      "name": "jrtz",
      "outputs": [],
      "stateMutability": "nonpayable",
      "type": "function"
    },
    {
      "inputs": [
        {
          "internalType": "string",
          "name": "_title",
          "type": "string"
        },
        {
          "internalType": "string",
          "name": "_content",
          "type": "string"
        },
        {
          "internalType": "string",
          "name": "_lx",
          "type": "string"
        },
        {
          "internalType": "string",
          "name": "_username",
          "type": "string"
        }
      ],
      "name": "publishtiezi",
      "outputs": [],
      "stateMutability": "nonpayable",
      "type": "function"
    },
    {
      "inputs": [
        {
          "internalType": "string",
          "name": "_lx",
          "type": "string"
        },
        {
          "internalType": "string",
          "name": "_title",
          "type": "string"
        }
      ],
      "name": "queryList",
      "outputs": [
        {
          "components": [
            {
              "internalType": "uint256",
              "name": "id",
              "type": "uint256"
            },
            {
              "internalType": "uint256",
              "name": "parentid",
              "type": "uint256"
            },
            {
              "internalType": "string",
              "name": "title",
              "type": "string"
            },
            {
              "internalType": "string",
              "name": "content",
              "type": "string"
            },
            {
              "internalType": "string",
              "name": "lx",
              "type": "string"
            },
            {
              "internalType": "uint256",
              "name": "time",
              "type": "uint256"
            },
            {
              "internalType": "uint256",
              "name": "status",
              "type": "uint256"
            },
            {
              "internalType": "string",
              "name": "username",
              "type": "string"
            },
            {
              "internalType": "uint256",
              "name": "voteCount",
              "type": "uint256"
            },
            {
              "internalType": "uint256",
              "name": "dashang",
              "type": "uint256"
            },
            {
              "internalType": "address",
              "name": "owner",
              "type": "address"
            }
          ],
          "internalType": "struct Tiezi.TieziVo[]",
          "name": "",
          "type": "tuple[]"
        }
      ],
      "stateMutability": "view",
      "type": "function"
    }
  ],
  "bytecode": "0x608060405234801561001057600080fd5b50600080819055506000600181905550611a368061002f6000396000f3fe60806040526004361061004a5760003560e01c80631be611961461004f5780635d4e0fa81461006b578063903a145114610094578063963d198d146100bd578063b9792934146100fa575b600080fd5b61006960048036038101906100649190610cd7565b610123565b005b34801561007757600080fd5b50610092600480360381019061008d9190610e5d565b610298565b005b3480156100a057600080fd5b506100bb60048036038101906100b69190610f34565b6105bc565b005b3480156100c957600080fd5b506100e460048036038101906100df9190610f7d565b6105ec565b6040516100f1919061128a565b60405180910390f35b34801561010657600080fd5b50610121600480360381019061011c91906112ac565b610bcd565b005b60008111610166576040517f08c379a000000000000000000000000000000000000000000000000000000000815260040161015d90611336565b60405180910390fd5b803410156101a9576040517f08c379a00000000000000000000000000000000000000000000000000000000081526004016101a0906113a2565b60405180910390fd5b600060026000848152602001908152602001600020600a0160009054906101000a900473ffffffffffffffffffffffffffffffffffffffff1690508073ffffffffffffffffffffffffffffffffffffffff166108fc839081150290604051600060405180830381858888f1935050505015801561022a573d6000803e3d6000fd5b508160026000858152602001908152602001600020600901600082825461025191906113f1565b925050819055507fe671068cbeee3fc577da2fa0947713aca489735f21f61ba7ff8810ab00f008c483833360405161028b93929190611443565b60405180910390a1505050565b60008451116102dc576040517f08c379a00000000000000000000000000000000000000000000000000000000081526004016102d3906114c6565b60405180910390fd5b6000835111610320576040517f08c379a000000000000000000000000000000000000000000000000000000000815260040161031790611532565b60405180910390fd5b6000825111610364576040517f08c379a000000000000000000000000000000000000000000000000000000000815260040161035b9061159e565b60405180910390fd5b61036c610c1d565b610374610bfc565b816000018181525050428160a001818152505060018160c0018181525050600081610100018181525050600081610120018181525050818160e001819052508381606001819052508481604001819052508281608001819052503381610140019073ffffffffffffffffffffffffffffffffffffffff16908173ffffffffffffffffffffffffffffffffffffffff16815250508060026000836000015181526020019081526020016000206000820151816000015560208201518160010155604082015181600201908161044891906117ca565b50606082015181600301908161045e91906117ca565b50608082015181600401908161047491906117ca565b5060a0820151816005015560c0820151816006015560e082015181600701908161049e91906117ca565b506101008201518160080155610120820151816009015561014082015181600a0160006101000a81548173ffffffffffffffffffffffffffffffffffffffff021916908373ffffffffffffffffffffffffffffffffffffffff16021790555090505060038160e0015160405161051491906118d8565b90815260200160405180910390208160000151908060018154018082558091505060019003906000526020600020016000909190919091505560008160200151111561059d576004600082602001518152602001908152602001600020816000015190806001815401808255809150506001900390600052602060002001600090919091909150555b600160008154809291906105b0906118ef565b91905055505050505050565b6001546005826040516105cf91906118d8565b908152602001604051809103902081905550600060018190555050565b6060600080600190505b600054811161070e5760008551148061066f57508460405160200161061b91906118d8565b604051602081830303815290604052805190602001206002600083815260200190815260200160002060040160405160200161065791906119ba565b60405160208183030381529060405280519060200120145b80156106e757506000845114806106e657508360405160200161069291906118d8565b60405160208183030381529060405280519060200120600260008381526020019081526020016000206002016040516020016106ce91906119ba565b60405160208183030381529060405280519060200120145b5b156106fb5781806106f7906118ef565b9250505b8080610706906118ef565b9150506105f6565b5060008167ffffffffffffffff81111561072b5761072a610d32565b5b60405190808252806020026020018201604052801561076457816020015b610751610c1d565b8152602001906001900390816107495790505b509050600080600190505b6000548111610bc0576001600260008381526020019081526020016000206006015414801561080a57506000875114806108095750866040516020016107b591906118d8565b60405160208183030381529060405280519060200120600260008381526020019081526020016000206004016040516020016107f191906119ba565b60405160208183030381529060405280519060200120145b5b8015610882575060008651148061088157508560405160200161082d91906118d8565b604051602081830303815290604052805190602001206002600083815260200190815260200160002060020160405160200161086991906119ba565b60405160208183030381529060405280519060200120145b5b15610bad57600260008281526020019081526020016000206040518061016001604052908160008201548152602001600182015481526020016002820180546108ca906115ed565b80601f01602080910402602001604051908101604052809291908181526020018280546108f6906115ed565b80156109435780601f1061091857610100808354040283529160200191610943565b820191906000526020600020905b81548152906001019060200180831161092657829003601f168201915b5050505050815260200160038201805461095c906115ed565b80601f0160208091040260200160405190810160405280929190818152602001828054610988906115ed565b80156109d55780601f106109aa576101008083540402835291602001916109d5565b820191906000526020600020905b8154815290600101906020018083116109b857829003601f168201915b505050505081526020016004820180546109ee906115ed565b80601f0160208091040260200160405190810160405280929190818152602001828054610a1a906115ed565b8015610a675780601f10610a3c57610100808354040283529160200191610a67565b820191906000526020600020905b815481529060010190602001808311610a4a57829003601f168201915b505050505081526020016005820154815260200160068201548152602001600782018054610a94906115ed565b80601f0160208091040260200160405190810160405280929190818152602001828054610ac0906115ed565b8015610b0d5780601f10610ae257610100808354040283529160200191610b0d565b820191906000526020600020905b815481529060010190602001808311610af057829003601f168201915b505050505081526020016008820154815260200160098201548152602001600a820160009054906101000a900473ffffffffffffffffffffffffffffffffffffffff1673ffffffffffffffffffffffffffffffffffffffff1673ffffffffffffffffffffffffffffffffffffffff1681525050838381518110610b9357610b926119d1565b5b60200260200101819052508180610ba9906118ef565b9250505b8080610bb8906118ef565b91505061076f565b5081935050505092915050565b600260008281526020019081526020016000206008016000815480929190610bf4906118ef565b919050555050565b6000806000815480929190610c10906118ef565b9190505550600054905090565b60405180610160016040528060008152602001600081526020016060815260200160608152602001606081526020016000815260200160008152602001606081526020016000815260200160008152602001600073ffffffffffffffffffffffffffffffffffffffff1681525090565b6000604051905090565b600080fd5b600080fd5b6000819050919050565b610cb481610ca1565b8114610cbf57600080fd5b50565b600081359050610cd181610cab565b92915050565b60008060408385031215610cee57610ced610c97565b5b6000610cfc85828601610cc2565b9250506020610d0d85828601610cc2565b9150509250929050565b600080fd5b600080fd5b6000601f19601f8301169050919050565b7f4e487b7100000000000000000000000000000000000000000000000000000000600052604160045260246000fd5b610d6a82610d21565b810181811067ffffffffffffffff82111715610d8957610d88610d32565b5b80604052505050565b6000610d9c610c8d565b9050610da88282610d61565b919050565b600067ffffffffffffffff821115610dc857610dc7610d32565b5b610dd182610d21565b9050602081019050919050565b82818337600083830152505050565b6000610e00610dfb84610dad565b610d92565b905082815260208101848484011115610e1c57610e1b610d1c565b5b610e27848285610dde565b509392505050565b600082601f830112610e4457610e43610d17565b5b8135610e54848260208601610ded565b91505092915050565b60008060008060808587031215610e7757610e76610c97565b5b600085013567ffffffffffffffff811115610e9557610e94610c9c565b5b610ea187828801610e2f565b945050602085013567ffffffffffffffff811115610ec257610ec1610c9c565b5b610ece87828801610e2f565b935050604085013567ffffffffffffffff811115610eef57610eee610c9c565b5b610efb87828801610e2f565b925050606085013567ffffffffffffffff811115610f1c57610f1b610c9c565b5b610f2887828801610e2f565b91505092959194509250565b600060208284031215610f4a57610f49610c97565b5b600082013567ffffffffffffffff811115610f6857610f67610c9c565b5b610f7484828501610e2f565b91505092915050565b60008060408385031215610f9457610f93610c97565b5b600083013567ffffffffffffffff811115610fb257610fb1610c9c565b5b610fbe85828601610e2f565b925050602083013567ffffffffffffffff811115610fdf57610fde610c9c565b5b610feb85828601610e2f565b9150509250929050565b600081519050919050565b600082825260208201905092915050565b6000819050602082019050919050565b61102a81610ca1565b82525050565b600081519050919050565b600082825260208201905092915050565b60005b8381101561106a57808201518184015260208101905061104f565b60008484015250505050565b600061108182611030565b61108b818561103b565b935061109b81856020860161104c565b6110a481610d21565b840191505092915050565b600073ffffffffffffffffffffffffffffffffffffffff82169050919050565b60006110da826110af565b9050919050565b6110ea816110cf565b82525050565b6000610160830160008301516111096000860182611021565b50602083015161111c6020860182611021565b50604083015184820360408601526111348282611076565b9150506060830151848203606086015261114e8282611076565b915050608083015184820360808601526111688282611076565b91505060a083015161117d60a0860182611021565b5060c083015161119060c0860182611021565b5060e083015184820360e08601526111a88282611076565b9150506101008301516111bf610100860182611021565b506101208301516111d4610120860182611021565b506101408301516111e96101408601826110e1565b508091505092915050565b600061120083836110f0565b905092915050565b6000602082019050919050565b600061122082610ff5565b61122a8185611000565b93508360208202850161123c85611011565b8060005b85811015611278578484038952815161125985826111f4565b945061126483611208565b925060208a01995050600181019050611240565b50829750879550505050505092915050565b600060208201905081810360008301526112a48184611215565b905092915050565b6000602082840312156112c2576112c1610c97565b5b60006112d084828501610cc2565b91505092915050565b600082825260208201905092915050565b7f416d6f756e74206d7573742062652067726561746572207468616e2030000000600082015250565b6000611320601d836112d9565b915061132b826112ea565b602082019050919050565b6000602082019050818103600083015261134f81611313565b9050919050565b7f496e73756666696369656e74204554482073656e740000000000000000000000600082015250565b600061138c6015836112d9565b915061139782611356565b602082019050919050565b600060208201905081810360008301526113bb8161137f565b9050919050565b7f4e487b7100000000000000000000000000000000000000000000000000000000600052601160045260246000fd5b60006113fc82610ca1565b915061140783610ca1565b925082820190508082111561141f5761141e6113c2565b5b92915050565b61142e81610ca1565b82525050565b61143d816110cf565b82525050565b60006060820190506114586000830186611425565b6114656020830185611425565b6114726040830184611434565b949350505050565b7f5469746c652063616e6e6f7420626520656d7074790000000000000000000000600082015250565b60006114b06015836112d9565b91506114bb8261147a565b602082019050919050565b600060208201905081810360008301526114df816114a3565b9050919050565b7f436f6e74656e742063616e6e6f7420626520656d707479000000000000000000600082015250565b600061151c6017836112d9565b9150611527826114e6565b602082019050919050565b6000602082019050818103600083015261154b8161150f565b9050919050565b7f6c782063616e6e6f7420626520656d7074790000000000000000000000000000600082015250565b60006115886012836112d9565b915061159382611552565b602082019050919050565b600060208201905081810360008301526115b78161157b565b9050919050565b7f4e487b7100000000000000000000000000000000000000000000000000000000600052602260045260246000fd5b6000600282049050600182168061160557607f821691505b602082108103611618576116176115be565b5b50919050565b60008190508160005260206000209050919050565b60006020601f8301049050919050565b600082821b905092915050565b6000600883026116807fffffffffffffffffffffffffffffffffffffffffffffffffffffffffffffffff82611643565b61168a8683611643565b95508019841693508086168417925050509392505050565b6000819050919050565b60006116c76116c26116bd84610ca1565b6116a2565b610ca1565b9050919050565b6000819050919050565b6116e1836116ac565b6116f56116ed826116ce565b848454611650565b825550505050565b600090565b61170a6116fd565b6117158184846116d8565b505050565b5b818110156117395761172e600082611702565b60018101905061171b565b5050565b601f82111561177e5761174f8161161e565b61175884611633565b81016020851015611767578190505b61177b61177385611633565b83018261171a565b50505b505050565b600082821c905092915050565b60006117a160001984600802611783565b1980831691505092915050565b60006117ba8383611790565b9150826002028217905092915050565b6117d382611030565b67ffffffffffffffff8111156117ec576117eb610d32565b5b6117f682546115ed565b61180182828561173d565b600060209050601f8311600181146118345760008415611822578287015190505b61182c85826117ae565b865550611894565b601f1984166118428661161e565b60005b8281101561186a57848901518255600182019150602085019450602081019050611845565b868310156118875784890151611883601f891682611790565b8355505b6001600288020188555050505b505050505050565b600081905092915050565b60006118b282611030565b6118bc818561189c565b93506118cc81856020860161104c565b80840191505092915050565b60006118e482846118a7565b915081905092915050565b60006118fa82610ca1565b91507fffffffffffffffffffffffffffffffffffffffffffffffffffffffffffffffff820361192c5761192b6113c2565b5b600182019050919050565b60008154611944816115ed565b61194e818661189c565b94506001821660008114611969576001811461197e576119b1565b60ff19831686528115158202860193506119b1565b6119878561161e565b60005b838110156119a95781548189015260018201915060208101905061198a565b838801955050505b50505092915050565b60006119c68284611937565b915081905092915050565b7f4e487b7100000000000000000000000000000000000000000000000000000000600052603260045260246000fdfea2646970667358221220172a811f5e8a50f8160c8c8faec3c094c24192ff09e7fa725e8e240a6a656f9b64736f6c63430008140033",
  "linkReferences": {},
  "deployedLinkReferences": {}
}