{"abi":[{"type":"constructor","inputs":[{"name":"_ddToken","type":"address","internalType":"address"}],"stateMutability":"nonpayable"},{"type":"function","name":"ADMIN_ROLE","inputs":[],"outputs":[{"name":"","type":"bytes32","internalType":"bytes32"}],"stateMutability":"view"},{"type":"function","name":"DEFAULT_ADMIN_ROLE","inputs":[],"outputs":[{"name":"","type":"bytes32","internalType":"bytes32"}],"stateMutability":"view"},{"type":"function","name":"OPERATOR_ROLE","inputs":[],"outputs":[{"name":"","type":"bytes32","internalType":"bytes32"}],"stateMutability":"view"},{"type":"function","name":"createProject","inputs":[{"name":"_name","type":"string","internalType":"string"},{"name":"_contractAddress","type":"address","internalType":"address"},{"name":"_website","type":"string","internalType":"string"},{"name":"_github","type":"string","internalType":"string"},{"name":"_apiDoc","type":"string","internalType":"string"},{"name":"_description","type":"string","internalType":"string"},{"name":"_category","type":"string","internalType":"string"}],"outputs":[{"name":"projectId","type":"uint256","internalType":"uint256"},{"name":"projectAddress","type":"address","internalType":"address"}],"stateMutability":"nonpayable"},{"type":"function","name":"ddToken","inputs":[],"outputs":[{"name":"","type":"address","internalType":"contract DDToken"}],"stateMutability":"view"},{"type":"function","name":"deactivateProject","inputs":[{"name":"_projectId","type":"uint256","internalType":"uint256"}],"outputs":[],"stateMutability":"nonpayable"},{"type":"function","name":"getAllProjects","inputs":[{"name":"_start","type":"uint256","internalType":"uint256"},{"name":"_limit","type":"uint256","internalType":"uint256"}],"outputs":[{"name":"","type":"tuple[]","internalType":"struct DDProjectFactory.ProjectSummary[]","components":[{"name":"projectId","type":"uint256","internalType":"uint256"},{"name":"projectAddress","type":"address","internalType":"address"},{"name":"name","type":"string","internalType":"string"},{"name":"category","type":"string","internalType":"string"},{"name":"creator","type":"address","internalType":"address"},{"name":"createdAt","type":"uint256","internalType":"uint256"},{"name":"isActive","type":"bool","internalType":"bool"}]}],"stateMutability":"view"},{"type":"function","name":"getProjectByAddress","inputs":[{"name":"_projectAddress","type":"address","internalType":"address"}],"outputs":[{"name":"","type":"tuple","internalType":"struct DDProjectFactory.ProjectSummary","components":[{"name":"projectId","type":"uint256","internalType":"uint256"},{"name":"projectAddress","type":"address","internalType":"address"},{"name":"name","type":"string","internalType":"string"},{"name":"category","type":"string","internalType":"string"},{"name":"creator","type":"address","internalType":"address"},{"name":"createdAt","type":"uint256","internalType":"uint256"},{"name":"isActive","type":"bool","internalType":"bool"}]}],"stateMutability":"view"},{"type":"function","name":"getProjectStats","inputs":[],"outputs":[{"name":"totalProjectsCount","type":"uint256","internalType":"uint256"},{"name":"activeProjectsCount","type":"uint256","internalType":"uint256"},{"name":"totalCategories","type":"uint256","internalType":"uint256"}],"stateMutability":"view"},{"type":"function","name":"getProjectsByCategory","inputs":[{"name":"_category","type":"string","internalType":"string"}],"outputs":[{"name":"","type":"tuple[]","internalType":"struct DDProjectFactory.ProjectSummary[]","components":[{"name":"projectId","type":"uint256","internalType":"uint256"},{"name":"projectAddress","type":"address","internalType":"address"},{"name":"name","type":"string","internalType":"string"},{"name":"category","type":"string","internalType":"string"},{"name":"creator","type":"address","internalType":"address"},{"name":"createdAt","type":"uint256","internalType":"uint256"},{"name":"isActive","type":"bool","internalType":"bool"}]}],"stateMutability":"view"},{"type":"function","name":"getRoleAdmin","inputs":[{"name":"role","type":"bytes32","internalType":"bytes32"}],"outputs":[{"name":"","type":"bytes32","internalType":"bytes32"}],"stateMutability":"view"},{"type":"function","name":"getUserProjects","inputs":[{"name":"_user","type":"address","internalType":"address"}],"outputs":[{"name":"","type":"uint256[]","internalType":"uint256[]"}],"stateMutability":"view"},{"type":"function","name":"grantRole","inputs":[{"name":"role","type":"bytes32","internalType":"bytes32"},{"name":"account","type":"address","internalType":"address"}],"outputs":[],"stateMutability":"nonpayable"},{"type":"function","name":"hasRole","inputs":[{"name":"role","type":"bytes32","internalType":"bytes32"},{"name":"account","type":"address","internalType":"address"}],"outputs":[{"name":"","type":"bool","internalType":"bool"}],"stateMutability":"view"},{"type":"function","name":"nextProjectId","inputs":[],"outputs":[{"name":"","type":"uint256","internalType":"uint256"}],"stateMutability":"view"},{"type":"function","name":"projectAddressToId","inputs":[{"name":"","type":"address","internalType":"address"}],"outputs":[{"name":"","type":"uint256","internalType":"uint256"}],"stateMutability":"view"},{"type":"function","name":"projects","inputs":[{"name":"","type":"uint256","internalType":"uint256"}],"outputs":[{"name":"","type":"address","internalType":"address"}],"stateMutability":"view"},{"type":"function","name":"reactivateProject","inputs":[{"name":"_projectId","type":"uint256","internalType":"uint256"}],"outputs":[],"stateMutability":"nonpayable"},{"type":"function","name":"renounceRole","inputs":[{"name":"role","type":"bytes32","internalType":"bytes32"},{"name":"callerConfirmation","type":"address","internalType":"address"}],"outputs":[],"stateMutability":"nonpayable"},{"type":"function","name":"revokeRole","inputs":[{"name":"role","type":"bytes32","internalType":"bytes32"},{"name":"account","type":"address","internalType":"address"}],"outputs":[],"stateMutability":"nonpayable"},{"type":"function","name":"searchProjects","inputs":[{"name":"_searchTerm","type":"string","internalType":"string"}],"outputs":[{"name":"","type":"tuple[]","internalType":"struct DDProjectFactory.ProjectSummary[]","components":[{"name":"projectId","type":"uint256","internalType":"uint256"},{"name":"projectAddress","type":"address","internalType":"address"},{"name":"name","type":"string","internalType":"string"},{"name":"category","type":"string","internalType":"string"},{"name":"creator","type":"address","internalType":"address"},{"name":"createdAt","type":"uint256","internalType":"uint256"},{"name":"isActive","type":"bool","internalType":"bool"}]}],"stateMutability":"view"},{"type":"function","name":"supportsInterface","inputs":[{"name":"interfaceId","type":"bytes4","internalType":"bytes4"}],"outputs":[{"name":"","type":"bool","internalType":"bool"}],"stateMutability":"view"},{"type":"function","name":"totalProjects","inputs":[],"outputs":[{"name":"","type":"uint256","internalType":"uint256"}],"stateMutability":"view"},{"type":"function","name":"userProjects","inputs":[{"name":"","type":"address","internalType":"address"},{"name":"","type":"uint256","internalType":"uint256"}],"outputs":[{"name":"","type":"uint256","internalType":"uint256"}],"stateMutability":"view"},{"type":"event","name":"ProjectCreated","inputs":[{"name":"projectId","type":"uint256","indexed":true,"internalType":"uint256"},{"name":"projectAddress","type":"address","indexed":true,"internalType":"address"},{"name":"name","type":"string","indexed":false,"internalType":"string"},{"name":"creator","type":"address","indexed":true,"internalType":"address"}],"anonymous":false},{"type":"event","name":"ProjectDeactivated","inputs":[{"name":"projectId","type":"uint256","indexed":true,"internalType":"uint256"},{"name":"projectAddress","type":"address","indexed":true,"internalType":"address"}],"anonymous":false},{"type":"event","name":"ProjectReactivated","inputs":[{"name":"projectId","type":"uint256","indexed":true,"internalType":"uint256"},{"name":"projectAddress","type":"address","indexed":true,"internalType":"address"}],"anonymous":false},{"type":"event","name":"RoleAdminChanged","inputs":[{"name":"role","type":"bytes32","indexed":true,"internalType":"bytes32"},{"name":"previousAdminRole","type":"bytes32","indexed":true,"internalType":"bytes32"},{"name":"newAdminRole","type":"bytes32","indexed":true,"internalType":"bytes32"}],"anonymous":false},{"type":"event","name":"RoleGranted","inputs":[{"name":"role","type":"bytes32","indexed":true,"internalType":"bytes32"},{"name":"account","type":"address","indexed":true,"internalType":"address"},{"name":"sender","type":"address","indexed":true,"internalType":"address"}],"anonymous":false},{"type":"event","name":"RoleRevoked","inputs":[{"name":"role","type":"bytes32","indexed":true,"internalType":"bytes32"},{"name":"account","type":"address","indexed":true,"internalType":"address"},{"name":"sender","type":"address","indexed":true,"internalType":"address"}],"anonymous":false},{"type":"error","name":"AccessControlBadConfirmation","inputs":[]},{"type":"error","name":"AccessControlUnauthorizedAccount","inputs":[{"name":"account","type":"address","internalType":"address"},{"name":"neededRole","type":"bytes32","internalType":"bytes32"}]},{"type":"error","name":"ReentrancyGuardReentrantCall","inputs":[]}],"bytecode":{"object":"0x608034620000aa57601f620057df38819003918201601f19168301916001600160401b03831184841017620000ae57808492602094604052833981010312620000aa57516001600160a01b03811690819003620000aa5760018080556006555f600755600280546001600160a01b0319169190911790556200008133620000c2565b506200008d3362000140565b506200009933620001e0565b5060405161554390816200027c8239f35b5f80fd5b634e487b7160e01b5f52604160045260245ffd5b6001600160a01b03165f8181527fad3228b676f7d3cd4284a5443f17f1962b36e491b30a40b2405849e597ba5fb5602052604081205490919060ff166200013c57818052816020526040822081835260205260408220600160ff1982541617905533915f80516020620057bf8339815191528180a4600190565b5090565b6001600160a01b03165f8181527f7d7ffb7a348e1c6a02869081a26547b49160dd3df72d1d75a570eb9b698292ec60205260408120549091907fa49807205ce4d355092ef5a8a18f56e8913cf4a201fbe287825b095693c217759060ff16620001db57808352826020526040832082845260205260408320600160ff198254161790555f80516020620057bf833981519152339380a4600190565b505090565b6001600160a01b03165f8181527fee57cd81e84075558e8fcc182a1f4393f91fc97f963a136e66b7f949a62f319f60205260408120549091907f97667070c54ef182b0f5858b034beac1b6f3089aa2d3188bb1e8929f4fa9b9299060ff16620001db57808352826020526040832082845260205260408320600160ff198254161790555f80516020620057bf833981519152339380a460019056fe6080604081815260048036101562000015575f80fd5b5f92833560e01c90816301ffc9a71462000fea57508063107046bd1462000fb6578063189c95f11462000ea1578063248a9ca31462000e765780632d6c16611462000d8c5780632e4efe951462000c395780632f2ff15d1462000c095780632fa9c0071462000bac57806336568abe1462000b5e57806342a9b54414620007cf578063436e695814620006de57806375b238fc14620006a157806377d0a547146200063657806391d1485414620005f05780639c361e4e14620005cf578063a217fddf14620005b2578063b5d2e6d81462000587578063d547741f1462000541578063d66ff23b1462000451578063debe28bc1462000299578063e32e723c14620001df578063e935b7b114620001be578063f5b541a6146200017d5763f7d024cc1462000141575f80fd5b3462000179576020366003190112620001795760209282916001600160a01b036200016b6200124d565b168252845220549051908152f35b8280fd5b505034620001ba5781600319360112620001ba57602090517f97667070c54ef182b0f5858b034beac1b6f3089aa2d3188bb1e8929f4fa9b9298152f35b5080fd5b505034620001ba5781600319360112620001ba576020906006549051908152f35b828434620002965760209081600319360112620002965782906001600160a01b036200020a6200124d565b16815260058352818120908251808584549182815201908194845286842090845b81811062000281575050508162000244910382620011a6565b83519485948186019282875251809352850193925b8281106200026957505050500390f35b83518552869550938101939281019260010162000259565b8254845292880192600192830192016200022b565b80fd5b50919034620001ba576020806003193601126200017957833567ffffffffffffffff81116200044d57620002d19036908601620011e6565b60075490620002e0826200178f565b95859360015b848111156200035e575050505050620002ff8162001721565b925b8181106200031c57825180620003188682620010fb565b0390f35b8062000338620003316200035893886200177a565b5162001614565b6200034482876200177a565b526200035181866200177a565b50620013bf565b62000301565b8088526003825286882054839089906001600160a01b03168062000391575b5050506200038b90620013bf565b620002e6565b89516333e44bff60e11b815292839182905afa908115620004435789916200041c575b5084620003c381835162001834565b91821562000404575b5050620003dd575b82885f6200037d565b94620003fb8187620003f46200038b948d6200177a565b52620013bf565b959050620003d4565b62000414925060a0015162001834565b845f620003cc565b6200043c91503d808b833e620004338183620011a6565b810190620014c3565b5f620003b4565b88513d8b823e3d90fd5b8380fd5b5034620001795760203660031901126200017957828135917fa49807205ce4d355092ef5a8a18f56e8913cf4a201fbe287825b095693c21775825281602052838220335f52602052620004aa60ff855f205416620017c7565b8282526003602052838220546001600160a01b031693620004cd8515156200141b565b843b15620001795782815180936393c87f0360e01b82528183895af190811562000538575062000520575b50807fcfc77af2959c9bbf0b7304fb517967ac63fc622d177da78255517974b31c2a3291a380f35b6200052b9062001160565b6200017957825f620004f8565b513d84823e3d90fd5b50903462000179578060031936011262000179576200058391356200057d60016200056b62001236565b9383875286602052862001546200128e565b6200134b565b5080f35b505034620001ba5781600319360112620001ba5760025490516001600160a01b039091168152602090f35b505034620001ba5781600319360112620001ba5751908152602090f35b505034620001ba5781600319360112620001ba576020906007549051908152f35b50346200017957816003193601126200017957816020936200061162001236565b92358152808552209060018060a01b03165f52825260ff815f20541690519015158152f35b50346200017957602036600319011262000179578162000318936200068d926200065f6200124d565b62000669620013e2565b506001600160a01b031682526020522054620006878115156200141b565b62001614565b90519182916020835260208301906200108d565b505034620001ba5781600319360112620001ba57602090517fa49807205ce4d355092ef5a8a18f56e8913cf4a201fbe287825b095693c217758152f35b50346200017957602036600319011262000179578035907fa49807205ce4d355092ef5a8a18f56e8913cf4a201fbe287825b095693c217758452836020528284203385526020526200073660ff8486205416620017c7565b8184526003602052828420546001600160a01b031692620007598415156200141b565b833b15620007cb5784815180936351858e2760e01b82528183885af1908115620007c25750620007ac575b507f727be9e2e93cc89f5e0fb071bc8d7056bf9478da0d050fbfd3a3d13af50345518380a380f35b620007ba9093919362001160565b915f62000784565b513d86823e3d90fd5b8480fd5b5034620001795760e0366003190112620001795767ffffffffffffffff928135848111620001ba57620008069036908401620011e6565b6200081062001236565b926044358681116200044d576200082b9036908301620011e6565b93606435878111620007cb57620008469036908401620011e6565b60843588811162000b5a57620008609036908501620011e6565b9760a43581811162000b56576200087b9036908601620011e6565b60c43582811162000b5257620008959036908701620011e6565b9986511562000b185781511562000ad5576001600160a01b0394851693841562000a925760065499620008c88b620013bf565b6006558660025416958c5196613c20808901978989109089111762000a7f57918e9f9593919d9e9c9d8998979593620018ee8a39875260209c8d3090890152610140809189015287016200091d908d62001066565b9060608801528681036080880152620009369162001066565b85810360a0870152620009499162001066565b84810360c08601526200095c9162001066565b83810360e08501526200096f9162001066565b828103610100840152620009839162001066565b9033906101200152039086f0801562000a7557169385815260038452868120856bffffffffffffffffffffffff60a01b825416179055848152818452858782205533815260058452868120908154926801000000000000000084101562000a6257505090620009f89160018201815562001264565b81549060031b9086821b915f19901b191617905562000a19600754620013bf565b60075582847f1846f69aa129d4d2ff2571d6357d5df660cfe55735967c4b882a40c9cca1aaec87518581528062000a5533968883019062001066565b0390a48351928352820152f35b634e487b7160e01b825260419052602490fd5b87513d87823e3d90fd5b634e487b7160e01b8d5260418b5260248dfd5b8a5162461bcd60e51b8152602081890152601f60248201527f436f6e747261637420616464726573732063616e6e6f74206265207a65726f006044820152606490fd5b895162461bcd60e51b8152602081880152601b60248201527f4465736372697074696f6e2063616e6e6f7420626520656d70747900000000006044820152606490fd5b895162461bcd60e51b815260208188015260146024820152734e616d652063616e6e6f7420626520656d70747960601b6044820152606490fd5b8780fd5b8680fd5b8580fd5b50919034620001ba5780600319360112620001ba5762000b7d62001236565b90336001600160a01b0383160362000b9d5750620005839192356200134b565b5163334bd91960e11b81528390fd5b505034620001ba5780600319360112620001ba5762000bca6200124d565b6001600160a01b0316825260056020528082208054602435939084101562000296575060209262000bfb9162001264565b91905490519160031b1c8152f35b509034620001795780600319360112620001795762000583913562000c3360016200056b62001236565b620012ce565b50919034620001ba57602092836003193601126200017957803567ffffffffffffffff81116200044d5762000c729036908301620011e6565b936007549062000c82826200178f565b95859360015b8481111562000cd557505050505062000ca18162001721565b925b81811062000cba57825180620003188682620010fb565b80620003386200033162000ccf93886200177a565b62000ca3565b8088526003845286882054829089906001600160a01b03168062000d08575b50505062000d0290620013bf565b62000c88565b89516333e44bff60e11b815292839182905afa90811562000443579060c0918a9162000d6e575b5001518481519101208351858501201462000d4e575b81885f62000cf4565b9462000d658187620003f462000d02948d6200177a565b95905062000d45565b62000d8591503d808c833e620004338183620011a6565b5f62000d2f565b5091346200029657806003193601126200029657806007549360015b8581111562000dc757606086600a878781519384526020840152820152f35b808352600360205284832054829084906001600160a01b03168062000dfb575b50505062000df590620013bf565b62000da8565b87516333e44bff60e11b815292839182905afa90811562000e6c579061012091859162000e4e575b50015162000e35575b81835f62000de7565b9262000e4562000df591620013bf565b93905062000e2c565b62000e6591503d8087833e620004338183620011a6565b5f62000e23565b86513d86823e3d90fd5b5034620001795760203660031901126200017957816020936001923581528085522001549051908152f35b50919034620001ba5780600319360112620001ba576007548335938185101562000f735762000eeb8560249362000eda853583620016ec565b9080821162000f6a575b50620016fa565b9162000ef78362001721565b94805b84811062000f1157855180620003188982620010fb565b62000f1d8189620016ec565b6001810180911162000f58579062000f3962000f529262001614565b62000f45828a6200177a565b526200035181896200177a565b62000efa565b5050634e487b7160e01b815260118352fd5b90505f62000ee4565b606490602084519162461bcd60e51b8352820152601960248201527f537461727420696e646578206f7574206f6620626f756e6473000000000000006044820152fd5b503462000179576020366003190112620001795735825260036020908152918190205490516001600160a01b039091168152f35b925050346200017957602036600319011262000179573563ffffffff60e01b8116809103620001795760209250637965db0b60e01b811490811562001031575b5015158152f35b6301ffc9a760e01b1490505f6200102a565b5f5b838110620010555750505f910152565b818101518382015260200162001045565b90602091620010818151809281855285808601910162001043565b601f01601f1916010190565b908151815260c08060018060a01b0393846020820151166020850152620010db620010c8604083015160e0604088015260e087019062001066565b6060830151868203606088015262001066565b94608082015116608085015260a081015160a08501520151151591015290565b602080820190808352835180925260408301928160408460051b8301019501935f915b8483106200112f5750505050505090565b90919293949584806200114f600193603f198682030187528a516200108d565b98019301930191949392906200111e565b67ffffffffffffffff81116200117557604052565b634e487b7160e01b5f52604160045260245ffd5b60e0810190811067ffffffffffffffff8211176200117557604052565b90601f8019910116810190811067ffffffffffffffff8211176200117557604052565b67ffffffffffffffff81116200117557601f01601f191660200190565b81601f8201121562001232578035906200120082620011c9565b92620012106040519485620011a6565b828452602083830101116200123257815f926020809301838601378301015290565b5f80fd5b602435906001600160a01b03821682036200123257565b600435906001600160a01b03821682036200123257565b80548210156200127a575f5260205f2001905f90565b634e487b7160e01b5f52603260045260245ffd5b805f525f60205260405f20335f5260205260ff60405f20541615620012b05750565b6044906040519063e2517d3f60e01b82523360048301526024820152fd5b905f9180835282602052604083209160018060a01b03169182845260205260ff604084205416155f146200134657808352826020526040832082845260205260408320600160ff198254161790557f2f8788117e7eff1d82e926ec794901d17c78024a50270940304540a733656f0d339380a4600190565b505090565b905f9180835282602052604083209160018060a01b03169182845260205260ff6040842054165f14620013465780835282602052604083208284526020526040832060ff1981541690557ff6391f5c32d9c69d2a47ea670b442974b53935d1edc7fd64eb21e047a839171b339380a4600190565b5f198114620013ce5760010190565b634e487b7160e01b5f52601160045260245ffd5b60405190620013f18262001189565b5f60c083828152826020820152606060408201526060808201528260808201528260a08201520152565b156200142357565b60405162461bcd60e51b8152602060048201526016602482015275141c9bda9958dd08191bd95cc81b9bdd08195e1a5cdd60521b6044820152606490fd5b81601f82011215620012325780516200147a81620011c9565b926200148a6040519485620011a6565b818452602082840101116200123257620014ab916020808501910162001043565b90565b51906001600160a01b03821682036200123257565b6020818303126200123257805167ffffffffffffffff9182821162001232570190610160928383820312620012325760405193840184811083821117620011755760405282518281116200123257816200151f91850162001461565b84526200152f60208401620014ae565b602085015260408301518281116200123257816200154f91850162001461565b604085015260608301518281116200123257816200156f91850162001461565b606085015260808301518281116200123257816200158f91850162001461565b608085015260a0830151828111620012325781620015af91850162001461565b60a085015260c08301519182116200123257620015ce91830162001461565b60c083015260e081015160e0830152610100620015ed818301620014ae565b90830152610120808201519081151582036200123257830152610140809101519082015290565b6200161e620013e2565b505f818152600360205260408120546001600160a01b039081169190620016478315156200141b565b6040516333e44bff60e11b81528281600481875afa928315620016e0578093620016bf575b505081519060c083015190610100840151169161012060e0850151940151151594604051966200169c8862001189565b8752602087015260408601526060850152608084015260a083015260c082015290565b620016d79293503d8091833e620004338183620011a6565b905f806200166c565b604051903d90823e3d90fd5b91908201809211620013ce57565b91908203918211620013ce57565b67ffffffffffffffff8111620011755760051b60200190565b906200172d8262001708565b6200173c6040519182620011a6565b82815280926200174f601f199162001708565b01905f5b8281106200176057505050565b6020906200176d620013e2565b8282850101520162001753565b80518210156200127a5760209160051b010190565b906200179b8262001708565b620017aa6040519182620011a6565b8281528092620017bd601f199162001708565b0190602036910137565b15620017cf57565b60405162461bcd60e51b815260206004820152602560248201527f444450726f6a656374466163746f72793a2061646d696e20726f6c65207265716044820152641d5a5c995960da1b6064820152608490fd5b9081518110156200127a570160200190565b908051825110620018e7575f905b620018518351825190620016fa565b8211620018e0576001925f5b8251811015620018d5576001600160f81b03198062001888620018818488620016ec565b8562001822565b51169062001897838662001822565b511603620018b057620018aa90620013bf565b6200185d565b509250905f5b620018cd57620018c690620013bf565b9062001842565b505050600190565b5092919091620018b6565b5050505f90565b50505f9056fe60806040523462000a835762003c20803803806200001d8162000a87565b9283398101906101408183031262000a83576200003a8162000aad565b620000486020830162000aad565b60408301519092906001600160401b03811162000a8357846200006d91830162000ac2565b936200007c6060830162000aad565b60808301519094906001600160401b03811162000a835782620000a191850162000ac2565b60a08401516001600160401b03811162000a835783620000c391860162000ac2565b60c08501519091906001600160401b03811162000a835784620000e891870162000ac2565b60e08601519093906001600160401b03811162000a8357856200010d91880162000ac2565b61010087015190956001600160401b03821162000a8357620001396101209162000141938a0162000ac2565b970162000aad565b60018055600280546001600160a01b03998a166001600160a01b03199182161790915560038054939099169216919091179096556040519661016088018881106001600160401b038211176200060d5760405288885260018060a01b0316602088015260408701526060860152608085015260a084015260c08301524260e083015260018060a01b03811661010083015260016101208301525f610140830152825160018060401b0381116200060d57600454600181811c9116801562000a78575b6020821014620005ee57601f811162000a14575b506020601f8211600114620009a957819293945f926200099d575b50508160011b915f199060031b1c1916176004555b6020820151600580546001600160a01b0319166001600160a01b0392909216919091179055604082015180519092906001600160401b0381116200060d57600654600181811c9116801562000992575b6020821014620005ee57601f811162000940575b506020601f8211600114620008ca57819293945f92620008be575b50508160011b915f199060031b1c1916176006555b606081015180519092906001600160401b0381116200060d57600754600181811c91168015620008b3575b6020821014620005ee57601f811162000861575b506020601f8211600114620007eb57819293945f92620007df575b50508160011b915f199060031b1c1916176007555b608082015180519092906001600160401b0381116200060d57600854600181811c91168015620007d4575b6020821014620005ee57601f811162000782575b506020601f82116001146200070c57819293945f9262000700575b50508160011b915f199060031b1c1916176008555b60a081015180519092906001600160401b0381116200060d57600954600181811c91168015620006f5575b6020821014620005ee57601f8111620006a3575b506020601f82116001146200062d57819293945f9262000621575b50508160011b915f199060031b1c1916176009555b60c08201518051906001600160401b0382116200060d57600a54600181811c9116801562000602575b6020821014620005ee57601f811162000598575b50602090601f831160011462000518579180620004fb9592610140945f926200050c575b50508160011b915f199060031b1c191617600a555b60e0810151600b5560018060a01b0361010082015116600c549060ff60a01b610120840151151560a01b169160018060a81b0319161717600c550151600d55620004e88162000b32565b50620004f48162000bb0565b5062000c50565b50604051612e74908162000cec8239f35b015190505f8062000489565b600a5f9081525f8051602062003b80833981519152929190601f198516905b8181106200057f575092600192859261014096620004fb99961062000566575b505050811b01600a556200049e565b01515f1960f88460031b161c191690555f808062000557565b9293602060018192878601518155019501930162000537565b600a5f525f8051602062003b80833981519152601f840160051c81019160208510620005e3575b601f0160051c01905b818110620005d7575062000465565b5f8155600101620005c8565b9091508190620005bf565b634e487b7160e01b5f52602260045260245ffd5b90607f169062000451565b634e487b7160e01b5f52604160045260245ffd5b015190505f8062000413565b60095f9081525f8051602062003be08339815191529190601f198416905b8181106200068a5750958360019596971062000671575b505050811b0160095562000428565b01515f1960f88460031b161c191690555f808062000662565b9192602060018192868b0151815501940192016200064b565b60095f525f8051602062003be0833981519152601f830160051c810160208410620006ed575b601f830160051c82018110620006e1575050620003f8565b5f8155600101620006c9565b5080620006c9565b90607f1690620003e4565b015190505f80620003a4565b60085f9081525f8051602062003bc08339815191529190601f198416905b818110620007695750958360019596971062000750575b505050811b01600855620003b9565b01515f1960f88460031b161c191690555f808062000741565b9192602060018192868b0151815501940192016200072a565b60085f525f8051602062003bc0833981519152601f830160051c810160208410620007cc575b601f830160051c82018110620007c057505062000389565b5f8155600101620007a8565b5080620007a8565b90607f169062000375565b015190505f8062000335565b60075f9081525f8051602062003ba08339815191529190601f198416905b81811062000848575095836001959697106200082f575b505050811b016007556200034a565b01515f1960f88460031b161c191690555f808062000820565b9192602060018192868b01518155019401920162000809565b60075f525f8051602062003ba0833981519152601f830160051c810160208410620008ab575b601f830160051c820181106200089f5750506200031a565b5f815560010162000887565b508062000887565b90607f169062000306565b015190505f80620002c6565b60065f9081525f8051602062003c008339815191529190601f198416905b81811062000927575095836001959697106200090e575b505050811b01600655620002db565b01515f1960f88460031b161c191690555f8080620008ff565b9192602060018192868b015181550194019201620008e8565b60065f525f8051602062003c00833981519152601f830160051c8101602084106200098a575b601f830160051c820181106200097e575050620002ab565b5f815560010162000966565b508062000966565b90607f169062000297565b015190505f8062000232565b60045f5260205f20905f5b601f1984168110620009fb5750600193949583601f19811610620009e2575b505050811b0160045562000247565b01515f1960f88460031b161c191690555f8080620009d3565b9091602060018192858a015181550193019101620009b4565b60045f527f8a35acfbc15ff81a39ae7d344fd709f28e8600b4aa8c65c6b64bfe7fe36bd19b601f830160051c81016020841062000a70575b601f830160051c8201811062000a6457505062000217565b5f815560010162000a4c565b508062000a4c565b90607f169062000203565b5f80fd5b6040519190601f01601f191682016001600160401b038111838210176200060d57604052565b51906001600160a01b038216820362000a8357565b919080601f8401121562000a835782516001600160401b0381116200060d5760209062000af8601f8201601f1916830162000a87565b9281845282828701011162000a83575f5b81811062000b1e5750825f9394955001015290565b858101830151848201840152820162000b09565b6001600160a01b03165f8181527fad3228b676f7d3cd4284a5443f17f1962b36e491b30a40b2405849e597ba5fb5602052604081205490919060ff1662000bac57818052816020526040822081835260205260408220600160ff1982541617905533915f8051602062003b608339815191528180a4600190565b5090565b6001600160a01b03165f8181527f7d7ffb7a348e1c6a02869081a26547b49160dd3df72d1d75a570eb9b698292ec60205260408120549091907fa49807205ce4d355092ef5a8a18f56e8913cf4a201fbe287825b095693c217759060ff1662000c4b57808352826020526040832082845260205260408320600160ff198254161790555f8051602062003b60833981519152339380a4600190565b505090565b6001600160a01b03165f8181527fee57cd81e84075558e8fcc182a1f4393f91fc97f963a136e66b7f949a62f319f60205260408120549091907f97667070c54ef182b0f5858b034beac1b6f3089aa2d3188bb1e8929f4fa9b9299060ff1662000c4b57808352826020526040832082845260205260408320600160ff198254161790555f8051602062003b60833981519152339380a460019056fe60806040526004361015610011575f80fd5b5f803560e01c80630133a3f7146120d957806301ffc9a7146120825780631386a7d21461148c578063156ed7e91461146e578063185b6910146113775780631bdd4b741461127d578063248a9ca31461125157806327ed71881461122d5780632f2ff15d146111f05780633400ffa9146110be57806336568abe1461107657806351858e271461102757806360ebcce214610c3657806367c897fe14610a5457806375b238fc14610a2c5780637746b2b414610a0557806380c1e706146109e75780638c3881ae146109c95780638f1d37761461094057806391d14854146108f857806392cae63c1461080557806393c87f03146107b057806394a754e0146103e3578063a217fddf146103c7578063adefcd2a14610280578063b5d2e6d814610257578063c45a01551461022e578063d36db65d146101e2578063d547741f146101a15763f5b541a614610164575f80fd5b3461019e578060031936011261019e5760206040517f97667070c54ef182b0f5858b034beac1b6f3089aa2d3188bb1e8929f4fa9b9298152f35b80fd5b503461019e57604036600319011261019e576101de6004356101c1612813565b90808452836020526101d96001604086200154612935565b6129f0565b5080f35b503461019e57602036600319011261019e57610216604061022a92610205612c6f565b506004358152600e60205220612ce4565b604051918291602083526020830190612829565b0390f35b503461019e578060031936011261019e576003546040516001600160a01b039091168152602090f35b503461019e578060031936011261019e576002546040516001600160a01b039091168152602090f35b503461019e57602036600319011261019e57600435808252600e602052604082206102ad81541515612ad2565b60ff600b8201541661038b57600c810154421061034657600e01805460ff81166103015760ff191660011790557f9a54caca395ee556cf002513d32eff0d2e5a089a5876960d1f91242c8fafedc38280a280f35b60405162461bcd60e51b815260206004820152601760248201527f55706461746520616c72656164792076657269666965640000000000000000006044820152606490fd5b60405162461bcd60e51b815260206004820152601c60248201527f4368616c6c656e676520706572696f64206e6f742065787069726564000000006044820152606490fd5b60405162461bcd60e51b8152602060048201526014602482015273155c19185d19481a5cc818da185b1b195b99d95960621b6044820152606490fd5b503461019e578060031936011261019e57602090604051908152f35b503461019e57604036600319011261019e5760243560043581151582036107ac577f97667070c54ef182b0f5858b034beac1b6f3089aa2d3188bb1e8929f4fa9b929835260209183835260408420338552835260ff6040852054161561075d57818452600f83526040842090600e84526040852090600483019081549160ff83166107185760ff600b85015416156106db5761ffff1990921681151560081b61ff00161760011790915560ff1990156105c35750600e8101805461ff0019166101001790555f198301938385116105af5784600d5560018060a01b038681600254168260098601541690600a8488541696015490803b156105ab5760405163020014b760e51b81526001600160a01b039384166004820152969092166024870152604486015281908590606490829084905af193841561059e57869461057f575b50509060017f06b62ebedb2cc6cdd839cf250a4f9460496d9923cd41080d36484e2daac8de7792855416940154604051908152a37fcbe1944e034d03d3900b151dec68ebb07017eeb01928f0441e1b4ad7f4ca30ed8380a380f35b61058c91929394506122fa565b61059a57908391865f610524565b8580fd5b50604051903d90823e3d90fd5b8380fd5b634e487b7160e01b86526011600452602486fd5b6001600e8395969493019182541617905560018060a01b03908160025416938683600981855416930154166001840196875491813b156105ab5760405163020014b760e51b81526001600160a01b0395861660048201529416602485015260448401919091528290606490829084905af180156106d057610697575b50917f29774dbf51b873692cfe03488ec189ebff737d0f9d5f6c4bd02b78f9d65db44791859354169354604051908152a37f9a54caca395ee556cf002513d32eff0d2e5a089a5876960d1f91242c8fafedc38280a280f35b91859391966106c67f29774dbf51b873692cfe03488ec189ebff737d0f9d5f6c4bd02b78f9d65db447946122fa565b969193509161063f565b6040513d89823e3d90fd5b60405162461bcd60e51b8152600481018890526015602482015274155c19185d19481b9bdd0818da185b1b195b99d959605a1b6044820152606490fd5b60405162461bcd60e51b815260048101889052601a60248201527f4368616c6c656e676520616c7265616479207265736f6c7665640000000000006044820152606490fd5b60405162461bcd60e51b815260048101849052602160248201527f444450726f6a6563743a206f70657261746f7220726f6c6520726571756972656044820152601960fa1b6064820152608490fd5b8280fd5b503461019e578060031936011261019e575f80516020612e1f833981519152815280602052604081203382526020526107ef60ff604083205416612b16565b600c805460ff60a01b1916600160a01b17905580f35b503461019e57602036600319011261019e576004355f80516020612e1f8339815191528252816020526040822033835260205261084860ff604084205416612b16565b600d548082116108ba5781156108835781600d557fcbe1944e034d03d3900b151dec68ebb07017eeb01928f0441e1b4ad7f4ca30ed8380a380f35b60405162461bcd60e51b815260206004820152600f60248201526e24b73b30b634b2103b32b939b4b7b760891b6044820152606490fd5b60405162461bcd60e51b815260206004820152601660248201527515995c9cda5bdb88191bd95cc81b9bdd08195e1a5cdd60521b6044820152606490fd5b503461019e57604036600319011261019e5760ff6040602092610919612813565b60043582528185528282206001600160a01b03909116825284522054604051911615158152f35b503461019e57602036600319011261019e576040906004358152600f6020522060018060a01b0381541660018201549160ff61097e600283016126dd565b6109aa60046003850154940154916040519687968752602087015260c0604087015260c086019061277c565b9260608501528181161515608085015260081c16151560a08301520390f35b503461019e578060031936011261019e57602060405162093a808152f35b503461019e578060031936011261019e57602060405162278d008152f35b503461019e57602036600319011261019e576020610a24600435612b62565b604051908152f35b503461019e578060031936011261019e5760206040515f80516020612e1f8339815191528152f35b503461019e578060031936011261019e57610140604051610a74816122de565b606081528260208201526060604082015260608082015260606080820152606060a0820152606060c08201528260e082015282610100820152826101208201520152604051610ac2816122de565b610aca61232e565b81526005546001600160a01b03166020820152610ae56123ea565b6040820152610af2612481565b6060820152610aff612518565b6080820152610b0c6125af565b60a0820152610b19612646565b60c0820152600b5460e082015260ff600c5460018060a01b03811661010084015260a01c161515610120820152600d54610140820152604051809160208252610140610bfe610b768351610160602087015261018086019061277c565b60018060a01b036020850151166040860152610be9610bd5610bc1610bad604088015194601f1995868b83030160608c015261277c565b6060880151858a83030160808b015261277c565b6080870151848983030160a08a015261277c565b60a0860151838883030160c089015261277c565b9060c0850151908683030160e087015261277c565b9160e081015161010085015260018060a01b036101008201511661012085015261012081015115158285015201516101608301520390f35b503461019e57604036600319011261019e5760246001600160401b0381358181116105ab57610c699036906004016127ba565b90610c72612aaf565b6004358452600e60205260408420610c8c81541515612ad2565b600b81019081549060ff8216610fe357600c810154421015610f9f57600901546001600160a01b039392919084163314610f5b5790859160208560025416604051988980926326d352ab60e11b82523360048301525afa968715610f50578897610f17575b50600190610d0a68056bc75e2d63100000891015612a63565b60ff191617905560405193610d1e856122c3565b33855260208501868152604086019182524260608701528760808701528760a08701526004358852600f60205260408820948651166001600160601b0360a01b86541617855551600185015551908151928311610f055750610d83600284015461225b565b601f8111610ebd575b50602090601f8311600114610e4857928260a093600493610e0697968a92610e3d575b50508160011b915f199060031b1c19161760028201555b606084015160038201550191610dee60808201511515849060ff801983541691151516179055565b0151815461ff00191690151560081b61ff0016179055565b60405190815233907f336d26d6c7ae624ad51f38baf8633a8f90603c24e64c755d2edb38c5aaec1e4d602060043592a36001805580f35b015190505f80610daf565b906002840187526020872091875b601f1985168110610ea5575083600493610e0697969360019360a097601f19811610610e8d575b505050811b016002820155610dc6565b01515f1960f88460031b161c191690555f8080610e7d565b91926020600181928685015181550194019201610e56565b60028401875260208720601f840160051c81019160208510610efb575b601f0160051c01905b818110610ef05750610d8c565b878155600101610ee3565b9091508190610eda565b634e487b7160e01b8752604160045286fd5b9096506020813d602011610f48575b81610f336020938361230d565b81010312610f445751956001610cf1565b8780fd5b3d9150610f26565b6040513d8a823e3d90fd5b60405162461bcd60e51b8152602060048201819052818801527f43616e6e6f74206368616c6c656e676520796f7572206f776e207570646174656044820152606490fd5b60405162461bcd60e51b8152602060048201526018818801527f4368616c6c656e676520706572696f64206578706972656400000000000000006044820152606490fd5b60405162461bcd60e51b8152602060048201526019818801527f55706461746520616c7265616479206368616c6c656e676564000000000000006044820152606490fd5b503461019e578060031936011261019e575f80516020612e1f8339815191528152806020526040812033825260205261106660ff604083205416612b16565b600c805460ff60a01b1916905580f35b503461019e57604036600319011261019e57611090612813565b336001600160a01b038216036110ac576101de906004356129f0565b60405163334bd91960e11b8152600490fd5b503461019e578060031936011261019e57600d54906110dc82612ddf565b916110ea604051938461230d565b808352601f196110f982612ddf565b01825b8181106111d3575050600190815b81811115611173575050604051916020808401908085528551809252604085018160408460051b880101970193905b8382106111465786880387f35b90919293948380611162839a603f198b82030186528951612829565b999701959493919091019101611139565b808452600e602052604084209294925f198201908282116105af579061119b6111ac92612ce4565b6111a58287612df6565b5284612df6565b505f1981146111bf57840193919361110a565b634e487b7160e01b84526011600452602484fd5b6020906111e1959395612c6f565b828286010152019391936110fc565b503461019e57604036600319011261019e576101de600435611210612813565b90808452836020526112286001604086200154612935565b612974565b503461019e578060031936011261019e57602060405168056bc75e2d631000008152f35b503461019e57602036600319011261019e57600160406020926004358152808452200154604051908152f35b503461019e576020908160031936011261019e578060409160a083516112a2816122c3565b828152828682015260608582015282606082015282608082015201526004358152600f835220604051906112d5826122c3565b80546001600160a01b0390811683526001820154838501908152909361135c611300600285016126dd565b60408601908152600460038601549560608801968752015493608087019360ff86161515855260ff60a089019660081c1615158652604051988998828a525116908801525160408701525160c0606087015260e086019061277c565b9251608085015251151560a084015251151560c08301520390f35b503461019e578060031936011261019e5761139061232e565b6005546001600160a01b0390811691906113a86123ea565b6113b0612481565b6113b8612518565b926113c16125af565b6113c9612646565b90600b5495600c5494600d54966040519a8b9a610160808d528c016113ed9161277c565b9060208c01528a810360408c01526114049161277c565b89810360608b01526114159161277c565b88810360808a01526114269161277c565b87810360a08901526114379161277c565b86810360c08801526114489161277c565b9360e0860152811661010085015260a01c60ff1615156101208401526101408301520390f35b503461019e578060031936011261019e576020604051620151808152f35b503461019e5761010036600319011261019e576004356001600160401b03811161207e576114be9036906004016127ba565b6114c6612813565b906044356001600160401b0381116105ab576114e69036906004016127ba565b906064356001600160401b03811161207a576115069036906004016127ba565b916084356001600160401b03811161059a576115269036906004016127ba565b9060a4356001600160401b038111612076576115469036906004016127ba565b60c4356001600160401b038111610f44576115659036906004016127ba565b9060e4356001600160401b038111612072576115859036906004016127ba565b9361158e612aaf565b60ff600c5460a01c161561203757845115611ff2576002546040516326d352ab60e11b81523360048201529790602090899060249082906001600160a01b03165afa978815611fe7578a98611faf575b506115f468056bc75e2d63100000891015612a63565b6115fd88612b62565b94600d549960018b018b11611f9b578642014211611f9b57604051986116228a612293565b60018c018a524260208b015260408a015260018060a01b03166060890152608088015260a087015260c086015260e085015261010084015233610120840152836101408401528561016084015242016101808301526101a0820152836101c0820152836101e0820152600183018452600e60205260408420815181556020820151600182015560408201518051906001600160401b038211611ad15781906116cd600285015461225b565b601f8111611f4b575b50602090601f8311600114611edd578892611ed2575b50508160011b915f199060031b1c19161760028201555b6003810160018060a01b036060840151166001600160601b0360a01b82541617905560808201518051906001600160401b038211611ad157819061174a600485015461225b565b601f8111611e82575b50602090601f8311600114611e14578892611e09575b50508160011b915f199060031b1c19161760048201555b60a08201518051906001600160401b038211611ad15781906117a5600585015461225b565b601f8111611db9575b50602090601f8311600114611d4b578892611d40575b50508160011b915f199060031b1c19161760058201555b60c08201518051906001600160401b038211611ad1578190611800600685015461225b565b601f8111611cf0575b50602090601f8311600114611c82578892611c77575b50508160011b915f199060031b1c19161760068201555b60e08201518051906001600160401b038211611ad157819061185b600785015461225b565b601f8111611c27575b50602090601f8311600114611bb9578892611bae575b50508160011b915f199060031b1c19161760078201555b6101008201518051906001600160401b038211611ad15781906118b7600885015461225b565b601f8111611b5e575b50602090601f8311600114611af0578892611ae5575b50508160011b915f199060031b1c19161760088201555b6009810160018060a01b03610120840151166001600160601b0360a01b825416179055610140820151600a82015561193b6101608301511515600b83019060ff801983541691151516179055565b610180820151600c8201556101a08201518051906001600160401b038211611ad15761196a600d84015461225b565b601f8111611a89575b50602090601f8311600114611a165792826101e093600e936119cd97968b92611a0b575b50508160011b915f199060031b1c191617600d8201555b0191610dee6101c08201511515849060ff801983541691151516179055565b60018201600d556040519081527f5b710c2bd98ed37f3de369d2840da232dedb33862e38425a5b3949ddfc269e8c6020600133940192a36001805580f35b015190505f80611997565b600d84018852602088209190601f198416895b818110611a71575093600e936119cd979693600193836101e09810611a59575b505050811b01600d8201556119ae565b01515f1960f88460031b161c191690555f8080611a49565b92936020600181928786015181550195019301611a29565b600d8401885260208820601f840160051c81019160208510611ac7575b601f0160051c01905b818110611abc5750611973565b888155600101611aaf565b9091508190611aa6565b634e487b7160e01b87526041600452602487fd5b015190505f806118d6565b9250600884018852602088209088935b601f1984168510611b43576001945083601f19811610611b2b575b505050811b0160088201556118ed565b01515f1960f88460031b161c191690555f8080611b1b565b81810151835560209485019460019093019290910190611b00565b90915060088401885260208820601f840160051c810160208510611ba7575b90849392915b601f830160051c82018110611b995750506118c0565b8a8155859450600101611b83565b5080611b7d565b015190505f8061187a565b9250600784018852602088209088935b601f1984168510611c0c576001945083601f19811610611bf4575b505050811b016007820155611891565b01515f1960f88460031b161c191690555f8080611be4565b81810151835560209485019460019093019290910190611bc9565b90915060078401885260208820601f840160051c810160208510611c70575b90849392915b601f830160051c82018110611c62575050611864565b8a8155859450600101611c4c565b5080611c46565b015190505f8061181f565b9250600684018852602088209088935b601f1984168510611cd5576001945083601f19811610611cbd575b505050811b016006820155611836565b01515f1960f88460031b161c191690555f8080611cad565b81810151835560209485019460019093019290910190611c92565b90915060068401885260208820601f840160051c810160208510611d39575b90849392915b601f830160051c82018110611d2b575050611809565b8a8155859450600101611d15565b5080611d0f565b015190505f806117c4565b9250600584018852602088209088935b601f1984168510611d9e576001945083601f19811610611d86575b505050811b0160058201556117db565b01515f1960f88460031b161c191690555f8080611d76565b81810151835560209485019460019093019290910190611d5b565b90915060058401885260208820601f840160051c810160208510611e02575b90849392915b601f830160051c82018110611df45750506117ae565b8a8155859450600101611dde565b5080611dd8565b015190505f80611769565b9250600484018852602088209088935b601f1984168510611e67576001945083601f19811610611e4f575b505050811b016004820155611780565b01515f1960f88460031b161c191690555f8080611e3f565b81810151835560209485019460019093019290910190611e24565b90915060048401885260208820601f840160051c810160208510611ecb575b90849392915b601f830160051c82018110611ebd575050611753565b8a8155859450600101611ea7565b5080611ea1565b015190505f806116ec565b9250600284018852602088209088935b601f1984168510611f30576001945083601f19811610611f18575b505050811b016002820155611703565b01515f1960f88460031b161c191690555f8080611f08565b81810151835560209485019460019093019290910190611eed565b90915060028401885260208820601f840160051c810160208510611f94575b90849392915b601f830160051c82018110611f865750506116d6565b8a8155859450600101611f70565b5080611f6a565b634e487b7160e01b8c52601160045260248cfd5b9097506020813d602011611fdf575b81611fcb6020938361230d565b81010312611fdb5751965f6115de565b8980fd5b3d9150611fbe565b6040513d8c823e3d90fd5b60405162461bcd60e51b815260206004820152601d60248201527f55706461746520726561736f6e2063616e6e6f7420626520656d7074790000006044820152606490fd5b60405162461bcd60e51b815260206004820152601360248201527250726f6a65637420697320696e61637469766560681b6044820152606490fd5b8880fd5b8680fd5b8480fd5b5080fd5b503461019e57602036600319011261019e5760043563ffffffff60e01b811680910361207e57602090637965db0b60e01b81149081156120c8575b506040519015158152f35b6301ffc9a760e01b149050826120bd565b503461019e57602036600319011261019e576004358152600e60205260409020805460018201549061210d600284016126dd565b600384015490936001600160a01b039182169290919061212f600484016126dd565b61213b600585016126dd565b612147600686016126dd565b93612154600787016126dd565b612160600888016126dd565b9160098801541695600a88015493600b89015460ff1695600c8a015497600d8b0161218a906126dd565b9a600e01549b6040519e8f9e8f938452602084015261020080604085015283016121b39161277c565b91606001528c80820390608001526121ca9161277c565b8b810360a08d01526121db9161277c565b8a810360c08c01526121ec9161277c565b89810360e08b01526121fd9161277c565b8881036101008a015261220f9161277c565b9361012088015261014087015215156101608601526101808501528381036101a085015261223c9161277c565b9060ff811615156101c084015260081c60ff1615156101e08301520390f35b90600182811c92168015612289575b602083101461227557565b634e487b7160e01b5f52602260045260245ffd5b91607f169161226a565b61020081019081106001600160401b038211176122af57604052565b634e487b7160e01b5f52604160045260245ffd5b60c081019081106001600160401b038211176122af57604052565b61016081019081106001600160401b038211176122af57604052565b6001600160401b0381116122af57604052565b90601f801991011681019081106001600160401b038211176122af57604052565b604051905f82600454916123418361225b565b808352926001908181169081156123c8575060011461236a575b506123689250038361230d565b565b60045f90815291507f8a35acfbc15ff81a39ae7d344fd709f28e8600b4aa8c65c6b64bfe7fe36bd19b5b8483106123ad575061236893505081016020015f61235b565b81935090816020925483858a01015201910190918592612394565b90506020925061236894915060ff191682840152151560051b8201015f61235b565b604051905f82600654916123fd8361225b565b808352926001908181169081156123c8575060011461242357506123689250038361230d565b60065f90815291507ff652222313e28459528d920b65115c16c04f3efc82aaedc97be59f3f377c0d3f5b848310612466575061236893505081016020015f61235b565b81935090816020925483858a0101520191019091859261244d565b604051905f82600754916124948361225b565b808352926001908181169081156123c857506001146124ba57506123689250038361230d565b60075f90815291507fa66cc928b5edb82af9bd49922954155ab7b0942694bea4ce44661d9a8736c6885b8483106124fd575061236893505081016020015f61235b565b81935090816020925483858a010152019101909185926124e4565b604051905f826008549161252b8361225b565b808352926001908181169081156123c8575060011461255157506123689250038361230d565b60085f90815291507ff3f7a9fe364faab93b216da50a3214154f22a0a2b415b23a84c8169e8b636ee35b848310612594575061236893505081016020015f61235b565b81935090816020925483858a0101520191019091859261257b565b604051905f82600954916125c28361225b565b808352926001908181169081156123c857506001146125e857506123689250038361230d565b60095f90815291507f6e1540171b6c0c960b71a7020d9f60077f6af931a8bbf590da0223dacf75c7af5b84831061262b575061236893505081016020015f61235b565b81935090816020925483858a01015201910190918592612612565b604051905f82600a54916126598361225b565b808352926001908181169081156123c8575060011461267f57506123689250038361230d565b600a5f90815291507fc65a7bb8d6351c1cf70c95a316cc6a92839c986682d98bc35f958f4883f9d2a85b8483106126c2575061236893505081016020015f61235b565b81935090816020925483858a010152019101909185926126a9565b9060405191825f8254926126f08461225b565b9081845260019485811690815f146127595750600114612719575b50506123689250038361230d565b909391505f52602090815f20935f915b81831061274157505061236893508201015f8061270b565b85548884018501529485019487945091830191612729565b91505061236894506020925060ff191682840152151560051b8201015f8061270b565b91908251928382525f5b8481106127a6575050825f602080949584010152601f8019910116010190565b602081830181015184830182015201612786565b81601f8201121561280f578035906001600160401b0382116122af57604051926127ee601f8401601f19166020018561230d565b8284526020838301011161280f57815f926020809301838601378301015290565b5f80fd5b602435906001600160a01b038216820361280f57565b908151815260208201516020820152612918612854604084015161020080604086015284019061277c565b6128d36128bf6128ad61289b61288960018060a01b03958660608b01511660608a015260808a015189820360808b015261277c565b60a089015188820360a08a015261277c565b60c088015187820360c089015261277c565b60e087015186820360e088015261277c565b61010080870151908683039087015261277c565b906101209081860151169084015261014080850151908401526101608085015115159084015261018080850151908401526101a080850151908483039085015261277c565b916101c0808201511515908301526101e080910151151591015290565b805f525f60205260405f20335f5260205260ff60405f205416156129565750565b6044906040519063e2517d3f60e01b82523360048301526024820152fd5b905f9180835282602052604083209160018060a01b03169182845260205260ff604084205416155f146129eb57808352826020526040832082845260205260408320600160ff198254161790557f2f8788117e7eff1d82e926ec794901d17c78024a50270940304540a733656f0d339380a4600190565b505090565b905f9180835282602052604083209160018060a01b03169182845260205260ff6040842054165f146129eb5780835282602052604083208284526020526040832060ff1981541690557ff6391f5c32d9c69d2a47ea670b442974b53935d1edc7fd64eb21e047a839171b339380a4600190565b15612a6a57565b60405162461bcd60e51b815260206004820152601960248201527f496e73756666696369656e74207374616b6520616d6f756e74000000000000006044820152606490fd5b600260015414612ac0576002600155565b604051633ee5aeb560e01b8152600490fd5b15612ad957565b60405162461bcd60e51b8152602060048201526015602482015274155c19185d1948191bd95cc81b9bdd08195e1a5cdd605a1b6044820152606490fd5b15612b1d57565b60405162461bcd60e51b815260206004820152601e60248201527f444450726f6a6563743a2061646d696e20726f6c6520726571756972656400006044820152606490fd5b68056bc75e2d630fffff19818101918211612c01576207e9009182810290808204841490151715612c01576002546040516317c978f960e11b81529290602090849060049082906001600160a01b03165afa928315612c64575f93612c31575b508201918211612c01578115612c1d570490808211612c15575b5062093a80908103908111612c0157620151809081811015612bfc575090565b905090565b634e487b7160e01b5f52601160045260245ffd5b90505f612bdc565b634e487b7160e01b5f52601260045260245ffd5b90926020823d8211612c5c575b81612c4b6020938361230d565b8101031261019e575051915f612bc2565b3d9150612c3e565b6040513d5f823e3d90fd5b60405190612c7c82612293565b816101e05f91828152826020820152606080604083015283818301528060808301528060a08301528060c08301528060e083015280610100830152836101208301528361014083015283610160830152836101808301526101a0820152826101c08201520152565b90604051612cf181612293565b6101e060ff600e83958054855260018101546020860152612d14600282016126dd565b604086015260038101546001600160a01b039081166060870152612d3a600483016126dd565b6080870152612d4b600583016126dd565b60a0870152612d5c600683016126dd565b60c0870152612d6d600783016126dd565b60e0870152612d7e600883016126dd565b610100870152600982015416610120860152600a81015461014086015282600b820154161515610160860152600c810154610180860152612dc1600d82016126dd565b6101a0860152015481811615156101c085015260081c161515910152565b6001600160401b0381116122af5760051b60200190565b8051821015612e0a5760209160051b010190565b634e487b7160e01b5f52603260045260245ffdfea49807205ce4d355092ef5a8a18f56e8913cf4a201fbe287825b095693c21775a264697066735822122010619f8d14b2233908b1f014e1dcca576d4c32bfa2908644ddeb66e07992adbf64736f6c634300081400332f8788117e7eff1d82e926ec794901d17c78024a50270940304540a733656f0dc65a7bb8d6351c1cf70c95a316cc6a92839c986682d98bc35f958f4883f9d2a8a66cc928b5edb82af9bd49922954155ab7b0942694bea4ce44661d9a8736c688f3f7a9fe364faab93b216da50a3214154f22a0a2b415b23a84c8169e8b636ee36e1540171b6c0c960b71a7020d9f60077f6af931a8bbf590da0223dacf75c7aff652222313e28459528d920b65115c16c04f3efc82aaedc97be59f3f377c0d3fa2646970667358221220b2458f0b24f055e1cee5b67e49e5b844659b9c4d7ce534900fe0b5e84cb4d67f64736f6c634300081400332f8788117e7eff1d82e926ec794901d17c78024a50270940304540a733656f0d","linkReferences":{}},"methodIdentifiers":{"ADMIN_ROLE()":"75b238fc","DEFAULT_ADMIN_ROLE()":"a217fddf","OPERATOR_ROLE()":"f5b541a6","createProject(string,address,string,string,string,string,string)":"42a9b544","ddToken()":"b5d2e6d8","deactivateProject(uint256)":"436e6958","getAllProjects(uint256,uint256)":"189c95f1","getProjectByAddress(address)":"77d0a547","getProjectStats()":"2d6c1661","getProjectsByCategory(string)":"2e4efe95","getRoleAdmin(bytes32)":"248a9ca3","getUserProjects(address)":"e32e723c","grantRole(bytes32,address)":"2f2ff15d","hasRole(bytes32,address)":"91d14854","nextProjectId()":"e935b7b1","projectAddressToId(address)":"f7d024cc","projects(uint256)":"107046bd","reactivateProject(uint256)":"d66ff23b","renounceRole(bytes32,address)":"36568abe","revokeRole(bytes32,address)":"d547741f","searchProjects(string)":"debe28bc","supportsInterface(bytes4)":"01ffc9a7","totalProjects()":"9c361e4e","userProjects(address,uint256)":"2fa9c007"},"id":27}