{"abi":[{"type":"constructor","inputs":[],"stateMutability":"nonpayable"},{"type":"function","name":"DEFAULT_ADMIN_ROLE","inputs":[],"outputs":[{"name":"","type":"bytes32","internalType":"bytes32"}],"stateMutability":"view"},{"type":"function","name":"MAX_STAKE_AMOUNT","inputs":[],"outputs":[{"name":"","type":"uint256","internalType":"uint256"}],"stateMutability":"view"},{"type":"function","name":"MINTER_ROLE","inputs":[],"outputs":[{"name":"","type":"bytes32","internalType":"bytes32"}],"stateMutability":"view"},{"type":"function","name":"MIN_STAKE_AMOUNT","inputs":[],"outputs":[{"name":"","type":"uint256","internalType":"uint256"}],"stateMutability":"view"},{"type":"function","name":"VAULT_ROLE","inputs":[],"outputs":[{"name":"","type":"bytes32","internalType":"bytes32"}],"stateMutability":"view"},{"type":"function","name":"allowance","inputs":[{"name":"owner","type":"address","internalType":"address"},{"name":"spender","type":"address","internalType":"address"}],"outputs":[{"name":"","type":"uint256","internalType":"uint256"}],"stateMutability":"view"},{"type":"function","name":"approve","inputs":[{"name":"spender","type":"address","internalType":"address"},{"name":"value","type":"uint256","internalType":"uint256"}],"outputs":[{"name":"","type":"bool","internalType":"bool"}],"stateMutability":"nonpayable"},{"type":"function","name":"balanceOf","inputs":[{"name":"account","type":"address","internalType":"address"}],"outputs":[{"name":"","type":"uint256","internalType":"uint256"}],"stateMutability":"view"},{"type":"function","name":"burn","inputs":[{"name":"from","type":"address","internalType":"address"},{"name":"amount","type":"uint256","internalType":"uint256"}],"outputs":[],"stateMutability":"nonpayable"},{"type":"function","name":"decimals","inputs":[],"outputs":[{"name":"","type":"uint8","internalType":"uint8"}],"stateMutability":"view"},{"type":"function","name":"getRoleAdmin","inputs":[{"name":"role","type":"bytes32","internalType":"bytes32"}],"outputs":[{"name":"","type":"bytes32","internalType":"bytes32"}],"stateMutability":"view"},{"type":"function","name":"getStakedAmount","inputs":[{"name":"user","type":"address","internalType":"address"}],"outputs":[{"name":"","type":"uint256","internalType":"uint256"}],"stateMutability":"view"},{"type":"function","name":"getStakingTime","inputs":[{"name":"user","type":"address","internalType":"address"}],"outputs":[{"name":"","type":"uint256","internalType":"uint256"}],"stateMutability":"view"},{"type":"function","name":"grantRole","inputs":[{"name":"role","type":"bytes32","internalType":"bytes32"},{"name":"account","type":"address","internalType":"address"}],"outputs":[],"stateMutability":"nonpayable"},{"type":"function","name":"hasRole","inputs":[{"name":"role","type":"bytes32","internalType":"bytes32"},{"name":"account","type":"address","internalType":"address"}],"outputs":[{"name":"","type":"bool","internalType":"bool"}],"stateMutability":"view"},{"type":"function","name":"isStaking","inputs":[{"name":"user","type":"address","internalType":"address"}],"outputs":[{"name":"","type":"bool","internalType":"bool"}],"stateMutability":"view"},{"type":"function","name":"mint","inputs":[{"name":"to","type":"address","internalType":"address"},{"name":"amount","type":"uint256","internalType":"uint256"}],"outputs":[],"stateMutability":"nonpayable"},{"type":"function","name":"name","inputs":[],"outputs":[{"name":"","type":"string","internalType":"string"}],"stateMutability":"view"},{"type":"function","name":"renounceRole","inputs":[{"name":"role","type":"bytes32","internalType":"bytes32"},{"name":"callerConfirmation","type":"address","internalType":"address"}],"outputs":[],"stateMutability":"nonpayable"},{"type":"function","name":"revokeRole","inputs":[{"name":"role","type":"bytes32","internalType":"bytes32"},{"name":"account","type":"address","internalType":"address"}],"outputs":[],"stateMutability":"nonpayable"},{"type":"function","name":"stake","inputs":[{"name":"amount","type":"uint256","internalType":"uint256"}],"outputs":[],"stateMutability":"nonpayable"},{"type":"function","name":"stakedAmount","inputs":[{"name":"","type":"address","internalType":"address"}],"outputs":[{"name":"","type":"uint256","internalType":"uint256"}],"stateMutability":"view"},{"type":"function","name":"stakingTime","inputs":[{"name":"","type":"address","internalType":"address"}],"outputs":[{"name":"","type":"uint256","internalType":"uint256"}],"stateMutability":"view"},{"type":"function","name":"supportsInterface","inputs":[{"name":"interfaceId","type":"bytes4","internalType":"bytes4"}],"outputs":[{"name":"","type":"bool","internalType":"bool"}],"stateMutability":"view"},{"type":"function","name":"symbol","inputs":[],"outputs":[{"name":"","type":"string","internalType":"string"}],"stateMutability":"view"},{"type":"function","name":"totalStaked","inputs":[],"outputs":[{"name":"","type":"uint256","internalType":"uint256"}],"stateMutability":"view"},{"type":"function","name":"totalSupply","inputs":[],"outputs":[{"name":"","type":"uint256","internalType":"uint256"}],"stateMutability":"view"},{"type":"function","name":"transfer","inputs":[{"name":"to","type":"address","internalType":"address"},{"name":"value","type":"uint256","internalType":"uint256"}],"outputs":[{"name":"","type":"bool","internalType":"bool"}],"stateMutability":"nonpayable"},{"type":"function","name":"transferFrom","inputs":[{"name":"from","type":"address","internalType":"address"},{"name":"to","type":"address","internalType":"address"},{"name":"value","type":"uint256","internalType":"uint256"}],"outputs":[{"name":"","type":"bool","internalType":"bool"}],"stateMutability":"nonpayable"},{"type":"function","name":"transferStakedTokens","inputs":[{"name":"from","type":"address","internalType":"address"},{"name":"to","type":"address","internalType":"address"},{"name":"amount","type":"uint256","internalType":"uint256"}],"outputs":[],"stateMutability":"nonpayable"},{"type":"function","name":"unstake","inputs":[{"name":"amount","type":"uint256","internalType":"uint256"}],"outputs":[],"stateMutability":"nonpayable"},{"type":"event","name":"Approval","inputs":[{"name":"owner","type":"address","indexed":true,"internalType":"address"},{"name":"spender","type":"address","indexed":true,"internalType":"address"},{"name":"value","type":"uint256","indexed":false,"internalType":"uint256"}],"anonymous":false},{"type":"event","name":"RoleAdminChanged","inputs":[{"name":"role","type":"bytes32","indexed":true,"internalType":"bytes32"},{"name":"previousAdminRole","type":"bytes32","indexed":true,"internalType":"bytes32"},{"name":"newAdminRole","type":"bytes32","indexed":true,"internalType":"bytes32"}],"anonymous":false},{"type":"event","name":"RoleGranted","inputs":[{"name":"role","type":"bytes32","indexed":true,"internalType":"bytes32"},{"name":"account","type":"address","indexed":true,"internalType":"address"},{"name":"sender","type":"address","indexed":true,"internalType":"address"}],"anonymous":false},{"type":"event","name":"RoleRevoked","inputs":[{"name":"role","type":"bytes32","indexed":true,"internalType":"bytes32"},{"name":"account","type":"address","indexed":true,"internalType":"address"},{"name":"sender","type":"address","indexed":true,"internalType":"address"}],"anonymous":false},{"type":"event","name":"TokensBurned","inputs":[{"name":"from","type":"address","indexed":true,"internalType":"address"},{"name":"amount","type":"uint256","indexed":false,"internalType":"uint256"}],"anonymous":false},{"type":"event","name":"TokensMinted","inputs":[{"name":"to","type":"address","indexed":true,"internalType":"address"},{"name":"amount","type":"uint256","indexed":false,"internalType":"uint256"}],"anonymous":false},{"type":"event","name":"TokensStaked","inputs":[{"name":"user","type":"address","indexed":true,"internalType":"address"},{"name":"amount","type":"uint256","indexed":false,"internalType":"uint256"}],"anonymous":false},{"type":"event","name":"TokensUnstaked","inputs":[{"name":"user","type":"address","indexed":true,"internalType":"address"},{"name":"amount","type":"uint256","indexed":false,"internalType":"uint256"}],"anonymous":false},{"type":"event","name":"Transfer","inputs":[{"name":"from","type":"address","indexed":true,"internalType":"address"},{"name":"to","type":"address","indexed":true,"internalType":"address"},{"name":"value","type":"uint256","indexed":false,"internalType":"uint256"}],"anonymous":false},{"type":"error","name":"AccessControlBadConfirmation","inputs":[]},{"type":"error","name":"AccessControlUnauthorizedAccount","inputs":[{"name":"account","type":"address","internalType":"address"},{"name":"neededRole","type":"bytes32","internalType":"bytes32"}]},{"type":"error","name":"ERC20InsufficientAllowance","inputs":[{"name":"spender","type":"address","internalType":"address"},{"name":"allowance","type":"uint256","internalType":"uint256"},{"name":"needed","type":"uint256","internalType":"uint256"}]},{"type":"error","name":"ERC20InsufficientBalance","inputs":[{"name":"sender","type":"address","internalType":"address"},{"name":"balance","type":"uint256","internalType":"uint256"},{"name":"needed","type":"uint256","internalType":"uint256"}]},{"type":"error","name":"ERC20InvalidApprover","inputs":[{"name":"approver","type":"address","internalType":"address"}]},{"type":"error","name":"ERC20InvalidReceiver","inputs":[{"name":"receiver","type":"address","internalType":"address"}]},{"type":"error","name":"ERC20InvalidSender","inputs":[{"name":"sender","type":"address","internalType":"address"}]},{"type":"error","name":"ERC20InvalidSpender","inputs":[{"name":"spender","type":"address","internalType":"address"}]},{"type":"error","name":"ReentrancyGuardReentrantCall","inputs":[]}],"bytecode":{"object":"0x60803462000395576001600160401b039060409080820183811182821017620002a0578252600881526020672222102a37b5b2b760c11b8183015282519183830183811086821117620002a05784526002835261111160f21b82840152805194808611620002a05760038054966001938489811c991680156200038a575b868a101462000376578190601f998a811162000323575b5086908a8311600114620002c0575f92620002b4575b50505f1982841b1c191690841b1781555b8451918211620002a05760049485548481811c9116801562000295575b8682101462000282578881116200023a575b5084978311600114620001d557968293949596975f93620001c9575b505082841b925f19911b1c19161783555b600655620001253362000399565b50620001313362000418565b503315620001b35760025469d3c21bcecceda100000092838201809211620001a057505f917fddf252ad1be2c89b69c2b068fc378daa952ba7f163c4a11628f55a4df523b3ef9160025533835282815284832084815401905584519384523393a3516112e59081620004ba8239f35b601190634e487b7160e01b5f525260245ffd5b505f602492519163ec442f0560e01b8352820152fd5b015191505f8062000106565b90601f19831697865f52855f20925f5b8a811062000224575084869798999a106200020a575b50505050811b01835562000117565b01519060f8845f19921b161c191690555f808080620001fb565b81830151855593860193918701918701620001e5565b865f52855f208980860160051c82019288871062000278575b0160051c019085905b8281106200026c575050620000ea565b5f81550185906200025c565b9250819262000253565b602287634e487b7160e01b5f525260245ffd5b90607f1690620000d8565b634e487b7160e01b5f52604160045260245ffd5b015190505f80620000aa565b90869350601f19831691855f52885f20925f5b8a8282106200030c5750508411620002f4575b505050811b018155620000bb565b01515f1983861b60f8161c191690555f8080620002e6565b8385015186558a97909501949384019301620002d3565b909150835f52865f208a80850160051c8201928986106200036c575b918891869594930160051c01915b8281106200035d57505062000094565b5f81558594508891016200034d565b925081926200033f565b634e487b7160e01b5f52602260045260245ffd5b98607f16986200007d565b5f80fd5b6001600160a01b03165f8181527f05b8ccbb9d4d8fb16ea74ce3c29a41f1b461fbdaff4714a0d9a8eb05499746bc602052604081205490919060ff16620004145781805260056020526040822081835260205260408220600160ff1982541617905533915f805160206200179f8339815191528180a4600190565b5090565b6001600160a01b03165f8181527f15a28d26fa1bf736cf7edc9922607171ccb09c3c73b808e7772a3013e068a52260205260408120549091907f9f2df0fed2c77648de5860a4cc508cd0818c85b8b8a1ab4ceeef8d981c8956a69060ff16620004b45780835260056020526040832082845260205260408320600160ff198254161790555f805160206200179f833981519152339380a4600190565b50509056fe6080604081815260049182361015610015575f80fd5b5f92833560e01c91826301ffc9a714610e1d5750816306fdde0314610d43578163095ea7b314610c9957816318160ddd14610c7a57816323b872dd14610b9a578163248a9ca314610b6f57816327ed718814610b4b5781632e17de7814610a265781632f2ff15d146109fc5781632f92f1f2146109d7578163313ce567146109bb57816336568abe14610975578163400296e01461088a57816340c10f19146107c75781634da6a5561461079f578163583d42fd146102785781636f49712b1461076557816370a082311461072e578163817b1cd21461070f57816391d14854146106c857816395d89b41146105a957816398c4f1ac1461056e5781639dc29fac1461046b578163a217fddf14610450578163a694fc3a146102e1578163a9059cbb146102b0578163c312238114610278578163d53913931461023d578163d547741f146101f957508063dd62ed3e146101b15763f993185514610177575f80fd5b346101ad5760203660031901126101ad5760209181906001600160a01b0361019d610eb7565b1681526007845220549051908152f35b5080fd5b50346101ad57806003193601126101ad57806020926101ce610eb7565b6101d6610ed1565b6001600160a01b0391821683526001865283832091168252845220549051908152f35b919050346102395780600319360112610239576102359135610230600161021e610ed1565b93838752600560205286200154610f95565b611035565b5080f35b8280fd5b5050346101ad57816003193601126101ad57602090517f9f2df0fed2c77648de5860a4cc508cd0818c85b8b8a1ab4ceeef8d981c8956a68152f35b5050346101ad5760203660031901126101ad5760209181906001600160a01b036102a0610eb7565b1681526008845220549051908152f35b5050346101ad57806003193601126101ad576020906102da6102d0610eb7565b60243590336110aa565b5160018152f35b91905034610239576020908160031936011261044c57823592610302611233565b68056bc75e2d6310000084106104145769021e19e0c9bab240000084116103db573385528483528382862054106103a35750907fb539ca1e5c8d398ddf1c41c30166f33404941683be4683319b57669a93dad4ef916103628430336110aa565b33855260078252808520610377858254611212565b905533855260088252428186205561039184600954611212565b600955519283523392a2600160065580f35b82606492519162461bcd60e51b83528201526014602482015273496e73756666696369656e742062616c616e636560601b6044820152fd5b82606492519162461bcd60e51b835282015260156024820152740a6e8c2d6ca40c2dadeeadce840e8dede40d0d2ced605b1b6044820152fd5b82606492519162461bcd60e51b835282015260146024820152735374616b6520616d6f756e7420746f6f206c6f7760601b6044820152fd5b8380fd5b5050346101ad57816003193601126101ad5751908152602090f35b905034610239578160031936011261023957610485610eb7565b9160243591610492610f1c565b6001600160a01b0384169384156105585784865285602052828620549184831061052457505091602091817ffd38818f5291bf0bb3a2a48aadc06ba8757865d1dabd804585338aab3009dcb6948688528785520381872055816002540360025585857fddf252ad1be2c89b69c2b068fc378daa952ba7f163c4a11628f55a4df523b3ef858451868152a351908152a280f35b835163391434e360e21b81526001600160a01b03909216908201908152602081018390526040810185905281906060010390fd5b50846024925191634b637e8f60e11b8352820152fd5b5050346101ad57816003193601126101ad57602090517f31e0210044b4f6757ce6aa31f9c6e8d4896d24a755014887391a926c5224d9598152f35b8383346101ad57816003193601126101ad57805190828454600181811c908083169283156106be575b60209384841081146106ab5783885290811561068f575060011461063a575b505050829003601f01601f191682019267ffffffffffffffff8411838510176106275750829182610623925282610e70565b0390f35b634e487b7160e01b815260418552602490fd5b8787529192508591837f8a35acfbc15ff81a39ae7d344fd709f28e8600b4aa8c65c6b64bfe7fe36bd19b5b83851061067b57505050508301018580806105f1565b805488860183015293019284908201610665565b60ff1916878501525050151560051b84010190508580806105f1565b634e487b7160e01b895260228a52602489fd5b91607f16916105d2565b9050346102395781600319360112610239578160209360ff926106e9610ed1565b90358252600586528282206001600160a01b039091168252855220549151911615158152f35b5050346101ad57816003193601126101ad576020906009549051908152f35b5050346101ad5760203660031901126101ad5760209181906001600160a01b03610756610eb7565b16815280845220549051908152f35b5050346101ad5760203660031901126101ad5760209181906001600160a01b0361078d610eb7565b16815260078452205415159051908152f35b5050346101ad5760203660031901126101ad5760209181906001600160a01b0361019d610eb7565b919050346102395780600319360112610239576107e2610eb7565b90602435916107ef610f1c565b6001600160a01b03169283156108755750816020916108317f3f2c9d57c068687834f0de942a9babb9e5acab57d516d3480a3c16ee165a427394600254611212565b60025584865285835280862082815401905584867fddf252ad1be2c89b69c2b068fc378daa952ba7f163c4a11628f55a4df523b3ef858451868152a351908152a280f35b84602492519163ec442f0560e01b8352820152fd5b9050346102395761089a36610ee7565b93917f31e0210044b4f6757ce6aa31f9c6e8d4896d24a755014887391a926c5224d9599391939182875260209260058452848820338952845260ff858920541615610958578761094688888389898960018060a01b03168084526007825261090786848620541015611256565b8084526007825282842061091c8782546112a2565b905561092a866009546112a2565b6009558352600781528183205415610949575b505050306110aa565b80f35b6008905281205583858061093d565b6044925084519163e2517d3f60e01b835233908301526024820152fd5b8383346101ad57806003193601126101ad5761098f610ed1565b90336001600160a01b038316036109ac5750610235919235611035565b5163334bd91960e11b81528390fd5b5050346101ad57816003193601126101ad576020905160128152f35b5050346101ad57816003193601126101ad576020905169021e19e0c9bab24000008152f35b919050346102395780600319360112610239576102359135610a21600161021e610ed1565b610fb7565b91905034610239576020908160031936011261044c57823592610a47611233565b33855260078352610a5d84838720541015611256565b338552600883528185205462093a808101809111610b38574210610afe5750907f9845e367b683334e5c0b12d7b81721ac518e649376fa65e3d68324e8f34f26799133855260078252808520610ab48582546112a2565b9055610ac2846009546112a2565b600955338552600782528085205415610af0575b610ae18433306110aa565b519283523392a2600160065580f35b600882528481812055610ad6565b82606492519162461bcd60e51b8352820152601660248201527514dd185ada5b99c81c195c9a5bd9081b9bdd081b595d60521b6044820152fd5b634e487b7160e01b865260118252602486fd5b5050346101ad57816003193601126101ad576020905168056bc75e2d631000008152f35b9050346102395760203660031901126102395781602093600192358152600585522001549051908152f35b839150346101ad57610bab36610ee7565b6001600160a01b03831680865260016020908152878720338852905286862054919592945f198310610be6575b6020886102da8989896110aa565b868310610c4e578115610c37573315610c20575082526001602090815286832033845281529186902090859003905582906102da87610bd8565b8751634a1406b160e11b8152908101849052602490fd5b875163e602df0560e01b8152908101849052602490fd5b8751637dc7a0d960e11b8152339181019182526020820193909352604081018790528291506060010390fd5b5050346101ad57816003193601126101ad576020906002549051908152f35b905034610239578160031936011261023957610cb3610eb7565b602435903315610d2c576001600160a01b0316918215610d1557508083602095338152600187528181208582528752205582519081527f8c5be1e5ebec7d5bd14f71427d1e84f3dd0314c0f7b2291e5b200ac8c7c3b925843392a35160018152f35b8351634a1406b160e11b8152908101859052602490fd5b835163e602df0560e01b8152808401869052602490fd5b8383346101ad57816003193601126101ad5780519082600354600181811c90808316928315610e13575b60209384841081146106ab5783885290811561068f5750600114610dbd57505050829003601f01601f191682019267ffffffffffffffff8411838510176106275750829182610623925282610e70565b600387529192508591837fc2575a0e9e593c00f959f8c92f12db2869c3395a3b0502d05e2516446f71f85b5b838510610dff57505050508301018580806105f1565b805488860183015293019284908201610de9565b91607f1691610d6d565b849134610239576020366003190112610239573563ffffffff60e01b81168091036102395760209250637965db0b60e01b8114908115610e5f575b5015158152f35b6301ffc9a760e01b14905083610e58565b602080825282518183018190529093925f5b828110610ea357505060409293505f838284010152601f8019910116010190565b818101860151848201604001528501610e82565b600435906001600160a01b0382168203610ecd57565b5f80fd5b602435906001600160a01b0382168203610ecd57565b6060906003190112610ecd576001600160a01b03906004358281168103610ecd57916024359081168103610ecd579060443590565b335f9081527f15a28d26fa1bf736cf7edc9922607171ccb09c3c73b808e7772a3013e068a52260205260409020547f9f2df0fed2c77648de5860a4cc508cd0818c85b8b8a1ab4ceeef8d981c8956a69060ff1615610f775750565b6044906040519063e2517d3f60e01b82523360048301526024820152fd5b805f52600560205260405f20335f5260205260ff60405f20541615610f775750565b905f918083526005602052604083209160018060a01b03169182845260205260ff604084205416155f146110305780835260056020526040832082845260205260408320600160ff198254161790557f2f8788117e7eff1d82e926ec794901d17c78024a50270940304540a733656f0d339380a4600190565b505090565b905f918083526005602052604083209160018060a01b03169182845260205260ff6040842054165f14611030578083526005602052604083208284526020526040832060ff1981541690557ff6391f5c32d9c69d2a47ea670b442974b53935d1edc7fd64eb21e047a839171b339380a4600190565b906001600160a01b038083169182156111fa57169283156111e2575f9180835260209483865260409485852054908482106111b1575083908386528588520385852055808452848420838154019055817fddf252ad1be2c89b69c2b068fc378daa952ba7f163c4a11628f55a4df523b3ef878751868152a380835260078552838084205415938415611187575b5050505015611144575050565b60649250519062461bcd60e51b82526004820152601d60248201527f43616e6e6f74207472616e73666572207374616b656420746f6b656e730000006044820152fd5b6111a693945033815280875281812054928152600787522054906112a2565b10155f808381611137565b865163391434e360e21b81526001600160a01b03919091166004820152602481019190915260448101849052606490fd5b60405163ec442f0560e01b81525f6004820152602490fd5b604051634b637e8f60e11b81525f6004820152602490fd5b9190820180921161121f57565b634e487b7160e01b5f52601160045260245ffd5b600260065414611244576002600655565b604051633ee5aeb560e01b8152600490fd5b1561125d57565b60405162461bcd60e51b815260206004820152601a60248201527f496e73756666696369656e74207374616b656420616d6f756e740000000000006044820152606490fd5b9190820391821161121f5756fea2646970667358221220efb4a6fa75a8476921de882130a1e996d5c7c1d72c06f37807518e3afd70d58d64736f6c634300081400332f8788117e7eff1d82e926ec794901d17c78024a50270940304540a733656f0d","linkReferences":{}},"methodIdentifiers":{"DEFAULT_ADMIN_ROLE()":"a217fddf","MAX_STAKE_AMOUNT()":"2f92f1f2","MINTER_ROLE()":"d5391393","MIN_STAKE_AMOUNT()":"27ed7188","VAULT_ROLE()":"98c4f1ac","allowance(address,address)":"dd62ed3e","approve(address,uint256)":"095ea7b3","balanceOf(address)":"70a08231","burn(address,uint256)":"9dc29fac","decimals()":"313ce567","getRoleAdmin(bytes32)":"248a9ca3","getStakedAmount(address)":"4da6a556","getStakingTime(address)":"c3122381","grantRole(bytes32,address)":"2f2ff15d","hasRole(bytes32,address)":"91d14854","isStaking(address)":"6f49712b","mint(address,uint256)":"40c10f19","name()":"06fdde03","renounceRole(bytes32,address)":"36568abe","revokeRole(bytes32,address)":"d547741f","stake(uint256)":"a694fc3a","stakedAmount(address)":"f9931855","stakingTime(address)":"583d42fd","supportsInterface(bytes4)":"01ffc9a7","symbol()":"95d89b41","totalStaked()":"817b1cd2","totalSupply()":"18160ddd","transfer(address,uint256)":"a9059cbb","transferFrom(address,address,uint256)":"23b872dd","transferStakedTokens(address,address,uint256)":"400296e0","unstake(uint256)":"2e17de78"},"id":11}