{
  "_format": "hh-sol-artifact-1",
  "contractName": "Login",
  "sourceName": "contracts/Login.sol",
  "abi": [
    {
      "inputs": [
        {
          "internalType": "address",
          "name": "_nftAddress",
          "type": "address"
        }
      ],
      "stateMutability": "nonpayable",
      "type": "constructor"
    },
    {
      "inputs": [
        {
          "internalType": "uint256",
          "name": "value",
          "type": "uint256"
        },
        {
          "internalType": "uint256",
          "name": "length",
          "type": "uint256"
        }
      ],
      "name": "StringsInsufficientHexLength",
      "type": "error"
    },
    {
      "inputs": [
        {
          "internalType": "string",
          "name": "_username",
          "type": "string"
        }
      ],
      "name": "getNft",
      "outputs": [],
      "stateMutability": "nonpayable",
      "type": "function"
    },
    {
      "inputs": [],
      "name": "getZxs",
      "outputs": [
        {
          "internalType": "uint256",
          "name": "",
          "type": "uint256"
        }
      ],
      "stateMutability": "view",
      "type": "function"
    },
    {
      "inputs": [
        {
          "internalType": "address",
          "name": "_address",
          "type": "address"
        }
      ],
      "name": "loginByAdd",
      "outputs": [
        {
          "components": [
            {
              "internalType": "string",
              "name": "username",
              "type": "string"
            },
            {
              "internalType": "string",
              "name": "password",
              "type": "string"
            },
            {
              "internalType": "string",
              "name": "imgipfs",
              "type": "string"
            },
            {
              "internalType": "string",
              "name": "otheripfs",
              "type": "string"
            },
            {
              "internalType": "address",
              "name": "addre",
              "type": "address"
            }
          ],
          "internalType": "struct Login.UserInfo",
          "name": "",
          "type": "tuple"
        }
      ],
      "stateMutability": "nonpayable",
      "type": "function"
    },
    {
      "inputs": [
        {
          "internalType": "string",
          "name": "_username",
          "type": "string"
        },
        {
          "internalType": "string",
          "name": "_password",
          "type": "string"
        }
      ],
      "name": "loginByUsername",
      "outputs": [
        {
          "components": [
            {
              "internalType": "string",
              "name": "username",
              "type": "string"
            },
            {
              "internalType": "string",
              "name": "password",
              "type": "string"
            },
            {
              "internalType": "string",
              "name": "imgipfs",
              "type": "string"
            },
            {
              "internalType": "string",
              "name": "otheripfs",
              "type": "string"
            },
            {
              "internalType": "address",
              "name": "addre",
              "type": "address"
            }
          ],
          "internalType": "struct Login.UserInfo",
          "name": "",
          "type": "tuple"
        }
      ],
      "stateMutability": "nonpayable",
      "type": "function"
    },
    {
      "inputs": [
        {
          "internalType": "string",
          "name": "_username",
          "type": "string"
        }
      ],
      "name": "logout",
      "outputs": [],
      "stateMutability": "nonpayable",
      "type": "function"
    },
    {
      "inputs": [],
      "name": "nftContract",
      "outputs": [
        {
          "internalType": "contract Nft",
          "name": "",
          "type": "address"
        }
      ],
      "stateMutability": "view",
      "type": "function"
    },
    {
      "inputs": [
        {
          "internalType": "string",
          "name": "_username",
          "type": "string"
        },
        {
          "internalType": "string",
          "name": "_password",
          "type": "string"
        },
        {
          "internalType": "string",
          "name": "_img",
          "type": "string"
        },
        {
          "internalType": "string",
          "name": "_other",
          "type": "string"
        }
      ],
      "name": "register",
      "outputs": [],
      "stateMutability": "nonpayable",
      "type": "function"
    },
    {
      "inputs": [],
      "name": "totalUsers",
      "outputs": [
        {
          "internalType": "uint256",
          "name": "",
          "type": "uint256"
        }
      ],
      "stateMutability": "view",
      "type": "function"
    }
  ],
  "bytecode": "0x60806040523480156200001157600080fd5b50604051620022c4380380620022c48339818101604052810190620000379190620000e9565b80600460006101000a81548173ffffffffffffffffffffffffffffffffffffffff021916908373ffffffffffffffffffffffffffffffffffffffff160217905550506200011b565b600080fd5b600073ffffffffffffffffffffffffffffffffffffffff82169050919050565b6000620000b18262000084565b9050919050565b620000c381620000a4565b8114620000cf57600080fd5b50565b600081519050620000e381620000b8565b92915050565b6000602082840312156200010257620001016200007f565b5b60006200011284828501620000d2565b91505092915050565b612199806200012b6000396000f3fe608060405234801561001057600080fd5b50600436106100885760003560e01c80634cbee8131161005b5780634cbee81314610125578063a2ee40f114610141578063bff1f9e11461015f578063d56d229d1461017d57610088565b80630e24c52c1461008d5780631b92f19b146100a95780633d05b572146100d95780633dd1765214610109575b600080fd5b6100a760048036038101906100a29190611426565b61019b565b005b6100c360048036038101906100be91906114fd565b6102b6565b6040516100d091906116c0565b60405180910390f35b6100f360048036038101906100ee919061170e565b610703565b60405161010091906116c0565b60405180910390f35b610123600480360381019061011e919061173b565b610bf5565b005b61013f600480360381019061013a919061173b565b610dfe565b005b610149610fab565b604051610156919061179d565b60405180910390f35b610167610fb8565b604051610174919061179d565b60405180910390f35b610185610fbe565b6040516101929190611817565b60405180910390f35b6040518060a001604052808581526020018481526020018381526020018281526020013373ffffffffffffffffffffffffffffffffffffffff168152506000856040516101e8919061186e565b9081526020016040518091039020600082015181600001908161020b9190611a87565b5060208201518160010190816102219190611a87565b5060408201518160020190816102379190611a87565b50606082015181600301908161024d9190611a87565b5060808201518160040160006101000a81548173ffffffffffffffffffffffffffffffffffffffff021916908373ffffffffffffffffffffffffffffffffffffffff160217905550905050600160008154809291906102ab90611b88565b919050555050505050565b6102be61122a565b600080846040516102cf919061186e565b908152602001604051809103902060000180546102eb906118b4565b90500361032d576040517f08c379a000000000000000000000000000000000000000000000000000000000815260040161032490611c2d565b60405180910390fd5b8160405160200161033e919061186e565b60405160208183030381529060405280519060200120600084604051610364919061186e565b90815260200160405180910390206001016040516020016103859190611cd0565b60405160208183030381529060405280519060200120146103db576040517f08c379a00000000000000000000000000000000000000000000000000000000081526004016103d290611d33565b60405180910390fd5b60016002846040516103ed919061186e565b9081526020016040518091039020819055506003839080600181540180825580915050600190039060005260206000200160009091909190915090816104339190611a87565b50600083604051610444919061186e565b90815260200160405180910390206040518060a001604052908160008201805461046d906118b4565b80601f0160208091040260200160405190810160405280929190818152602001828054610499906118b4565b80156104e65780601f106104bb576101008083540402835291602001916104e6565b820191906000526020600020905b8154815290600101906020018083116104c957829003601f168201915b505050505081526020016001820180546104ff906118b4565b80601f016020809104026020016040519081016040528092919081815260200182805461052b906118b4565b80156105785780601f1061054d57610100808354040283529160200191610578565b820191906000526020600020905b81548152906001019060200180831161055b57829003601f168201915b50505050508152602001600282018054610591906118b4565b80601f01602080910402602001604051908101604052809291908181526020018280546105bd906118b4565b801561060a5780601f106105df5761010080835404028352916020019161060a565b820191906000526020600020905b8154815290600101906020018083116105ed57829003601f168201915b50505050508152602001600382018054610623906118b4565b80601f016020809104026020016040519081016040528092919081815260200182805461064f906118b4565b801561069c5780601f106106715761010080835404028352916020019161069c565b820191906000526020600020905b81548152906001019060200180831161067f57829003601f168201915b505050505081526020016004820160009054906101000a900473ffffffffffffffffffffffffffffffffffffffff1673ffffffffffffffffffffffffffffffffffffffff1673ffffffffffffffffffffffffffffffffffffffff1681525050905092915050565b61070b61122a565b600061072e8373ffffffffffffffffffffffffffffffffffffffff166014610fe4565b905060008082604051610741919061186e565b9081526020016040518091039020600001805461075d906118b4565b9050036108cd576040518060a001604052808281526020016040518060400160405280600381526020017f313233000000000000000000000000000000000000000000000000000000000081525081526020016040518060200160405280600081525081526020016040518060200160405280600081525081526020013373ffffffffffffffffffffffffffffffffffffffff16815250600082604051610804919061186e565b908152602001604051809103902060008201518160000190816108279190611a87565b50602082015181600101908161083d9190611a87565b5060408201518160020190816108539190611a87565b5060608201518160030190816108699190611a87565b5060808201518160040160006101000a81548173ffffffffffffffffffffffffffffffffffffffff021916908373ffffffffffffffffffffffffffffffffffffffff160217905550905050600160008154809291906108c790611b88565b91905055505b60016002826040516108df919061186e565b9081526020016040518091039020819055506003819080600181540180825580915050600190039060005260206000200160009091909190915090816109259190611a87565b50600081604051610936919061186e565b90815260200160405180910390206040518060a001604052908160008201805461095f906118b4565b80601f016020809104026020016040519081016040528092919081815260200182805461098b906118b4565b80156109d85780601f106109ad576101008083540402835291602001916109d8565b820191906000526020600020905b8154815290600101906020018083116109bb57829003601f168201915b505050505081526020016001820180546109f1906118b4565b80601f0160208091040260200160405190810160405280929190818152602001828054610a1d906118b4565b8015610a6a5780601f10610a3f57610100808354040283529160200191610a6a565b820191906000526020600020905b815481529060010190602001808311610a4d57829003601f168201915b50505050508152602001600282018054610a83906118b4565b80601f0160208091040260200160405190810160405280929190818152602001828054610aaf906118b4565b8015610afc5780601f10610ad157610100808354040283529160200191610afc565b820191906000526020600020905b815481529060010190602001808311610adf57829003601f168201915b50505050508152602001600382018054610b15906118b4565b80601f0160208091040260200160405190810160405280929190818152602001828054610b41906118b4565b8015610b8e5780601f10610b6357610100808354040283529160200191610b8e565b820191906000526020600020905b815481529060010190602001808311610b7157829003601f168201915b505050505081526020016004820160009054906101000a900473ffffffffffffffffffffffffffffffffffffffff1673ffffffffffffffffffffffffffffffffffffffff1673ffffffffffffffffffffffffffffffffffffffff1681525050915050919050565b60008082604051610c06919061186e565b90815260200160405180910390206003018054610c22906118b4565b90501115610dfb57600460009054906101000a900473ffffffffffffffffffffffffffffffffffffffff1673ffffffffffffffffffffffffffffffffffffffff16638acae28e600083604051610c78919061186e565b908152602001604051809103902060040160009054906101000a900473ffffffffffffffffffffffffffffffffffffffff166040518263ffffffff1660e01b8152600401610cc69190611d62565b600060405180830381600087803b158015610ce057600080fd5b505af1158015610cf4573d6000803e3d6000fd5b50505050600460009054906101000a900473ffffffffffffffffffffffffffffffffffffffff1673ffffffffffffffffffffffffffffffffffffffff1663d204c45e600083604051610d46919061186e565b908152602001604051809103902060040160009054906101000a900473ffffffffffffffffffffffffffffffffffffffff16600084604051610d88919061186e565b90815260200160405180910390206003016040518363ffffffff1660e01b8152600401610db6929190611e01565b6020604051808303816000875af1158015610dd5573d6000803e3d6000fd5b505050506040513d601f19601f82011682018060405250810190610df99190611e5d565b505b50565b6001600282604051610e10919061186e565b90815260200160405180910390205414610e5f576040517f08c379a0000000000000000000000000000000000000000000000000000000008152600401610e5690611ed6565b60405180910390fd5b6000600282604051610e71919061186e565b90815260200160405180910390208190555060005b600380549050811015610fa65781604051602001610ea4919061186e565b6040516020818303038152906040528051906020012060038281548110610ece57610ecd611ef6565b5b90600052602060002001604051602001610ee89190611cd0565b6040516020818303038152906040528051906020012003610f935760036001600380549050610f179190611f25565b81548110610f2857610f27611ef6565b5b9060005260206000200160038281548110610f4657610f45611ef6565b5b906000526020600020019081610f5c9190611f84565b506003805480610f6f57610f6e61206c565b5b600190038181906000526020600020016000610f8b919061126f565b905550610fa8565b8080610f9e90611b88565b915050610e86565b505b50565b6000600380549050905090565b60015481565b600460009054906101000a900473ffffffffffffffffffffffffffffffffffffffff1681565b6060600083905060006002846002610ffc919061209b565b61100691906120dd565b67ffffffffffffffff81111561101f5761101e6112fb565b5b6040519080825280601f01601f1916602001820160405280156110515781602001600182028036833780820191505090505b5090507f30000000000000000000000000000000000000000000000000000000000000008160008151811061108957611088611ef6565b5b60200101907effffffffffffffffffffffffffffffffffffffffffffffffffffffffffffff1916908160001a9053507f7800000000000000000000000000000000000000000000000000000000000000816001815181106110ed576110ec611ef6565b5b60200101907effffffffffffffffffffffffffffffffffffffffffffffffffffffffffffff1916908160001a9053506000600185600261112d919061209b565b61113791906120dd565b90505b60018111156111d7577f3031323334353637383961626364656600000000000000000000000000000000600f84166010811061117957611178611ef6565b5b1a60f81b8282815181106111905761118f611ef6565b5b60200101907effffffffffffffffffffffffffffffffffffffffffffffffffffffffffffff1916908160001a905350600483901c9250806111d090612111565b905061113a565b506000821461121f5784846040517fe22e27eb00000000000000000000000000000000000000000000000000000000815260040161121692919061213a565b60405180910390fd5b809250505092915050565b6040518060a0016040528060608152602001606081526020016060815260200160608152602001600073ffffffffffffffffffffffffffffffffffffffff1681525090565b50805461127b906118b4565b6000825580601f1061128d57506112ac565b601f0160209004906000526020600020908101906112ab91906112af565b5b50565b5b808211156112c85760008160009055506001016112b0565b5090565b6000604051905090565b600080fd5b600080fd5b600080fd5b600080fd5b6000601f19601f8301169050919050565b7f4e487b7100000000000000000000000000000000000000000000000000000000600052604160045260246000fd5b611333826112ea565b810181811067ffffffffffffffff82111715611352576113516112fb565b5b80604052505050565b60006113656112cc565b9050611371828261132a565b919050565b600067ffffffffffffffff821115611391576113906112fb565b5b61139a826112ea565b9050602081019050919050565b82818337600083830152505050565b60006113c96113c484611376565b61135b565b9050828152602081018484840111156113e5576113e46112e5565b5b6113f08482856113a7565b509392505050565b600082601f83011261140d5761140c6112e0565b5b813561141d8482602086016113b6565b91505092915050565b600080600080608085870312156114405761143f6112d6565b5b600085013567ffffffffffffffff81111561145e5761145d6112db565b5b61146a878288016113f8565b945050602085013567ffffffffffffffff81111561148b5761148a6112db565b5b611497878288016113f8565b935050604085013567ffffffffffffffff8111156114b8576114b76112db565b5b6114c4878288016113f8565b925050606085013567ffffffffffffffff8111156114e5576114e46112db565b5b6114f1878288016113f8565b91505092959194509250565b60008060408385031215611514576115136112d6565b5b600083013567ffffffffffffffff811115611532576115316112db565b5b61153e858286016113f8565b925050602083013567ffffffffffffffff81111561155f5761155e6112db565b5b61156b858286016113f8565b9150509250929050565b600081519050919050565b600082825260208201905092915050565b60005b838110156115af578082015181840152602081019050611594565b60008484015250505050565b60006115c682611575565b6115d08185611580565b93506115e0818560208601611591565b6115e9816112ea565b840191505092915050565b600073ffffffffffffffffffffffffffffffffffffffff82169050919050565b600061161f826115f4565b9050919050565b61162f81611614565b82525050565b600060a083016000830151848203600086015261165282826115bb565b9150506020830151848203602086015261166c82826115bb565b9150506040830151848203604086015261168682826115bb565b915050606083015184820360608601526116a082826115bb565b91505060808301516116b56080860182611626565b508091505092915050565b600060208201905081810360008301526116da8184611635565b905092915050565b6116eb81611614565b81146116f657600080fd5b50565b600081359050611708816116e2565b92915050565b600060208284031215611724576117236112d6565b5b6000611732848285016116f9565b91505092915050565b600060208284031215611751576117506112d6565b5b600082013567ffffffffffffffff81111561176f5761176e6112db565b5b61177b848285016113f8565b91505092915050565b6000819050919050565b61179781611784565b82525050565b60006020820190506117b2600083018461178e565b92915050565b6000819050919050565b60006117dd6117d86117d3846115f4565b6117b8565b6115f4565b9050919050565b60006117ef826117c2565b9050919050565b6000611801826117e4565b9050919050565b611811816117f6565b82525050565b600060208201905061182c6000830184611808565b92915050565b600081905092915050565b600061184882611575565b6118528185611832565b9350611862818560208601611591565b80840191505092915050565b600061187a828461183d565b915081905092915050565b7f4e487b7100000000000000000000000000000000000000000000000000000000600052602260045260246000fd5b600060028204905060018216806118cc57607f821691505b6020821081036118df576118de611885565b5b50919050565b60008190508160005260206000209050919050565b60006020601f8301049050919050565b600082821b905092915050565b6000600883026119477fffffffffffffffffffffffffffffffffffffffffffffffffffffffffffffffff8261190a565b611951868361190a565b95508019841693508086168417925050509392505050565b600061198461197f61197a84611784565b6117b8565b611784565b9050919050565b6000819050919050565b61199e83611969565b6119b26119aa8261198b565b848454611917565b825550505050565b600090565b6119c76119ba565b6119d2818484611995565b505050565b5b818110156119f6576119eb6000826119bf565b6001810190506119d8565b5050565b601f821115611a3b57611a0c816118e5565b611a15846118fa565b81016020851015611a24578190505b611a38611a30856118fa565b8301826119d7565b50505b505050565b600082821c905092915050565b6000611a5e60001984600802611a40565b1980831691505092915050565b6000611a778383611a4d565b9150826002028217905092915050565b611a9082611575565b67ffffffffffffffff811115611aa957611aa86112fb565b5b611ab382546118b4565b611abe8282856119fa565b600060209050601f831160018114611af15760008415611adf578287015190505b611ae98582611a6b565b865550611b51565b601f198416611aff866118e5565b60005b82811015611b2757848901518255600182019150602085019450602081019050611b02565b86831015611b445784890151611b40601f891682611a4d565b8355505b6001600288020188555050505b505050505050565b7f4e487b7100000000000000000000000000000000000000000000000000000000600052601160045260246000fd5b6000611b9382611784565b91507fffffffffffffffffffffffffffffffffffffffffffffffffffffffffffffffff8203611bc557611bc4611b59565b5b600182019050919050565b600082825260208201905092915050565b7f546865207573657220686173206e6f7420726567697374657265640000000000600082015250565b6000611c17601b83611bd0565b9150611c2282611be1565b602082019050919050565b60006020820190508181036000830152611c4681611c0a565b9050919050565b60008154611c5a816118b4565b611c648186611832565b94506001821660008114611c7f5760018114611c9457611cc7565b60ff1983168652811515820286019350611cc7565b611c9d856118e5565b60005b83811015611cbf57815481890152600182019150602081019050611ca0565b838801955050505b50505092915050565b6000611cdc8284611c4d565b915081905092915050565b7f5468652070617373776f726420697320696e636f727265637400000000000000600082015250565b6000611d1d601983611bd0565b9150611d2882611ce7565b602082019050919050565b60006020820190508181036000830152611d4c81611d10565b9050919050565b611d5c81611614565b82525050565b6000602082019050611d776000830184611d53565b92915050565b60008154611d8a816118b4565b611d948186611bd0565b94506001821660008114611daf5760018114611dc557611df8565b60ff198316865281151560200286019350611df8565b611dce856118e5565b60005b83811015611df057815481890152600182019150602081019050611dd1565b808801955050505b50505092915050565b6000604082019050611e166000830185611d53565b8181036020830152611e288184611d7d565b90509392505050565b611e3a81611784565b8114611e4557600080fd5b50565b600081519050611e5781611e31565b92915050565b600060208284031215611e7357611e726112d6565b5b6000611e8184828501611e48565b91505092915050565b7f546865207573657220686173206e6f74206c6f6767656420696e000000000000600082015250565b6000611ec0601a83611bd0565b9150611ecb82611e8a565b602082019050919050565b60006020820190508181036000830152611eef81611eb3565b9050919050565b7f4e487b7100000000000000000000000000000000000000000000000000000000600052603260045260246000fd5b6000611f3082611784565b9150611f3b83611784565b9250828203905081811115611f5357611f52611b59565b5b92915050565b600081549050611f68816118b4565b9050919050565b60008190508160005260206000209050919050565b818103611f9257505061206a565b611f9b82611f59565b67ffffffffffffffff811115611fb457611fb36112fb565b5b611fbe82546118b4565b611fc98282856119fa565b6000601f831160018114611ff85760008415611fe6578287015490505b611ff08582611a6b565b865550612063565b601f19841661200687611f6f565b9650612011866118e5565b60005b8281101561203957848901548255600182019150600185019450602081019050612014565b868310156120565784890154612052601f891682611a4d565b8355505b6001600288020188555050505b5050505050505b565b7f4e487b7100000000000000000000000000000000000000000000000000000000600052603160045260246000fd5b60006120a682611784565b91506120b183611784565b92508282026120bf81611784565b915082820484148315176120d6576120d5611b59565b5b5092915050565b60006120e882611784565b91506120f383611784565b925082820190508082111561210b5761210a611b59565b5b92915050565b600061211c82611784565b91506000820361212f5761212e611b59565b5b600182039050919050565b600060408201905061214f600083018561178e565b61215c602083018461178e565b939250505056fea26469706673582212208f9d15f8ccc0961820be4392b14241f5c24b4c3c09527823d99f1d99df09e15864736f6c63430008140033",
  "linkReferences": {},
  "deployedLinkReferences": {}
}