{
  "contractName": "ReviewContract",
  "abi": [
    {
      "anonymous": false,
      "inputs": [
        {
          "indexed": true,
          "internalType": "address",
          "name": "owner",
          "type": "address"
        },
        {
          "indexed": false,
          "internalType": "uint256",
          "name": "reviewId",
          "type": "uint256"
        }
      ],
      "name": "AddReview",
      "type": "event"
    },
    {
      "anonymous": false,
      "inputs": [
        {
          "indexed": false,
          "internalType": "uint256",
          "name": "reviewId",
          "type": "uint256"
        },
        {
          "indexed": false,
          "internalType": "string",
          "name": "message",
          "type": "string"
        }
      ],
      "name": "ControversialReview",
      "type": "event"
    },
    {
      "anonymous": false,
      "inputs": [
        {
          "indexed": false,
          "internalType": "uint256",
          "name": "reviewId",
          "type": "uint256"
        },
        {
          "indexed": false,
          "internalType": "bool",
          "name": "isDeleted",
          "type": "bool"
        }
      ],
      "name": "DeleteReview",
      "type": "event"
    },
    {
      "anonymous": false,
      "inputs": [
        {
          "indexed": false,
          "internalType": "uint256",
          "name": "reviewId",
          "type": "uint256"
        },
        {
          "indexed": false,
          "internalType": "address",
          "name": "recipient",
          "type": "address"
        }
      ],
      "name": "RewardGiven",
      "type": "event"
    },
    {
      "anonymous": false,
      "inputs": [
        {
          "indexed": false,
          "internalType": "uint256",
          "name": "reviewId",
          "type": "uint256"
        },
        {
          "indexed": false,
          "internalType": "address",
          "name": "voter",
          "type": "address"
        },
        {
          "indexed": false,
          "internalType": "bool",
          "name": "isUpvote",
          "type": "bool"
        }
      ],
      "name": "Vote",
      "type": "event"
    },
    {
      "inputs": [],
      "name": "CONTROVERSIAL_THRESHOLD",
      "outputs": [
        {
          "internalType": "uint256",
          "name": "",
          "type": "uint256"
        }
      ],
      "stateMutability": "view",
      "type": "function",
      "constant": true
    },
    {
      "inputs": [],
      "name": "REWARD_THRESHOLD",
      "outputs": [
        {
          "internalType": "uint256",
          "name": "",
          "type": "uint256"
        }
      ],
      "stateMutability": "view",
      "type": "function",
      "constant": true
    },
    {
      "inputs": [
        {
          "internalType": "string",
          "name": "_bookId",
          "type": "string"
        },
        {
          "internalType": "string",
          "name": "_comment",
          "type": "string"
        }
      ],
      "name": "addReview",
      "outputs": [],
      "stateMutability": "nonpayable",
      "type": "function"
    },
    {
      "inputs": [],
      "name": "getMyReviews",
      "outputs": [
        {
          "components": [
            {
              "internalType": "uint256",
              "name": "id",
              "type": "uint256"
            },
            {
              "internalType": "string",
              "name": "bookId",
              "type": "string"
            },
            {
              "internalType": "string",
              "name": "comment",
              "type": "string"
            },
            {
              "internalType": "bool",
              "name": "isDeleted",
              "type": "bool"
            },
            {
              "internalType": "uint256",
              "name": "upvotes",
              "type": "uint256"
            },
            {
              "internalType": "uint256",
              "name": "downvotes",
              "type": "uint256"
            },
            {
              "internalType": "bool",
              "name": "rewarded",
              "type": "bool"
            }
          ],
          "internalType": "struct ReviewContract.Review[]",
          "name": "",
          "type": "tuple[]"
        }
      ],
      "stateMutability": "view",
      "type": "function",
      "constant": true
    },
    {
      "inputs": [
        {
          "internalType": "string",
          "name": "_bookId",
          "type": "string"
        }
      ],
      "name": "getReviewsByBook",
      "outputs": [
        {
          "components": [
            {
              "internalType": "uint256",
              "name": "id",
              "type": "uint256"
            },
            {
              "internalType": "string",
              "name": "bookId",
              "type": "string"
            },
            {
              "internalType": "string",
              "name": "comment",
              "type": "string"
            },
            {
              "internalType": "bool",
              "name": "isDeleted",
              "type": "bool"
            },
            {
              "internalType": "uint256",
              "name": "upvotes",
              "type": "uint256"
            },
            {
              "internalType": "uint256",
              "name": "downvotes",
              "type": "uint256"
            },
            {
              "internalType": "bool",
              "name": "rewarded",
              "type": "bool"
            }
          ],
          "internalType": "struct ReviewContract.Review[]",
          "name": "",
          "type": "tuple[]"
        }
      ],
      "stateMutability": "view",
      "type": "function",
      "constant": true
    },
    {
      "inputs": [
        {
          "internalType": "uint256",
          "name": "_reviewId",
          "type": "uint256"
        }
      ],
      "name": "deleteReview",
      "outputs": [],
      "stateMutability": "nonpayable",
      "type": "function"
    },
    {
      "inputs": [
        {
          "internalType": "uint256",
          "name": "_reviewId",
          "type": "uint256"
        },
        {
          "internalType": "bool",
          "name": "_isUpvote",
          "type": "bool"
        }
      ],
      "name": "vote",
      "outputs": [],
      "stateMutability": "nonpayable",
      "type": "function"
    }
  ],
  "bytecode": "0x608060405234801561000f575f80fd5b506113978061001d5f395ff3fe608060405234801561000f575f80fd5b506004361061007a575f3560e01c8063c9d27afe11610058578063c9d27afe146100d2578063d71e4890146100e5578063e7bdba32146100f8578063ef1b655314610100575f80fd5b80632f7c30df1461007e578063adb489a3146100a7578063c43b489a146100bc575b5f80fd5b61009161008c366004610e89565b610108565b60405161009e9190610f08565b60405180910390f35b6100ba6100b5366004610fc3565b6103ee565b005b6100c4600381565b60405190815260200161009e565b6100ba6100e0366004611023565b610548565b6100ba6100f3366004611055565b6106fe565b6100c4600581565b6100916107cc565b5f80546060919067ffffffffffffffff81111561012757610127610dec565b60405190808252806020026020018201604052801561016057816020015b61014d610db0565b8152602001906001900390816101455790505b5090505f805b5f548110156103db5784604051602001610180919061106c565b604051602081830303815290604052805190602001205f82815481106101a8576101a8611087565b905f5260205f2090600702016001016040516020016101c791906110d3565b6040516020818303038152906040528051906020012014801561020f57505f81815481106101f7576101f7611087565b5f91825260209091206003600790920201015460ff16155b156103c9575f818154811061022657610226611087565b905f5260205f2090600702016040518060e00160405290815f82015481526020016001820180546102569061109b565b80601f01602080910402602001604051908101604052809291908181526020018280546102829061109b565b80156102cd5780601f106102a4576101008083540402835291602001916102cd565b820191905f5260205f20905b8154815290600101906020018083116102b057829003601f168201915b505050505081526020016002820180546102e69061109b565b80601f01602080910402602001604051908101604052809291908181526020018280546103129061109b565b801561035d5780601f106103345761010080835404028352916020019161035d565b820191905f5260205f20905b81548152906001019060200180831161034057829003601f168201915b5050509183525050600382015460ff908116151560208301526004830154604083015260058301546060830152600690920154909116151560809091015283518490849081106103af576103af611087565b602002602001018190525081806103c590611159565b9250505b806103d381611159565b915050610166565b506103e682826107dc565b949350505050565b5f80546040805160e08101825282815260208101868152918101859052606081018490526080810184905260a0810184905260c081018490526001830184559280528251600783027f290decd9548b62a8d60345a988386fc84ba6bc95484008f6362f93160ef3e5638101918255915192939290917f290decd9548b62a8d60345a988386fc84ba6bc95484008f6362f93160ef3e564019061049090826111bf565b50604082015160028201906104a590826111bf565b50606082015160038201805491151560ff199283161790556080830151600483015560a0830151600583015560c09092015160069091018054911515919092161790555f818152600160205260409081902080546001600160a01b0319163390811790915590517fc3fb13b1a473887d16042fc443fa990df8eead1b2f1714d77d4325a1d8eac9219061053b9084815260200190565b60405180910390a2505050565b5f828154811061055a5761055a611087565b5f91825260209091206003600790920201015460ff16156105b35760405162461bcd60e51b815260206004820152600e60248201526d14995d9a595dc819195b195d195960921b60448201526064015b60405180910390fd5b5f82815260016020526040902054336001600160a01b03909116036106115760405162461bcd60e51b815260206004820152601460248201527321b0b73737ba103b37ba32903cb7bab91037bbb760611b60448201526064016105aa565b5f8281526002602090815260408083203384529091529020805460ff191660011790558015610673575f828154811061064c5761064c611087565b5f9182526020822060046007909202010180549161066983611159565b91905055506106a8565b5f828154811061068557610685611087565b5f918252602082206005600790920201018054916106a283611159565b91905055505b604080518381523360208201528215158183015290517fcfa82ef0390c8f3e57ebe6c0665352a383667e792af012d350d9786ee5173d269181900360600190a16106f182610895565b6106fa82610977565b5050565b5f818152600160205260409020546001600160a01b031633146107555760405162461bcd60e51b815260206004820152600f60248201526e4e6f7420796f75722072657669657760881b60448201526064016105aa565b60015f828154811061076957610769611087565b5f91825260209182902060079190910201600301805460ff191692151592909217909155604080518381526001928101929092527f2c94a8d907f40ea0f7e350ed38f098f6bb72a29e6dc287fcbb3faa2f185ca17c91015b60405180910390a150565b60606107d733610a33565b905090565b60605f8267ffffffffffffffff8111156107f8576107f8610dec565b60405190808252806020026020018201604052801561083157816020015b61081e610db0565b8152602001906001900390816108165790505b5090505f5b838110156108885784818151811061085057610850611087565b602002602001015182828151811061086a5761086a611087565b6020026020010181905250808061088090611159565b915050610836565b5090505b92915050565b50565b60055f82815481106108a9576108a9611087565b905f5260205f20906007020160040154101580156108ec57505f81815481106108d4576108d4611087565b5f91825260209091206006600790920201015460ff16155b156108925760015f828154811061090557610905611087565b5f9182526020808320600792909202909101600601805460ff191693151593909317909255828152600182526040908190205481518481526001600160a01b03909116928101929092527f8ac390295f3329c5d1ac421a519e18135f2eb94a18e31c53ac0ab95e15266f0191016107c1565b60035f828154811061098b5761098b611087565b905f5260205f2090600702016005015410610892575f6109aa82610cb3565b6109d45f84815481106109bf576109bf611087565b905f5260205f20906007020160050154610cb3565b6040516020016109e592919061127b565b60405160208183030381529060405290507fb0603476f6e2aa97d1fe7e67a6b5d13e9ee367479df9d70f33ad7859699ab0ab8282604051610a279291906112e9565b60405180910390a15050565b5f80546060919067ffffffffffffffff811115610a5257610a52610dec565b604051908082528060200260200182016040528015610a8b57816020015b610a78610db0565b815260200190600190039081610a705790505b5090505f805b5f548110156103db575f818152600160205260409020546001600160a01b038681169116148015610ae757505f8181548110610acf57610acf611087565b5f91825260209091206003600790920201015460ff16155b15610ca1575f8181548110610afe57610afe611087565b905f5260205f2090600702016040518060e00160405290815f8201548152602001600182018054610b2e9061109b565b80601f0160208091040260200160405190810160405280929190818152602001828054610b5a9061109b565b8015610ba55780601f10610b7c57610100808354040283529160200191610ba5565b820191905f5260205f20905b815481529060010190602001808311610b8857829003601f168201915b50505050508152602001600282018054610bbe9061109b565b80601f0160208091040260200160405190810160405280929190818152602001828054610bea9061109b565b8015610c355780601f10610c0c57610100808354040283529160200191610c35565b820191905f5260205f20905b815481529060010190602001808311610c1857829003601f168201915b5050509183525050600382015460ff90811615156020830152600483015460408301526005830154606083015260069092015490911615156080909101528351849084908110610c8757610c87611087565b60200260200101819052508180610c9d90611159565b9250505b80610cab81611159565b915050610a91565b6060815f03610cd95750506040805180820190915260018152600360fc1b602082015290565b815f5b8115610d025780610cec81611159565b9150610cfb9050600a83611315565b9150610cdc565b5f8167ffffffffffffffff811115610d1c57610d1c610dec565b6040519080825280601f01601f191660200182016040528015610d46576020820181803683370190505b5090505b84156103e657610d5b600183611328565b9150610d68600a8661133b565b610d7390603061134e565b60f81b818381518110610d8857610d88611087565b60200101906001600160f81b03191690815f1a905350610da9600a86611315565b9450610d4a565b6040518060e001604052805f815260200160608152602001606081526020015f151581526020015f81526020015f81526020015f151581525090565b634e487b7160e01b5f52604160045260245ffd5b5f82601f830112610e0f575f80fd5b813567ffffffffffffffff80821115610e2a57610e2a610dec565b604051601f8301601f19908116603f01168101908282118183101715610e5257610e52610dec565b81604052838152866020858801011115610e6a575f80fd5b836020870160208301375f602085830101528094505050505092915050565b5f60208284031215610e99575f80fd5b813567ffffffffffffffff811115610eaf575f80fd5b6103e684828501610e00565b5f5b83811015610ed5578181015183820152602001610ebd565b50505f910152565b5f8151808452610ef4816020860160208601610ebb565b601f01601f19169290920160200192915050565b5f6020808301818452808551808352604092508286019150828160051b8701018488015f5b83811015610fb557603f19898403018552815160e08151855288820151818a870152610f5b82870182610edd565b9150508782015185820389870152610f738282610edd565b6060848101511515908801526080808501519088015260a0808501519088015260c0938401511515939096019290925250509386019390860190600101610f2d565b509098975050505050505050565b5f8060408385031215610fd4575f80fd5b823567ffffffffffffffff80821115610feb575f80fd5b610ff786838701610e00565b9350602085013591508082111561100c575f80fd5b5061101985828601610e00565b9150509250929050565b5f8060408385031215611034575f80fd5b823591506020830135801515811461104a575f80fd5b809150509250929050565b5f60208284031215611065575f80fd5b5035919050565b5f825161107d818460208701610ebb565b9190910192915050565b634e487b7160e01b5f52603260045260245ffd5b600181811c908216806110af57607f821691505b6020821081036110cd57634e487b7160e01b5f52602260045260245ffd5b50919050565b5f8083546110e08161109b565b600182811680156110f8576001811461110d57611139565b60ff1984168752821515830287019450611139565b875f526020805f205f5b858110156111305781548a820152908401908201611117565b50505082870194505b50929695505050505050565b634e487b7160e01b5f52601160045260245ffd5b5f6001820161116a5761116a611145565b5060010190565b601f8211156111ba575f81815260208120601f850160051c810160208610156111975750805b601f850160051c820191505b818110156111b6578281556001016111a3565b5050505b505050565b815167ffffffffffffffff8111156111d9576111d9610dec565b6111ed816111e7845461109b565b84611171565b602080601f831160018114611220575f84156112095750858301515b5f19600386901b1c1916600185901b1785556111b6565b5f85815260208120601f198616915b8281101561124e5788860151825594840194600190910190840161122f565b508582101561126b57878501515f19600388901b60f8161c191681555b5050505050600190811b01905550565b7f436f6e74726f7665727369616c207265766965772049443a000000000000000081525f83516112b2816018850160208801610ebb565b6a102237bbb73b37ba32b99d60a91b60189184019182015283516112dd816023840160208801610ebb565b01602301949350505050565b828152604060208201525f6103e66040830184610edd565b634e487b7160e01b5f52601260045260245ffd5b5f8261132357611323611301565b500490565b8181038181111561088c5761088c611145565b5f8261134957611349611301565b500690565b8082018082111561088c5761088c61114556fea26469706673582212204a804f068df94b0ac27dbef3d1e61be57e4664f99b7448d117b54855b184639c64736f6c63430008150033",
  "immutableReferences": {},
  "source": "// SPDX-License-Identifier: MIT\n/**\n    \n */\n\npragma solidity ^0.8.15;\n\ncontract ReviewContract {\n    // \n    event AddReview(address indexed owner, uint reviewId);\n    event DeleteReview(uint reviewId, bool isDeleted);\n    event Vote(uint reviewId, address voter, bool isUpvote);\n    event RewardGiven(uint reviewId, address recipient);\n    event ControversialReview(uint reviewId, string message);\n    \n    // \n    struct Review {\n        uint id;\n        string bookId;       // ID\n        string comment;      // \n        bool isDeleted;      // \n        uint upvotes;        // \n        uint downvotes;      // \n        bool rewarded;       // \n    }\n\n    // \n    Review[] private reviews;\n    mapping(uint => address) private reviewToOwner;         // ID  \n    mapping(uint => mapping(address => bool)) private votes; // \n    \n    // \n    uint public constant REWARD_THRESHOLD = 5;    // \n    uint public constant CONTROVERSIAL_THRESHOLD = 3; // \n    \n    // \n    function addReview(string memory _bookId, string memory _comment) external {\n        uint reviewId = reviews.length;\n        reviews.push(Review({\n            id: reviewId,\n            bookId: _bookId,\n            comment: _comment,\n            isDeleted: false,\n            upvotes: 0,\n            downvotes: 0,\n            rewarded: false\n        }));\n        reviewToOwner[reviewId] = msg.sender;\n        emit AddReview(msg.sender, reviewId);\n    }\n    \n    // \n    function getMyReviews() external view returns (Review[] memory) {\n        return _getReviewsByOwner(msg.sender);\n    }\n    \n    // \n    function getReviewsByBook(string memory _bookId) external view returns (Review[] memory) {\n        Review[] memory result = new Review[](reviews.length);\n        uint counter = 0;\n        \n        for (uint i = 0; i < reviews.length; i++) {\n            if (keccak256(abi.encodePacked(reviews[i].bookId)) == \n                keccak256(abi.encodePacked(_bookId)) && \n                !reviews[i].isDeleted) {\n                result[counter] = reviews[i];\n                counter++;\n            }\n        }\n        \n        return _resizeArray(result, counter);\n    }\n    \n    // \n    function deleteReview(uint _reviewId) external {\n        require(reviewToOwner[_reviewId] == msg.sender, \"Not your review\");\n        reviews[_reviewId].isDeleted = true;\n        emit DeleteReview(_reviewId, true);\n    }\n    \n    // \n    function vote(uint _reviewId, bool _isUpvote) external {\n        require(!reviews[_reviewId].isDeleted, \"Review deleted\");\n        require(reviewToOwner[_reviewId] != msg.sender, \"Cannot vote your own\");\n        \n        // \n        if (votes[_reviewId][msg.sender]) {\n            _undoPreviousVote(_reviewId);\n        }\n        \n        // \n        votes[_reviewId][msg.sender] = true;\n        \n        // \n        if (_isUpvote) {\n            reviews[_reviewId].upvotes++;\n        } else {\n            reviews[_reviewId].downvotes++;\n        }\n        \n        emit Vote(_reviewId, msg.sender, _isUpvote);\n        \n        // \n        _checkReward(_reviewId);\n        \n        // \n        _checkControversial(_reviewId);\n    }\n    \n    // =====  =====\n    function _getReviewsByOwner(address _owner) private view returns (Review[] memory) {\n        Review[] memory result = new Review[](reviews.length);\n        uint counter = 0;\n        \n        for (uint i = 0; i < reviews.length; i++) {\n            if (reviewToOwner[i] == _owner && !reviews[i].isDeleted) {\n                result[counter] = reviews[i];\n                counter++;\n            }\n        }\n        \n        return _resizeArray(result, counter);\n    }\n    \n    function _resizeArray(Review[] memory _arr, uint _length) private pure returns (Review[] memory) {\n        Review[] memory result = new Review[](_length);\n        for (uint i = 0; i < _length; i++) {\n            result[i] = _arr[i];\n        }\n        return result;\n    }\n    \n    function _undoPreviousVote(uint _reviewId) private {\n        // \n        // \n        // \n    }\n    \n    function _checkReward(uint _reviewId) private {\n        if (reviews[_reviewId].upvotes >= REWARD_THRESHOLD && \n            !reviews[_reviewId].rewarded) {\n            reviews[_reviewId].rewarded = true;\n            // /NFT\n            emit RewardGiven(_reviewId, reviewToOwner[_reviewId]);\n        }\n    }\n    \n    function _checkControversial(uint _reviewId) private {\n        if (reviews[_reviewId].downvotes >= CONTROVERSIAL_THRESHOLD) {\n            string memory message = string(abi.encodePacked(\n                \"Controversial review ID:\",\n                _uintToString(_reviewId),\n                \" Downvotes:\",\n                _uintToString(reviews[_reviewId].downvotes)\n            ));\n            emit ControversialReview(_reviewId, message);\n        }\n    }\n    \n    // uintstring\n    function _uintToString(uint _value) private pure returns (string memory) {\n        if (_value == 0) return \"0\";\n        uint temp = _value;\n        uint digits;\n        while (temp != 0) {\n            digits++;\n            temp /= 10;\n        }\n        bytes memory buffer = new bytes(digits);\n        while (_value != 0) {\n            digits -= 1;\n            buffer[digits] = bytes1(uint8(48 + _value % 10));\n            _value /= 10;\n        }\n        return string(buffer);\n    }\n}\n",
  "sourcePath": "/Users/hejingping/Desktop/webProject/book-review-solidity/backend/contracts/ReviewContract.sol",
  "compiler": {
    "name": "solc",
    "version": "0.8.21+commit.d9974bed.Emscripten.clang"
  },
  "schemaVersion": "3.4.16",
  "updatedAt": "2025-08-23T11:25:15.142Z",
  "networkType": "ethereum",
  "devdoc": {
    "kind": "dev",
    "methods": {},
    "version": 1
  },
  "userdoc": {
    "kind": "user",
    "methods": {},
    "version": 1
  }
}