{
  "contractName": "TaskContract",
  "abi": [
    {
      "anonymous": false,
      "inputs": [
        {
          "indexed": false,
          "internalType": "address",
          "name": "recipient",
          "type": "address"
        },
        {
          "indexed": false,
          "internalType": "uint256",
          "name": "taskId",
          "type": "uint256"
        }
      ],
      "name": "AddTask",
      "type": "event"
    },
    {
      "anonymous": false,
      "inputs": [
        {
          "indexed": false,
          "internalType": "uint256",
          "name": "taskId",
          "type": "uint256"
        },
        {
          "indexed": false,
          "internalType": "bool",
          "name": "isDeleted",
          "type": "bool"
        }
      ],
      "name": "DeleteTask",
      "type": "event"
    },
    {
      "inputs": [
        {
          "internalType": "string",
          "name": "taskText",
          "type": "string"
        },
        {
          "internalType": "bool",
          "name": "isDeleted",
          "type": "bool"
        }
      ],
      "name": "addTask",
      "outputs": [],
      "stateMutability": "nonpayable",
      "type": "function"
    },
    {
      "inputs": [],
      "name": "getMyTasks",
      "outputs": [
        {
          "components": [
            {
              "internalType": "uint256",
              "name": "id",
              "type": "uint256"
            },
            {
              "internalType": "string",
              "name": "taskText",
              "type": "string"
            },
            {
              "internalType": "bool",
              "name": "isDeleted",
              "type": "bool"
            }
          ],
          "internalType": "struct TaskContract.Task[]",
          "name": "",
          "type": "tuple[]"
        }
      ],
      "stateMutability": "view",
      "type": "function"
    },
    {
      "inputs": [
        {
          "internalType": "uint256",
          "name": "taskId",
          "type": "uint256"
        },
        {
          "internalType": "bool",
          "name": "isDeleted",
          "type": "bool"
        }
      ],
      "name": "deleteTask",
      "outputs": [],
      "stateMutability": "nonpayable",
      "type": "function"
    }
  ],
  "bytecode": "0x608060405234801561000f575f80fd5b506108538061001d5f395ff3fe608060405234801561000f575f80fd5b506004361061003f575f3560e01c806320df4581146100435780636e13f81814610058578063aaba290714610076575b5f80fd5b610056610051366004610509565b610089565b005b61006061018d565b60405161006d91906105c5565b60405180910390f35b610056610084366004610682565b610441565b5f80546040805160608101825282815260208101868152851515928201929092526001830184559280528251600383027f290decd9548b62a8d60345a988386fc84ba6bc95484008f6362f93160ef3e5638101918255915192939290917f290decd9548b62a8d60345a988386fc84ba6bc95484008f6362f93160ef3e56401906101139082610729565b50604091820151600291909101805460ff19169115159190911790555f82815260016020908152908290208054336001600160a01b0319909116811790915582519081529081018390527f1f54e1ba1832d428fbd7e7792beaf62b1fc5a382c207ffd614209c1413e94fda910160405180910390a1505050565b5f80546060919067ffffffffffffffff8111156101ac576101ac6104e1565b60405190808252806020026020018201604052801561020157816020015b6101ee60405180606001604052805f8152602001606081526020015f151581525090565b8152602001906001900390816101ca5790505b5090505f805b5f54811015610372575f818152600160205260409020546001600160a01b03163314801561025a57505f8181548110610242576102426107e5565b5f91825260209091206002600390920201015460ff16155b15610360575f8181548110610271576102716107e5565b905f5260205f2090600302016040518060600160405290815f82015481526020016001820180546102a1906106a3565b80601f01602080910402602001604051908101604052809291908181526020018280546102cd906106a3565b80156103185780601f106102ef57610100808354040283529160200191610318565b820191905f5260205f20905b8154815290600101906020018083116102fb57829003601f168201915b50505091835250506002919091015460ff1615156020909101528351849084908110610346576103466107e5565b6020026020010181905250818061035c906107f9565b9250505b8061036a816107f9565b915050610207565b505f8167ffffffffffffffff81111561038d5761038d6104e1565b6040519080825280602002602001820160405280156103e257816020015b6103cf60405180606001604052805f8152602001606081526020015f151581525090565b8152602001906001900390816103ab5790505b5090505f5b8281101561043957838181518110610401576104016107e5565b602002602001015182828151811061041b5761041b6107e5565b60200260200101819052508080610431906107f9565b9150506103e7565b509392505050565b5f82815260016020526040902054336001600160a01b03909116036104dd57805f8381548110610473576104736107e5565b905f5260205f2090600302016002015f6101000a81548160ff0219169083151502179055507ff88a35c3d2016c409a46570b994a17b408dbc83c14a03f521512d50b85386d0682826040516104d49291909182521515602082015260400190565b60405180910390a15b5050565b634e487b7160e01b5f52604160045260245ffd5b80358015158114610504575f80fd5b919050565b5f806040838503121561051a575f80fd5b823567ffffffffffffffff80821115610531575f80fd5b818501915085601f830112610544575f80fd5b813581811115610556576105566104e1565b604051601f8201601f19908116603f0116810190838211818310171561057e5761057e6104e1565b81604052828152886020848701011115610596575f80fd5b826020860160208301375f6020848301015280965050505050506105bc602084016104f5565b90509250929050565b5f6020808301818452808551808352604092508286019150828160051b8701018488015f805b8481101561067357603f198a8503018652825160608151865289820151818b880152805180838901528592505b80831015610636578183018c015188840160800152918b0191610618565b608092508583828a0101528a84015193506106548b89018515159052565b988b0198601f01601f19169690960101945050918701916001016105eb565b50919998505050505050505050565b5f8060408385031215610693575f80fd5b823591506105bc602084016104f5565b600181811c908216806106b757607f821691505b6020821081036106d557634e487b7160e01b5f52602260045260245ffd5b50919050565b601f821115610724575f81815260208120601f850160051c810160208610156107015750805b601f850160051c820191505b818110156107205782815560010161070d565b5050505b505050565b815167ffffffffffffffff811115610743576107436104e1565b6107578161075184546106a3565b846106db565b602080601f83116001811461078a575f84156107735750858301515b5f19600386901b1c1916600185901b178555610720565b5f85815260208120601f198616915b828110156107b857888601518255948401946001909101908401610799565b50858210156107d557878501515f19600388901b60f8161c191681555b5050505050600190811b01905550565b634e487b7160e01b5f52603260045260245ffd5b5f6001820161081657634e487b7160e01b5f52601160045260245ffd5b506001019056fea26469706673582212204aef8f563f04b03ca39ca66b3140a9d0807e1e1daa6f8fde485ba73fa56de72064736f6c63430008150033",
  "immutableReferences": {},
  "source": "// SPDX-License-Identifier: MIT\npragma solidity ^0.8.15;\n\n// task:{ id: 0, taskText: 'clean', isDeleted: false }, \n// DEPLOYED Contract Address\n// ABI \n\n\ncontract TaskContract {\n    event AddTask(address recipient, uint taskId);\n    event DeleteTask(uint taskId, bool isDeleted);\n\n    struct Task {\n        uint id;\n        string taskText;\n        bool isDeleted;\n    }\n\n    Task[] private tasks;\n    mapping(uint256 => address) taskToOwner;\n    // {0: '0x123124124...'}\n    // {1: '0xabc124124...'}\n\n    function addTask(string memory taskText, bool isDeleted) external {\n        uint taskId = tasks.length;\n        tasks.push(Task(taskId, taskText, isDeleted));\n        taskToOwner[taskId] = msg.sender;\n        emit AddTask(msg.sender, taskId);\n    }\n\n    // get tasks that are mine and not deleted\n    function getMyTasks() external view returns (Task[] memory) {\n        Task[] memory temporary = new Task[](tasks.length);\n        uint counter = 0;\n\n        // temporary [{taskText:\"hello\", isDeleted:false}, empty]\n        for (uint i=0; i < tasks.length; i++) {\n        if (taskToOwner[i] == msg.sender && tasks[i].isDeleted == false) {\n            temporary[counter] = tasks[i];\n            counter++;\n        }\n        }\n\n        // Resize the temporary array to fit the actual number of tasks\n        Task[] memory result = new Task[](counter);\n        for (uint i = 0; i < counter; i++) {\n        result[i] = temporary[i];\n        }\n        return result;\n    }\n\n    function deleteTask(uint taskId, bool isDeleted) external {\n        if(taskToOwner[taskId] == msg.sender){ \n        tasks[taskId].isDeleted = isDeleted;\n        emit DeleteTask(taskId, isDeleted);\n        }\n    }\n\n}",
  "sourcePath": "/Users/hejingping/Desktop/webProject/book-review-solidity/backend/contracts/TaskContract.sol",
  "compiler": {
    "name": "solc",
    "version": "0.8.21+commit.d9974bed.Emscripten.clang"
  },
  "schemaVersion": "3.4.16",
  "updatedAt": "2025-08-23T11:24:08.121Z",
  "devdoc": {
    "kind": "dev",
    "methods": {},
    "version": 1
  },
  "userdoc": {
    "kind": "user",
    "methods": {},
    "version": 1
  }
}