{
  "_format": "hh-sol-artifact-1",
  "contractName": "MemoryFragments",
  "sourceName": "contracts/MemoryFragments.sol",
  "abi": [
    {
      "inputs": [],
      "stateMutability": "nonpayable",
      "type": "constructor"
    },
    {
      "anonymous": false,
      "inputs": [
        {
          "indexed": true,
          "internalType": "address",
          "name": "owner",
          "type": "address"
        },
        {
          "indexed": true,
          "internalType": "address",
          "name": "approved",
          "type": "address"
        },
        {
          "indexed": true,
          "internalType": "uint256",
          "name": "tokenId",
          "type": "uint256"
        }
      ],
      "name": "Approval",
      "type": "event"
    },
    {
      "anonymous": false,
      "inputs": [
        {
          "indexed": true,
          "internalType": "address",
          "name": "owner",
          "type": "address"
        },
        {
          "indexed": true,
          "internalType": "address",
          "name": "operator",
          "type": "address"
        },
        {
          "indexed": false,
          "internalType": "bool",
          "name": "approved",
          "type": "bool"
        }
      ],
      "name": "ApprovalForAll",
      "type": "event"
    },
    {
      "anonymous": false,
      "inputs": [
        {
          "indexed": false,
          "internalType": "uint256",
          "name": "_fromTokenId",
          "type": "uint256"
        },
        {
          "indexed": false,
          "internalType": "uint256",
          "name": "_toTokenId",
          "type": "uint256"
        }
      ],
      "name": "BatchMetadataUpdate",
      "type": "event"
    },
    {
      "anonymous": false,
      "inputs": [
        {
          "indexed": true,
          "internalType": "uint256",
          "name": "fragmentId",
          "type": "uint256"
        },
        {
          "indexed": false,
          "internalType": "address",
          "name": "reporter",
          "type": "address"
        }
      ],
      "name": "FragmentReported",
      "type": "event"
    },
    {
      "anonymous": false,
      "inputs": [
        {
          "indexed": true,
          "internalType": "uint256",
          "name": "fragmentId",
          "type": "uint256"
        },
        {
          "indexed": true,
          "internalType": "address",
          "name": "owner",
          "type": "address"
        },
        {
          "indexed": false,
          "internalType": "uint256",
          "name": "qualityScore",
          "type": "uint256"
        },
        {
          "indexed": false,
          "internalType": "uint256",
          "name": "stakeAmount",
          "type": "uint256"
        }
      ],
      "name": "FragmentUploaded",
      "type": "event"
    },
    {
      "anonymous": false,
      "inputs": [
        {
          "indexed": true,
          "internalType": "uint256",
          "name": "fragmentId",
          "type": "uint256"
        },
        {
          "indexed": false,
          "internalType": "bool",
          "name": "isValid",
          "type": "bool"
        }
      ],
      "name": "FragmentVerified",
      "type": "event"
    },
    {
      "anonymous": false,
      "inputs": [
        {
          "indexed": false,
          "internalType": "uint256",
          "name": "_tokenId",
          "type": "uint256"
        }
      ],
      "name": "MetadataUpdate",
      "type": "event"
    },
    {
      "anonymous": false,
      "inputs": [
        {
          "indexed": true,
          "internalType": "address",
          "name": "previousOwner",
          "type": "address"
        },
        {
          "indexed": true,
          "internalType": "address",
          "name": "newOwner",
          "type": "address"
        }
      ],
      "name": "OwnershipTransferred",
      "type": "event"
    },
    {
      "anonymous": false,
      "inputs": [
        {
          "indexed": true,
          "internalType": "address",
          "name": "user",
          "type": "address"
        },
        {
          "indexed": false,
          "internalType": "uint256",
          "name": "newScore",
          "type": "uint256"
        }
      ],
      "name": "ReputationUpdated",
      "type": "event"
    },
    {
      "anonymous": false,
      "inputs": [
        {
          "indexed": true,
          "internalType": "uint256",
          "name": "storyId",
          "type": "uint256"
        },
        {
          "indexed": true,
          "internalType": "address",
          "name": "creator",
          "type": "address"
        },
        {
          "indexed": false,
          "internalType": "uint256[]",
          "name": "fragmentIds",
          "type": "uint256[]"
        },
        {
          "indexed": false,
          "internalType": "string",
          "name": "title",
          "type": "string"
        }
      ],
      "name": "StoryCreated",
      "type": "event"
    },
    {
      "anonymous": false,
      "inputs": [
        {
          "indexed": true,
          "internalType": "uint256",
          "name": "tokenId",
          "type": "uint256"
        },
        {
          "indexed": true,
          "internalType": "uint256",
          "name": "storyId",
          "type": "uint256"
        },
        {
          "indexed": true,
          "internalType": "address",
          "name": "creator",
          "type": "address"
        }
      ],
      "name": "StoryNFTMinted",
      "type": "event"
    },
    {
      "anonymous": false,
      "inputs": [
        {
          "indexed": true,
          "internalType": "address",
          "name": "from",
          "type": "address"
        },
        {
          "indexed": true,
          "internalType": "address",
          "name": "to",
          "type": "address"
        },
        {
          "indexed": true,
          "internalType": "uint256",
          "name": "tokenId",
          "type": "uint256"
        }
      ],
      "name": "Transfer",
      "type": "event"
    },
    {
      "inputs": [],
      "name": "MAX_STAKE_AMOUNT",
      "outputs": [
        {
          "internalType": "uint256",
          "name": "",
          "type": "uint256"
        }
      ],
      "stateMutability": "view",
      "type": "function"
    },
    {
      "inputs": [],
      "name": "MIN_REPUTATION",
      "outputs": [
        {
          "internalType": "uint256",
          "name": "",
          "type": "uint256"
        }
      ],
      "stateMutability": "view",
      "type": "function"
    },
    {
      "inputs": [],
      "name": "MIN_STAKE_AMOUNT",
      "outputs": [
        {
          "internalType": "uint256",
          "name": "",
          "type": "uint256"
        }
      ],
      "stateMutability": "view",
      "type": "function"
    },
    {
      "inputs": [],
      "name": "QUALITY_THRESHOLD",
      "outputs": [
        {
          "internalType": "uint256",
          "name": "",
          "type": "uint256"
        }
      ],
      "stateMutability": "view",
      "type": "function"
    },
    {
      "inputs": [],
      "name": "REPORT_THRESHOLD",
      "outputs": [
        {
          "internalType": "uint256",
          "name": "",
          "type": "uint256"
        }
      ],
      "stateMutability": "view",
      "type": "function"
    },
    {
      "inputs": [
        {
          "internalType": "address",
          "name": "to",
          "type": "address"
        },
        {
          "internalType": "uint256",
          "name": "tokenId",
          "type": "uint256"
        }
      ],
      "name": "approve",
      "outputs": [],
      "stateMutability": "nonpayable",
      "type": "function"
    },
    {
      "inputs": [
        {
          "internalType": "address",
          "name": "owner",
          "type": "address"
        }
      ],
      "name": "balanceOf",
      "outputs": [
        {
          "internalType": "uint256",
          "name": "",
          "type": "uint256"
        }
      ],
      "stateMutability": "view",
      "type": "function"
    },
    {
      "inputs": [
        {
          "internalType": "uint256",
          "name": "qualityScore",
          "type": "uint256"
        }
      ],
      "name": "calculateStakeAmount",
      "outputs": [
        {
          "internalType": "uint256",
          "name": "",
          "type": "uint256"
        }
      ],
      "stateMutability": "pure",
      "type": "function"
    },
    {
      "inputs": [
        {
          "internalType": "uint256[]",
          "name": "_fragmentIds",
          "type": "uint256[]"
        },
        {
          "internalType": "string",
          "name": "_aiStoryHash",
          "type": "string"
        },
        {
          "internalType": "string",
          "name": "_title",
          "type": "string"
        },
        {
          "internalType": "uint256",
          "name": "_emotionalIntensity",
          "type": "uint256"
        }
      ],
      "name": "createStory",
      "outputs": [
        {
          "internalType": "uint256",
          "name": "",
          "type": "uint256"
        }
      ],
      "stateMutability": "nonpayable",
      "type": "function"
    },
    {
      "inputs": [
        {
          "internalType": "uint256",
          "name": "tokenId",
          "type": "uint256"
        }
      ],
      "name": "getApproved",
      "outputs": [
        {
          "internalType": "address",
          "name": "",
          "type": "address"
        }
      ],
      "stateMutability": "view",
      "type": "function"
    },
    {
      "inputs": [],
      "name": "getPublicFragments",
      "outputs": [
        {
          "internalType": "uint256[]",
          "name": "",
          "type": "uint256[]"
        }
      ],
      "stateMutability": "view",
      "type": "function"
    },
    {
      "inputs": [
        {
          "internalType": "address",
          "name": "_user",
          "type": "address"
        }
      ],
      "name": "getUserFragments",
      "outputs": [
        {
          "internalType": "uint256[]",
          "name": "",
          "type": "uint256[]"
        }
      ],
      "stateMutability": "view",
      "type": "function"
    },
    {
      "inputs": [
        {
          "internalType": "address",
          "name": "_user",
          "type": "address"
        }
      ],
      "name": "getUserStories",
      "outputs": [
        {
          "internalType": "uint256[]",
          "name": "",
          "type": "uint256[]"
        }
      ],
      "stateMutability": "view",
      "type": "function"
    },
    {
      "inputs": [
        {
          "internalType": "uint256",
          "name": "",
          "type": "uint256"
        },
        {
          "internalType": "address",
          "name": "",
          "type": "address"
        }
      ],
      "name": "hasReported",
      "outputs": [
        {
          "internalType": "bool",
          "name": "",
          "type": "bool"
        }
      ],
      "stateMutability": "view",
      "type": "function"
    },
    {
      "inputs": [
        {
          "internalType": "uint256",
          "name": "",
          "type": "uint256"
        },
        {
          "internalType": "address",
          "name": "",
          "type": "address"
        }
      ],
      "name": "hasVoted",
      "outputs": [
        {
          "internalType": "bool",
          "name": "",
          "type": "bool"
        }
      ],
      "stateMutability": "view",
      "type": "function"
    },
    {
      "inputs": [
        {
          "internalType": "address",
          "name": "owner",
          "type": "address"
        },
        {
          "internalType": "address",
          "name": "operator",
          "type": "address"
        }
      ],
      "name": "isApprovedForAll",
      "outputs": [
        {
          "internalType": "bool",
          "name": "",
          "type": "bool"
        }
      ],
      "stateMutability": "view",
      "type": "function"
    },
    {
      "inputs": [
        {
          "internalType": "uint256",
          "name": "",
          "type": "uint256"
        }
      ],
      "name": "memoryFragments",
      "outputs": [
        {
          "internalType": "uint256",
          "name": "id",
          "type": "uint256"
        },
        {
          "internalType": "address",
          "name": "owner",
          "type": "address"
        },
        {
          "internalType": "string",
          "name": "contentHash",
          "type": "string"
        },
        {
          "internalType": "uint256",
          "name": "timestamp",
          "type": "uint256"
        },
        {
          "internalType": "bool",
          "name": "isPublic",
          "type": "bool"
        },
        {
          "internalType": "uint256",
          "name": "emotionScore",
          "type": "uint256"
        },
        {
          "internalType": "string",
          "name": "fragmentType",
          "type": "string"
        },
        {
          "internalType": "uint256",
          "name": "qualityScore",
          "type": "uint256"
        },
        {
          "internalType": "uint256",
          "name": "stakeAmount",
          "type": "uint256"
        },
        {
          "internalType": "enum MemoryFragments.QualityLevel",
          "name": "quality",
          "type": "uint8"
        },
        {
          "internalType": "uint256",
          "name": "communityVotes",
          "type": "uint256"
        },
        {
          "internalType": "uint256",
          "name": "reportCount",
          "type": "uint256"
        },
        {
          "internalType": "bool",
          "name": "isVerified",
          "type": "bool"
        }
      ],
      "stateMutability": "view",
      "type": "function"
    },
    {
      "inputs": [
        {
          "internalType": "uint256",
          "name": "",
          "type": "uint256"
        }
      ],
      "name": "memoryStories",
      "outputs": [
        {
          "internalType": "uint256",
          "name": "storyId",
          "type": "uint256"
        },
        {
          "internalType": "address",
          "name": "creator",
          "type": "address"
        },
        {
          "internalType": "string",
          "name": "storyHash",
          "type": "string"
        },
        {
          "internalType": "uint256",
          "name": "mintTimestamp",
          "type": "uint256"
        },
        {
          "internalType": "bool",
          "name": "isNFTMinted",
          "type": "bool"
        },
        {
          "internalType": "string",
          "name": "title",
          "type": "string"
        },
        {
          "internalType": "uint256",
          "name": "emotionalIntensity",
          "type": "uint256"
        }
      ],
      "stateMutability": "view",
      "type": "function"
    },
    {
      "inputs": [
        {
          "internalType": "uint256",
          "name": "_storyId",
          "type": "uint256"
        }
      ],
      "name": "mintStoryNFT",
      "outputs": [
        {
          "internalType": "uint256",
          "name": "",
          "type": "uint256"
        }
      ],
      "stateMutability": "nonpayable",
      "type": "function"
    },
    {
      "inputs": [],
      "name": "name",
      "outputs": [
        {
          "internalType": "string",
          "name": "",
          "type": "string"
        }
      ],
      "stateMutability": "view",
      "type": "function"
    },
    {
      "inputs": [],
      "name": "owner",
      "outputs": [
        {
          "internalType": "address",
          "name": "",
          "type": "address"
        }
      ],
      "stateMutability": "view",
      "type": "function"
    },
    {
      "inputs": [
        {
          "internalType": "uint256",
          "name": "tokenId",
          "type": "uint256"
        }
      ],
      "name": "ownerOf",
      "outputs": [
        {
          "internalType": "address",
          "name": "",
          "type": "address"
        }
      ],
      "stateMutability": "view",
      "type": "function"
    },
    {
      "inputs": [],
      "name": "qualityBonusPool",
      "outputs": [
        {
          "internalType": "uint256",
          "name": "",
          "type": "uint256"
        }
      ],
      "stateMutability": "view",
      "type": "function"
    },
    {
      "inputs": [],
      "name": "renounceOwnership",
      "outputs": [],
      "stateMutability": "nonpayable",
      "type": "function"
    },
    {
      "inputs": [],
      "name": "rewardPool",
      "outputs": [
        {
          "internalType": "uint256",
          "name": "",
          "type": "uint256"
        }
      ],
      "stateMutability": "view",
      "type": "function"
    },
    {
      "inputs": [
        {
          "internalType": "address",
          "name": "from",
          "type": "address"
        },
        {
          "internalType": "address",
          "name": "to",
          "type": "address"
        },
        {
          "internalType": "uint256",
          "name": "tokenId",
          "type": "uint256"
        }
      ],
      "name": "safeTransferFrom",
      "outputs": [],
      "stateMutability": "nonpayable",
      "type": "function"
    },
    {
      "inputs": [
        {
          "internalType": "address",
          "name": "from",
          "type": "address"
        },
        {
          "internalType": "address",
          "name": "to",
          "type": "address"
        },
        {
          "internalType": "uint256",
          "name": "tokenId",
          "type": "uint256"
        },
        {
          "internalType": "bytes",
          "name": "data",
          "type": "bytes"
        }
      ],
      "name": "safeTransferFrom",
      "outputs": [],
      "stateMutability": "nonpayable",
      "type": "function"
    },
    {
      "inputs": [
        {
          "internalType": "address",
          "name": "operator",
          "type": "address"
        },
        {
          "internalType": "bool",
          "name": "approved",
          "type": "bool"
        }
      ],
      "name": "setApprovalForAll",
      "outputs": [],
      "stateMutability": "nonpayable",
      "type": "function"
    },
    {
      "inputs": [
        {
          "internalType": "bytes4",
          "name": "interfaceId",
          "type": "bytes4"
        }
      ],
      "name": "supportsInterface",
      "outputs": [
        {
          "internalType": "bool",
          "name": "",
          "type": "bool"
        }
      ],
      "stateMutability": "view",
      "type": "function"
    },
    {
      "inputs": [],
      "name": "symbol",
      "outputs": [
        {
          "internalType": "string",
          "name": "",
          "type": "string"
        }
      ],
      "stateMutability": "view",
      "type": "function"
    },
    {
      "inputs": [
        {
          "internalType": "uint256",
          "name": "tokenId",
          "type": "uint256"
        }
      ],
      "name": "tokenURI",
      "outputs": [
        {
          "internalType": "string",
          "name": "",
          "type": "string"
        }
      ],
      "stateMutability": "view",
      "type": "function"
    },
    {
      "inputs": [
        {
          "internalType": "address",
          "name": "from",
          "type": "address"
        },
        {
          "internalType": "address",
          "name": "to",
          "type": "address"
        },
        {
          "internalType": "uint256",
          "name": "tokenId",
          "type": "uint256"
        }
      ],
      "name": "transferFrom",
      "outputs": [],
      "stateMutability": "nonpayable",
      "type": "function"
    },
    {
      "inputs": [
        {
          "internalType": "address",
          "name": "newOwner",
          "type": "address"
        }
      ],
      "name": "transferOwnership",
      "outputs": [],
      "stateMutability": "nonpayable",
      "type": "function"
    },
    {
      "inputs": [
        {
          "internalType": "string",
          "name": "_contentHash",
          "type": "string"
        },
        {
          "internalType": "string[]",
          "name": "_tags",
          "type": "string[]"
        },
        {
          "internalType": "bool",
          "name": "_isPublic",
          "type": "bool"
        },
        {
          "internalType": "uint256",
          "name": "_emotionScore",
          "type": "uint256"
        },
        {
          "internalType": "string",
          "name": "_fragmentType",
          "type": "string"
        },
        {
          "internalType": "uint256",
          "name": "_qualityScore",
          "type": "uint256"
        }
      ],
      "name": "uploadFragment",
      "outputs": [
        {
          "internalType": "uint256",
          "name": "",
          "type": "uint256"
        }
      ],
      "stateMutability": "payable",
      "type": "function"
    },
    {
      "inputs": [
        {
          "internalType": "address",
          "name": "",
          "type": "address"
        },
        {
          "internalType": "uint256",
          "name": "",
          "type": "uint256"
        }
      ],
      "name": "userFragments",
      "outputs": [
        {
          "internalType": "uint256",
          "name": "",
          "type": "uint256"
        }
      ],
      "stateMutability": "view",
      "type": "function"
    },
    {
      "inputs": [
        {
          "internalType": "address",
          "name": "",
          "type": "address"
        }
      ],
      "name": "userReputations",
      "outputs": [
        {
          "internalType": "uint256",
          "name": "totalSubmissions",
          "type": "uint256"
        },
        {
          "internalType": "uint256",
          "name": "verifiedSubmissions",
          "type": "uint256"
        },
        {
          "internalType": "uint256",
          "name": "totalReports",
          "type": "uint256"
        },
        {
          "internalType": "uint256",
          "name": "reputationScore",
          "type": "uint256"
        },
        {
          "internalType": "bool",
          "name": "isBanned",
          "type": "bool"
        },
        {
          "internalType": "uint256",
          "name": "bannedUntil",
          "type": "uint256"
        }
      ],
      "stateMutability": "view",
      "type": "function"
    },
    {
      "inputs": [
        {
          "internalType": "address",
          "name": "",
          "type": "address"
        },
        {
          "internalType": "uint256",
          "name": "",
          "type": "uint256"
        }
      ],
      "name": "userStories",
      "outputs": [
        {
          "internalType": "uint256",
          "name": "",
          "type": "uint256"
        }
      ],
      "stateMutability": "view",
      "type": "function"
    }
  ],
  "bytecode": "0x60806040523480156200001157600080fd5b506040518060400160405280601081526020016f4d656d6f727920467261676d656e747360801b815250604051806040016040528060068152602001654d454d4f525960d01b81525081600090816200006b9190620001b5565b5060016200007a8282620001b5565b5050506200009762000091620000ba60201b60201c565b620000be565b6001600855336000908152600d602052604090206103e860039091015562000281565b3390565b600780546001600160a01b038381166001600160a01b0319831681179093556040519116919082907f8be0079c531659141344cd1fd0a4f28419497f9722a3daafe3b4186f6b6457e090600090a35050565b634e487b7160e01b600052604160045260246000fd5b600181811c908216806200013b57607f821691505b6020821081036200015c57634e487b7160e01b600052602260045260246000fd5b50919050565b601f821115620001b057600081815260208120601f850160051c810160208610156200018b5750805b601f850160051c820191505b81811015620001ac5782815560010162000197565b5050505b505050565b81516001600160401b03811115620001d157620001d162000110565b620001e981620001e2845462000126565b8462000162565b602080601f831160018114620002215760008415620002085750858301515b600019600386901b1c1916600185901b178555620001ac565b600085815260208120601f198616915b82811015620002525788860151825594840194600190910190840162000231565b5085821015620002715787850151600019600388901b60f8161c191681555b5050505050600190811b01905550565b61311c80620002916000396000f3fe60806040526004361061021a5760003560e01c806366666aa911610123578063961ed7e1116100ab578063e0685a6d1161006f578063e0685a6d14610668578063e985e9c51461067e578063f2fde38b1461069e578063f5909bf4146106be578063f8b11691146106de57600080fd5b8063961ed7e1146105c8578063a22cb465146105e8578063b88d4fde14610608578063be24243814610628578063c87b56dd1461064857600080fd5b806384dd832a116100f257806384dd832a14610538578063874d06a01461056b5780638da5cb5b14610580578063945588391461059e57806395d89b41146105b357600080fd5b806366666aa9146104d8578063697c6045146104ee57806370a0823114610503578063715018a61461052357600080fd5b80632f92f1f2116101a65780634385963211610175578063438596321461041b5780634729c72b146104565780634a5bf21b146104835780634aa06447146104a35780636352211e146104b857600080fd5b80632f92f1f214610387578063347d0669146103a257806339d901cb146103db57806342842e0e146103fb57600080fd5b80630cfc4ce0116101ed5780630cfc4ce0146102d05780630f0c3fc4146102fe5780631dbb2c021461033957806323b872dd1461034c57806327ed71881461036c57600080fd5b806301ffc9a71461021f57806306fdde0314610254578063081812fc14610276578063095ea7b3146102ae575b600080fd5b34801561022b57600080fd5b5061023f61023a3660046126be565b610763565b60405190151581526020015b60405180910390f35b34801561026057600080fd5b50610269610774565b60405161024b919061272b565b34801561028257600080fd5b5061029661029136600461273e565b610806565b6040516001600160a01b03909116815260200161024b565b3480156102ba57600080fd5b506102ce6102c9366004612773565b61082d565b005b3480156102dc57600080fd5b506102f06102eb36600461273e565b610947565b60405190815260200161024b565b34801561030a57600080fd5b5061023f61031936600461279d565b601160209081526000928352604080842090915290825290205460ff1681565b6102f06103473660046128bc565b6109ba565b34801561035857600080fd5b506102ce6103673660046129d8565b610d4d565b34801561037857600080fd5b506102f066038d7ea4c6800081565b34801561039357600080fd5b506102f0662386f26fc1000081565b3480156103ae57600080fd5b506103c26103bd36600461273e565b610d7e565b60405161024b9d9c9b9a99989796959493929190612a4c565b3480156103e757600080fd5b506102f06103f6366004612aec565b610f08565b34801561040757600080fd5b506102ce6104163660046129d8565b61112b565b34801561042757600080fd5b5061023f61043636600461279d565b601060209081526000928352604080842090915290825290205460ff1681565b34801561046257600080fd5b50610476610471366004612bd1565b611146565b60405161024b9190612c27565b34801561048f57600080fd5b506102f061049e366004612773565b6111b2565b3480156104af57600080fd5b506102f0600381565b3480156104c457600080fd5b506102966104d336600461273e565b6111e3565b3480156104e457600080fd5b506102f060125481565b3480156104fa57600080fd5b506102f0606481565b34801561050f57600080fd5b506102f061051e366004612bd1565b611243565b34801561052f57600080fd5b506102ce6112c9565b34801561054457600080fd5b5061055861055336600461273e565b6112dd565b60405161024b9796959493929190612c3a565b34801561057757600080fd5b5061047661143a565b34801561058c57600080fd5b506007546001600160a01b0316610296565b3480156105aa57600080fd5b506102f0604681565b3480156105bf57600080fd5b506102696115ba565b3480156105d457600080fd5b506102f06105e3366004612773565b6115c9565b3480156105f457600080fd5b506102ce610603366004612c99565b6115e5565b34801561061457600080fd5b506102ce610623366004612cc3565b6115f4565b34801561063457600080fd5b506102f061064336600461273e565b61162c565b34801561065457600080fd5b5061026961066336600461273e565b6117f0565b34801561067457600080fd5b506102f060135481565b34801561068a57600080fd5b5061023f610699366004612d3f565b6117fb565b3480156106aa57600080fd5b506102ce6106b9366004612bd1565b611829565b3480156106ca57600080fd5b506104766106d9366004612bd1565b6118a2565b3480156106ea57600080fd5b506107346106f9366004612bd1565b600d60205260009081526040902080546001820154600283015460038401546004850154600590950154939492939192909160ff9091169086565b6040805196875260208701959095529385019290925260608401521515608083015260a082015260c00161024b565b600061076e8261190c565b92915050565b60606000805461078390612d69565b80601f01602080910402602001604051908101604052809291908181526020018280546107af90612d69565b80156107fc5780601f106107d1576101008083540402835291602001916107fc565b820191906000526020600020905b8154815290600101906020018083116107df57829003601f168201915b5050505050905090565b600061081182611931565b506000908152600460205260409020546001600160a01b031690565b6000610838826111e3565b9050806001600160a01b0316836001600160a01b0316036108aa5760405162461bcd60e51b815260206004820152602160248201527f4552433732313a20617070726f76616c20746f2063757272656e74206f776e656044820152603960f91b60648201526084015b60405180910390fd5b336001600160a01b03821614806108c657506108c681336117fb565b6109385760405162461bcd60e51b815260206004820152603d60248201527f4552433732313a20617070726f76652063616c6c6572206973206e6f7420746f60448201527f6b656e206f776e6572206f7220617070726f76656420666f7220616c6c00000060648201526084016108a1565b6109428383611990565b505050565b60006046821061095957506000919050565b6000610966836046612db9565b90506000600a61097d66038d7ea4c6800084612dcc565b6109879190612de3565b6109989066038d7ea4c68000612e05565b9050662386f26fc100008111156109b35750662386f26fc100005b9392505050565b60006109c46119fe565b336000818152600d602052604090206004015460ff161580610a0057506001600160a01b0381166000908152600d602052604090206005015442115b610a3d5760405162461bcd60e51b815260206004820152600e60248201526d155cd95c881a5cc818985b9b995960921b60448201526064016108a1565b6000610a4884610947565b905080341015610a9a5760405162461bcd60e51b815260206004820152601960248201527f496e73756666696369656e74207374616b6520616d6f756e740000000000000060448201526064016108a1565b610aa8600980546001019055565b6000610ab360095490565b90506000605a8610610ac757506003610ae3565b60508610610ad757506002610ae3565b603c8610610ae3575060015b6000604051806101c00160405280848152602001336001600160a01b031681526020018d81526020014281526020018c81526020018b151581526020018a8152602001898152602001888152602001348152602001836003811115610b4a57610b4a612a14565b815260006020808301829052604080840183905260468c1015606090940193909352868252600b81529082902083518155908301516001820180546001600160a01b0319166001600160a01b039092169190911790559082015191925082916002820190610bb89082612e66565b506060820151600382015560808201518051610bde91600484019160209091019061259f565b5060a082015160058201805460ff191691151591909117905560c0820151600682015560e08201516007820190610c159082612e66565b5061010082015160088201556101208201516009820155610140820151600a8201805460ff19166001836003811115610c5057610c50612a14565b0217905550610160820151600b820155610180820151600c8201556101a090910151600d909101805460ff1916911515919091179055336000818152600e6020908152604082208054600181810183559184529190922001859055610cb59190611a57565b83341115610cf557336108fc610ccb8634612db9565b6040518115909202916000818181858888f19350505050158015610cf3573d6000803e3d6000fd5b505b6040805188815260208101869052339185917f9083fa076b2a92c4d039228150b0d0a4d2134039403a3f5e23a2aa4ae554e2ec910160405180910390a350909350505050610d436001600855565b9695505050505050565b610d573382611b59565b610d735760405162461bcd60e51b81526004016108a190612f26565b610942838383611bb7565b600b6020526000908152604090208054600182015460028301805492936001600160a01b0390921692610db090612d69565b80601f0160208091040260200160405190810160405280929190818152602001828054610ddc90612d69565b8015610e295780601f10610dfe57610100808354040283529160200191610e29565b820191906000526020600020905b815481529060010190602001808311610e0c57829003601f168201915b5050506003840154600585015460068601546007870180549697939660ff909316955090935090610e5990612d69565b80601f0160208091040260200160405190810160405280929190818152602001828054610e8590612d69565b8015610ed25780601f10610ea757610100808354040283529160200191610ed2565b820191906000526020600020905b815481529060010190602001808311610eb557829003601f168201915b50505060088401546009850154600a860154600b870154600c880154600d909801549697939692955060ff91821694509291168d565b6000805b8551811015610fbb57336001600160a01b0316600b6000888481518110610f3557610f35612f73565b6020908102919091018101518252810191909152604001600020600101546001600160a01b031614610fa95760405162461bcd60e51b815260206004820152601b60248201527f596f7520646f6e2774206f776e20616c6c20667261676d656e7473000000000060448201526064016108a1565b80610fb381612f89565b915050610f0c565b50610fca600a80546001019055565b6000610fd5600a5490565b60408051610100810182528281523360208083019182528284018b8152606084018b9052426080850152600060a0850181905260c085018b905260e085018a9052868152600c8352949094208351815591516001830180546001600160a01b0319166001600160a01b03909216919091179055925180519495509193849391926110669260028501929101906125f5565b506060820151600382019061107b9082612e66565b506080820151600482015560a082015160058201805460ff191691151591909117905560c082015160068201906110b29082612e66565b5060e09190910151600790910155336000818152600f60209081526040808320805460018101825590845291909220018490555183907f1b1d44adca459e9d1e6538c18a963a157fcd49e3bb159518483e8ca188f6dcf690611117908b908a90612fa2565b60405180910390a35090505b949350505050565b610942838383604051806020016040528060008152506115f4565b6001600160a01b0381166000908152600e60209081526040918290208054835181840281018401909452808452606093928301828280156111a657602002820191906000526020600020905b815481526020019060010190808311611192575b50505050509050919050565b600f60205281600052604060002081815481106111ce57600080fd5b90600052602060002001600091509150505481565b6000818152600260205260408120546001600160a01b03168061076e5760405162461bcd60e51b8152602060048201526018602482015277115490cdcc8c4e881a5b9d985b1a59081d1bdad95b88125160421b60448201526064016108a1565b60006001600160a01b0382166112ad5760405162461bcd60e51b815260206004820152602960248201527f4552433732313a2061646472657373207a65726f206973206e6f7420612076616044820152683634b21037bbb732b960b91b60648201526084016108a1565b506001600160a01b031660009081526003602052604090205490565b6112d1611d1b565b6112db6000611d75565b565b600c6020526000908152604090208054600182015460038301805492936001600160a01b039092169261130f90612d69565b80601f016020809104026020016040519081016040528092919081815260200182805461133b90612d69565b80156113885780601f1061135d57610100808354040283529160200191611388565b820191906000526020600020905b81548152906001019060200180831161136b57829003601f168201915b50505050600483015460058401546006850180549495929460ff9092169350906113b190612d69565b80601f01602080910402602001604051908101604052809291908181526020018280546113dd90612d69565b801561142a5780601f106113ff5761010080835404028352916020019161142a565b820191906000526020600020905b81548152906001019060200180831161140d57829003601f168201915b5050505050908060070154905087565b6060600061144760095490565b67ffffffffffffffff81111561145f5761145f6127c9565b604051908082528060200260200182016040528015611488578160200160208202803683370190505b509050600060015b6009548111611516576000818152600b602052604090206005015460ff1680156114d357506000818152600b60205260409020600101546001600160a01b031615155b1561150457808383815181106114eb576114eb612f73565b60209081029190910101528161150081612f89565b9250505b8061150e81612f89565b915050611490565b5060008167ffffffffffffffff811115611532576115326127c9565b60405190808252806020026020018201604052801561155b578160200160208202803683370190505b50905060005b828110156115b25783818151811061157b5761157b612f73565b602002602001015182828151811061159557611595612f73565b6020908102919091010152806115aa81612f89565b915050611561565b509392505050565b60606001805461078390612d69565b600e60205281600052604060002081815481106111ce57600080fd5b6115f0338383611dc7565b5050565b6115fe3383611b59565b61161a5760405162461bcd60e51b81526004016108a190612f26565b61162684848484611e95565b50505050565b6000818152600c60205260408120600101546001600160a01b031633146116865760405162461bcd60e51b815260206004820152600e60248201526d4e6f7420796f75722073746f727960901b60448201526064016108a1565b6000828152600c602052604090206005015460ff16156116d95760405162461bcd60e51b815260206004820152600e60248201526d105b1c9958591e481b5a5b9d195960921b60448201526064016108a1565b6116e7600980546001019055565b60006116f260095490565b90506116fe3382611ec8565b6000838152600c6020526040902060030180546117a391839161172090612d69565b80601f016020809104026020016040519081016040528092919081815260200182805461174c90612d69565b80156117995780601f1061176e57610100808354040283529160200191611799565b820191906000526020600020905b81548152906001019060200180831161177c57829003601f168201915b5050505050611ee2565b6000838152600c6020526040808220600501805460ff19166001179055513391859184917f0fa3b46e29e193bfc29ce296a50781cc23a8ef5c1191a1fb62d78e1b18a087be91a492915050565b606061076e82611fad565b6001600160a01b03918216600090815260056020908152604080832093909416825291909152205460ff1690565b611831611d1b565b6001600160a01b0381166118965760405162461bcd60e51b815260206004820152602660248201527f4f776e61626c653a206e6577206f776e657220697320746865207a65726f206160448201526564647265737360d01b60648201526084016108a1565b61189f81611d75565b50565b6001600160a01b0381166000908152600f60209081526040918290208054835181840281018401909452808452606093928301828280156111a657602002820191906000526020600020908154815260200190600101908083116111925750505050509050919050565b60006001600160e01b03198216632483248360e11b148061076e575061076e826120b5565b6000818152600260205260409020546001600160a01b031661189f5760405162461bcd60e51b8152602060048201526018602482015277115490cdcc8c4e881a5b9d985b1a59081d1bdad95b88125160421b60448201526064016108a1565b600081815260046020526040902080546001600160a01b0319166001600160a01b03841690811790915581906119c5826111e3565b6001600160a01b03167f8c5be1e5ebec7d5bd14f71427d1e84f3dd0314c0f7b2291e5b200ac8c7c3b92560405160405180910390a45050565b600260085403611a505760405162461bcd60e51b815260206004820152601f60248201527f5265656e7472616e637947756172643a207265656e7472616e742063616c6c0060448201526064016108a1565b6002600855565b6001600160a01b0382166000908152600d60205260408120805490918290611a7e83612f89565b91905055508115611ace57600181018054906000611a9b83612f89565b91905055506103e881600301541015611ac957600a816003016000828254611ac39190612e05565b90915550505b611b0d565b600281018054906000611ae083612f89565b9190505550601481600301541115611b0d576014816003016000828254611b079190612db9565b90915550505b826001600160a01b03167ffc577563f1b9a0461e24abef1e1fcc0d33d3d881f20b5df6dda59de4aae2c8218260030154604051611b4c91815260200190565b60405180910390a2505050565b600080611b65836111e3565b9050806001600160a01b0316846001600160a01b03161480611b8c5750611b8c81856117fb565b806111235750836001600160a01b0316611ba584610806565b6001600160a01b031614949350505050565b826001600160a01b0316611bca826111e3565b6001600160a01b031614611bf05760405162461bcd60e51b81526004016108a190612fd0565b6001600160a01b038216611c525760405162461bcd60e51b8152602060048201526024808201527f4552433732313a207472616e7366657220746f20746865207a65726f206164646044820152637265737360e01b60648201526084016108a1565b826001600160a01b0316611c65826111e3565b6001600160a01b031614611c8b5760405162461bcd60e51b81526004016108a190612fd0565b600081815260046020908152604080832080546001600160a01b03199081169091556001600160a01b0387811680865260038552838620805460001901905590871680865283862080546001019055868652600290945282852080549092168417909155905184937fddf252ad1be2c89b69c2b068fc378daa952ba7f163c4a11628f55a4df523b3ef91a4505050565b6007546001600160a01b031633146112db5760405162461bcd60e51b815260206004820181905260248201527f4f776e61626c653a2063616c6c6572206973206e6f7420746865206f776e657260448201526064016108a1565b600780546001600160a01b038381166001600160a01b0319831681179093556040519116919082907f8be0079c531659141344cd1fd0a4f28419497f9722a3daafe3b4186f6b6457e090600090a35050565b816001600160a01b0316836001600160a01b031603611e285760405162461bcd60e51b815260206004820152601960248201527f4552433732313a20617070726f766520746f2063616c6c65720000000000000060448201526064016108a1565b6001600160a01b03838116600081815260056020908152604080832094871680845294825291829020805460ff191686151590811790915591519182527f17307eab39ab6107e8899845ad3d59bd9653f200f220920489ca2b5937696c31910160405180910390a3505050565b611ea0848484611bb7565b611eac84848484612105565b6116265760405162461bcd60e51b81526004016108a190613015565b6115f0828260405180602001604052806000815250612203565b6000828152600260205260409020546001600160a01b0316611f5d5760405162461bcd60e51b815260206004820152602e60248201527f45524337323155524953746f726167653a2055524920736574206f66206e6f6e60448201526d32bc34b9ba32b73a103a37b5b2b760911b60648201526084016108a1565b6000828152600660205260409020611f758282612e66565b506040518281527ff8e1a15aba9398e019f0b49df1a4fde98ee17ae345cb5f6b5e2c27f5033e8ce79060200160405180910390a15050565b6060611fb882611931565b60008281526006602052604081208054611fd190612d69565b80601f0160208091040260200160405190810160405280929190818152602001828054611ffd90612d69565b801561204a5780601f1061201f5761010080835404028352916020019161204a565b820191906000526020600020905b81548152906001019060200180831161202d57829003601f168201915b50505050509050600061206860408051602081019091526000815290565b9050805160000361207a575092915050565b8151156120ac578082604051602001612094929190613067565b60405160208183030381529060405292505050919050565b61112384612236565b60006001600160e01b031982166380ac58cd60e01b14806120e657506001600160e01b03198216635b5e139f60e01b145b8061076e57506301ffc9a760e01b6001600160e01b031983161461076e565b60006001600160a01b0384163b156121fb57604051630a85bd0160e11b81526001600160a01b0385169063150b7a0290612149903390899088908890600401613096565b6020604051808303816000875af1925050508015612184575060408051601f3d908101601f19168201909252612181918101906130c9565b60015b6121e1573d8080156121b2576040519150601f19603f3d011682016040523d82523d6000602084013e6121b7565b606091505b5080516000036121d95760405162461bcd60e51b81526004016108a190613015565b805181602001fd5b6001600160e01b031916630a85bd0160e11b149050611123565b506001611123565b61220d83836122a9565b61221a6000848484612105565b6109425760405162461bcd60e51b81526004016108a190613015565b606061224182611931565b600061225860408051602081019091526000815290565b9050600081511161227857604051806020016040528060008152506109b3565b8061228284612434565b604051602001612293929190613067565b6040516020818303038152906040529392505050565b6001600160a01b0382166122ff5760405162461bcd60e51b815260206004820181905260248201527f4552433732313a206d696e7420746f20746865207a65726f206164647265737360448201526064016108a1565b6000818152600260205260409020546001600160a01b0316156123645760405162461bcd60e51b815260206004820152601c60248201527f4552433732313a20746f6b656e20616c7265616479206d696e7465640000000060448201526064016108a1565b6000818152600260205260409020546001600160a01b0316156123c95760405162461bcd60e51b815260206004820152601c60248201527f4552433732313a20746f6b656e20616c7265616479206d696e7465640000000060448201526064016108a1565b6001600160a01b038216600081815260036020908152604080832080546001019055848352600290915280822080546001600160a01b0319168417905551839291907fddf252ad1be2c89b69c2b068fc378daa952ba7f163c4a11628f55a4df523b3ef908290a45050565b60606000612441836124c7565b600101905060008167ffffffffffffffff811115612461576124616127c9565b6040519080825280601f01601f19166020018201604052801561248b576020820181803683370190505b5090508181016020015b600019016f181899199a1a9b1b9c1cb0b131b232b360811b600a86061a8153600a850494508461249557509392505050565b60008072184f03e93ff9f4daa797ed6e38ed64bf6a1f0160401b83106125065772184f03e93ff9f4daa797ed6e38ed64bf6a1f0160401b830492506040015b6d04ee2d6d415b85acef81000000008310612532576d04ee2d6d415b85acef8100000000830492506020015b662386f26fc10000831061255057662386f26fc10000830492506010015b6305f5e1008310612568576305f5e100830492506008015b612710831061257c57612710830492506004015b6064831061258e576064830492506002015b600a831061076e5760010192915050565b8280548282559060005260206000209081019282156125e5579160200282015b828111156125e557825182906125d59082612e66565b50916020019190600101906125bf565b506125f192915061263c565b5090565b828054828255906000526020600020908101928215612630579160200282015b82811115612630578251825591602001919060010190612615565b506125f1929150612659565b808211156125f1576000612650828261266e565b5060010161263c565b5b808211156125f1576000815560010161265a565b50805461267a90612d69565b6000825580601f1061268a575050565b601f01602090049060005260206000209081019061189f9190612659565b6001600160e01b03198116811461189f57600080fd5b6000602082840312156126d057600080fd5b81356109b3816126a8565b60005b838110156126f65781810151838201526020016126de565b50506000910152565b600081518084526127178160208601602086016126db565b601f01601f19169290920160200192915050565b6020815260006109b360208301846126ff565b60006020828403121561275057600080fd5b5035919050565b80356001600160a01b038116811461276e57600080fd5b919050565b6000806040838503121561278657600080fd5b61278f83612757565b946020939093013593505050565b600080604083850312156127b057600080fd5b823591506127c060208401612757565b90509250929050565b634e487b7160e01b600052604160045260246000fd5b604051601f8201601f1916810167ffffffffffffffff81118282101715612808576128086127c9565b604052919050565b600067ffffffffffffffff83111561282a5761282a6127c9565b61283d601f8401601f19166020016127df565b905082815283838301111561285157600080fd5b828260208301376000602084830101529392505050565b600082601f83011261287957600080fd5b6109b383833560208501612810565b600067ffffffffffffffff8211156128a2576128a26127c9565b5060051b60200190565b8035801515811461276e57600080fd5b60008060008060008060c087890312156128d557600080fd5b67ffffffffffffffff80883511156128ec57600080fd5b6128f98989358a01612868565b96506020808901358281111561290e57600080fd5b8901601f81018b1361291f57600080fd5b803561293261292d82612888565b6127df565b81815260059190911b8201830190838101908d83111561295157600080fd5b8484015b8381101561298757868135111561296b57600080fd5b61297a8f878335880101612868565b8352918501918501612955565b50809a50505050505061299c604089016128ac565b9450606088013593506080880135818111156129b757600080fd5b6129c38a828b01612868565b9350505060a087013590509295509295509295565b6000806000606084860312156129ed57600080fd5b6129f684612757565b9250612a0460208501612757565b9150604084013590509250925092565b634e487b7160e01b600052602160045260246000fd5b60048110612a4857634e487b7160e01b600052602160045260246000fd5b9052565b8d81526001600160a01b038d1660208201526101a060408201819052600090612a778382018f6126ff565b90508c60608401528b151560808401528a60a084015282810360c0840152612a9f818b6126ff565b9150508760e083015286610100830152612abd610120830187612a2a565b8461014083015283610160830152612ada61018083018415159052565b9e9d5050505050505050505050505050565b60008060008060808587031215612b0257600080fd5b843567ffffffffffffffff80821115612b1a57600080fd5b818701915087601f830112612b2e57600080fd5b81356020612b3e61292d83612888565b82815260059290921b8401810191818101908b841115612b5d57600080fd5b948201945b83861015612b7b57853582529482019490820190612b62565b98505088013592505080821115612b9157600080fd5b612b9d88838901612868565b94506040870135915080821115612bb357600080fd5b50612bc087828801612868565b949793965093946060013593505050565b600060208284031215612be357600080fd5b6109b382612757565b600081518084526020808501945080840160005b83811015612c1c57815187529582019590820190600101612c00565b509495945050505050565b6020815260006109b36020830184612bec565b8781526001600160a01b038716602082015260e060408201819052600090612c64908301886126ff565b866060840152851515608084015282810360a0840152612c8481866126ff565b9150508260c083015298975050505050505050565b60008060408385031215612cac57600080fd5b612cb583612757565b91506127c0602084016128ac565b60008060008060808587031215612cd957600080fd5b612ce285612757565b9350612cf060208601612757565b925060408501359150606085013567ffffffffffffffff811115612d1357600080fd5b8501601f81018713612d2457600080fd5b612d3387823560208401612810565b91505092959194509250565b60008060408385031215612d5257600080fd5b612d5b83612757565b91506127c060208401612757565b600181811c90821680612d7d57607f821691505b602082108103612d9d57634e487b7160e01b600052602260045260246000fd5b50919050565b634e487b7160e01b600052601160045260246000fd5b8181038181111561076e5761076e612da3565b808202811582820484141761076e5761076e612da3565b600082612e0057634e487b7160e01b600052601260045260246000fd5b500490565b8082018082111561076e5761076e612da3565b601f82111561094257600081815260208120601f850160051c81016020861015612e3f5750805b601f850160051c820191505b81811015612e5e57828155600101612e4b565b505050505050565b815167ffffffffffffffff811115612e8057612e806127c9565b612e9481612e8e8454612d69565b84612e18565b602080601f831160018114612ec95760008415612eb15750858301515b600019600386901b1c1916600185901b178555612e5e565b600085815260208120601f198616915b82811015612ef857888601518255948401946001909101908401612ed9565b5085821015612f165787850151600019600388901b60f8161c191681555b5050505050600190811b01905550565b6020808252602d908201527f4552433732313a2063616c6c6572206973206e6f7420746f6b656e206f776e6560408201526c1c881bdc88185c1c1c9bdd9959609a1b606082015260800190565b634e487b7160e01b600052603260045260246000fd5b600060018201612f9b57612f9b612da3565b5060010190565b604081526000612fb56040830185612bec565b8281036020840152612fc781856126ff565b95945050505050565b60208082526025908201527f4552433732313a207472616e736665722066726f6d20696e636f72726563742060408201526437bbb732b960d91b606082015260800190565b60208082526032908201527f4552433732313a207472616e7366657220746f206e6f6e20455243373231526560408201527131b2b4bb32b91034b6b83632b6b2b73a32b960711b606082015260800190565b600083516130798184602088016126db565b83519083019061308d8183602088016126db565b01949350505050565b6001600160a01b0385811682528416602082015260408101839052608060608201819052600090610d43908301846126ff565b6000602082840312156130db57600080fd5b81516109b3816126a856fea264697066735822122033579baa398b155da0888af70b740a1ae7bf14c89a14290d51b7fcbea11c579064736f6c63430008130033",
  "linkReferences": {},
  "deployedLinkReferences": {}
}